:020000040000FA
:04000000EBEF00F032
:100008005B82D9CF03F0DACF04F01CD0AECF58F022
:10001800010146514511441103E1040E435D01E31A
:100028007B6B3A0E7B1901E17B07100E7B25D96E9D
:10003800DA6A020EDA2258C0DFFF7B2B436B446B6F
:10004800456B466B9EBAE2D79EB89DA847D0000E76
:1000580001017825D96EDA6A040EDA22DF50AD6E16
:10006800782B7751781903E03A0E781902E19D98B8
:10007800786B436B446B456B466B30D071B4D0A240
:1000880008D05A5006E174CF58F0585004E1FF00E8
:1000980002D074CF58F0D08258C073FF320E0001DE
:1000A800E51901E1E507080E581804E1E55102E0F9
:1000B800E50714D00D0E581803E00A0E581804E18D
:1000C800586AE5290101796F4A0E0001E525D96EC4
:1000D800DA6A020EDA2258C0DFFFE52BA4BACED7BF
:1000E8006ED00001EF5157E0595003E1020E5A1843
:1000F80029E0580E0101575D020E585902E289980D
:1001080001D08988898A5751016E5851026E574B20
:10011800582BBD0E015C020E025811E3010E82A29B
:10012800000E761908E1890E575D130E585907E33A
:10013800576B586B04D0020E586FBC0E576F596B33
:100148005A6B29D0580E0101595D020E5A5903E223
:100158008988899A02D08988898A5951016E5A51A9
:10016800026E594B5A2BBD0E015C020E025811E368
:10017800010E82A2000EC91908E1890E595D130EFD
:100188005A5907E3596B5A6B04D0020E5A6FBC0ECA
:10019800596F576B586B0101472B000E48234923B1
:1001A8004A23432B4423452346236F076F2906E13F
:1001B8006CC167FF0A0E6F6F010E6E6F7E907EB086
:1001C80090D704C0DAFF03C0D9FF5B9211000BEF90
:1001D8003AF053EF08F0250E3F1830E02050D96E62
:1001E800DA6A020ED926DE50DE1013E02050D96EEE
:1001F800DA6A020ED92602D853EF08F00500FA6E23
:10020800DE50FD6EDE50FE6EF850FF6EFA503F5025
:1002180012002050D96EDA6ADECF24F0DDCF25F047
:1002280024C0D9FF25C0DAFF3FC0DFFF2050D96EB8
:10023800DA6ADE2A000EDD2253EF08F03D6A3E6AD4
:10024800406A416A09D0408605D0408003D0418683
:1002580001D04084214A222A21C0F6FF22C0F7FF9C
:10026800F86A0F0EF76403D00800F55005D0F6CFF2
:10027800E1FFF7CFE2FFE750200AE7E0030AE7E0F3
:100288000E0AE1E01D0AE5E040B6409421C0F6FF01
:1002980022C0F7FFF86A0F0EF76403D00800F55084
:1002A80005D0F6CFE1FFF7CFE2FFE75049EC48F081
:1002B80042E33D6A3E6A3DC005F03EC006F0086A6A
:1002C8000A0E076E8AEC47F005C03DF006C03EF006
:1002D800D00E246E256821C0F6FF22C0F7FFF86A09
:1002E8000F0EF76403D00800F55005D0F6CFE1FFF4
:1002F800F7CFE2FFE750266E276A245026262550BE
:10030800272226503D2627503E22214A222A21C054
:10031800F6FF22C0F7FFF86A0F0EF76403D0080053
:10032800F55005D0F6CFE1FFF7CFE2FFE75049ECF3
:1003380048F021E3C0D721C0F6FF22C0F7FFF86AD2
:100348000F0EF76403D00800F55005D0F6CFE1FF93
:10035800F7CFE2FFE7502A0A0EE12350D96EDA6A96
:10036800020EDF26DF5CD96EDA6ADECF3DF0DECF23
:100378003EF0214A222A21C0F6FF22C0F7FFF86A80
:100388000F0EF76403D00800F55005D0F6CFE1FF53
:10039800F7CFE2FFE7502E0A6DE1418C214A222A6D
:1003A80021C0F6FF22C0F7FFF86A0F0EF76403D0EA
:1003B8000800F55005D0F6CFE1FFF7CFE2FFE75090
:1003C8002A0A14E12350D96EDA6A020EDF26DF5CAE
:1003D800D96EDA6ADECF3BF0DECF3CF03CAE03D01C
:1003E8003B6A3C6A419C214A222A76D13B6A3C6A94
:1003F8002CD03BC005F03CC006F0086A0A0E076E18
:100408008AEC47F005C03BF006C03CF0D00E246EE5
:10041800256821C0F6FF22C0F7FFF86A0F0EF764BF
:1004280003D00800F55005D0F6CFE1FFF7CFE2FF83
:10043800E750266E276A2450262625502722265064
:100448003B2627503C22214A222A21C0F6FF22C0FF
:10045800F7FFF86A0F0EF76403D00800F55005D0CF
:10046800F6CFE1FFF7CFE2FFE75049EC48F001E2B1
:1004780033D1BFD73B6A3C6A2FD140882DD1408CFD
:100488005ED1408A408E5BD12350D96EDA6A020E63
:10049800DF26DF5CD96EDA6ADECF33F0DECF34F0E8
:1004A8003350341004E12C0E336EFC0E346E356A72
:1004B800366A02D0354A362A35503324246E3650EF
:1004C8003420256E24C0F6FF25C0F7FFF86A0F0E0A
:1004D800F76403D00800F55005D0F6CFE1FFF7CF59
:1004E800E2FFE7500009E6E13B503C100DE03550D3
:1004F8003B5C3C50800A246E3650800A245804E243
:100508003BC035F03CC036F03D50355C3E50365867
:1005180005E235503D5E36503E5A02D03D6A3E6A8D
:1005280040B685D02CD02050D96EDA6A020ED92672
:10053800DE50DE1011E02050D96EDA6A020ED9269C
:1005480001D81DD00500FA6EDE50FD6EDE50FE6E3D
:10055800F850FF6EFA50200C2050D96EDA6ADECFC0
:1005680024F0DDCF25F024C0D9FF25C0DAFF200E06
:10057800DF6E2050D96EDA6ADE2A000EDD223D06D3
:10058800D8A03E063D28CFE13E2851E0CCD72050E8
:10059800D96EDA6A020ED926DE50DE1024E0205029
:1005A800D96EDA6A020ED92601D81AD00500FA6E79
:1005B800DE50FD6EDE50FE6EF850FF6EFA5033C00E
:1005C800F6FF34C0F7FFF86A0F0EF76403D008008F
:1005D800F55005D0F6CFE1FFF7CFE2FFE750120064
:1005E800334A342A24D033C0F6FF34C0F7FFF86A00
:1005F8002050D96EDA6ADECF24F0DDCF25F024C092
:10060800D9FF25C0DAFF0F0EF76403D00800F550B4
:1006180005D0F6CFE1FFF7CFE2FFE750DF6E334AB0
:10062800342A2050D96EDA6ADE2A000EDD22350619
:10063800D8A036063528ABE13628A9E140A653EF05
:1006480008F02CD02050D96EDA6A020ED926DE5076
:10065800DE1011E02050D96EDA6A020ED92601D8D0
:100668001DD00500FA6EDE50FD6EDE50FE6EF850AD
:10067800FF6EFA50200C2050D96EDA6ADECF24F0D3
:10068800DDCF25F024C0D9FF25C0DAFF200EDF6EAC
:100698002050D96EDA6ADE2A000EDD223D06D8A087
:1006A8003E063D28CFE13E2802E153EF08F0CAD7C5
:1006B8002350D96EDA6ADF50DF2ADF2AD96EDA6A68
:1006C800DF503F6E3F0E336E346A366A010E356E68
:1006D8000BD7C00E401233D02150246E2250256E05
:1006E800214A222A24C0F6FF25C0F7FFF86A0F0E18
:1006F800F76403D00800F55005D0F6CFE1FFF7CF37
:10070800E2FFE7503F6E3F5002E16EEF08F0580AF3
:1007180001E1B7D63B0ACCE0070A11E00D0A0FE069
:10072800050A01E1AAD6030A01E1A9D61C0A01E1DA
:10073800ABD6060ACEE00D0A01E1A4D6C3D740C065
:1007480024F0C00E241631E140A811D02350D96EF0
:10075800DA6A040EDF26DF5CD96EDA6ADECF37F09C
:10076800DECF38F0DECF39F0DECF3AF011D02350AB
:10077800D96EDA6ADF50DF2ADF2AD96EDA6ADECF6D
:1007880037F0DDCF38F0000E38BEFF0E396E3A6E06
:100798003AAE30D0030E40123A1E391E381E376C5E
:1007A800000E382239223A2225D040A811D02350F1
:1007B800D96EDA6A040EDF26DF5CD96EDA6ADECF1C
:1007C80037F0DECF38F0DECF39F0DECF3AF012D096
:1007D8002350D96EDA6ADF50DF2ADF2AD96EDA6A47
:1007E800DECF24F0DDCF25F024C037F025C038F067
:1007F800396A3A6A3B503C105CE13750381039107E
:100808003A1057E13B4A3C2A54D0010E3F6E0A0E7B
:100818003F1858E03F50040D7C0EF324F66EDF0EAF
:10082800F420F76E0900F550375C0900F550385888
:100838000900F55039580900F5503A5843E33F2A62
:10084800E6D7010E3F6E080E3F183CE03F50040DFE
:10085800A40EF324F66EDF0EF420F76E0900F550AF
:10086800375C0900F55038580900F5503958090027
:10087800F5503A5827E33F2AE6D7010E3F6E0B0E94
:100888003F1820E03F50040D500EF324F66EDF0EA3
:10089800F420F76E0900F550375C0900F550385818
:1008A8000900F55039580900F5503A580BE33F2A2A
:1008B800E6D74050C00BA9E0400ADFE0C00AC1E01B
:1008C800400AA3E03F50246E256A3B50245C255023
:1008D800800A266E3C50800A265803E23BC03FF04F
:1008E8000FD03F50246E256A24503B5C3C50800A50
:1008F800266E2550800A265803E23FC03BF03C6A2A
:100908003D503E1008E040C024F0030E241603E0DA
:100918003D06D8A03E0641AC10D03D503B5C3C5053
:10092800800A246E3E50800A245805E23B503D5E02
:100938003C503E5A02D03D6A3E6AC40E246E080EF0
:10094800256E40C026F041C027F0245026162550B9
:100958002716400E26180AE1080E271807E13D5011
:100968003E1024E03D06D8A03E0620D0C00E246EDE
:10097800080E256E40C026F041C027F024502616E8
:1009880025502716800E261811E1080E27180EE1AB
:100998003EBE0AD03E5003E1030E3D5C05E3FE0E69
:1009A8003D26FF0E3E2202D03D6A3E6A3F50246E2D
:1009B800256A3D50245C2550800A266E3E50800AE8
:1009C800265805E23F503D5E000E3E5A02D03D6A71
:1009D8003E6A40A403D140C024F0030E241626E04A
:1009E8002050D96EDA6A020ED926DE50DE1011E0E8
:1009F8002050D96EDA6A020ED92601D8BBD005007C
:100A0800FA6EDE50FD6EDE50FE6EF850FF6EFA5044
:100A18002D0C2050D96EDA6ADECF24F0DDCF25F018
:100A280024C0D9FF25C0DAFF2D0E27D040A027D03B
:100A38002050D96EDA6A020ED926DE50DE1011E097
:100A48002050D96EDA6A020ED92601D893D0050053
:100A5800FA6EDE50FD6EDE50FE6EF850FF6EFA50F4
:100A6800200C2050D96EDA6ADECF24F0DDCF25F0D5
:100A780024C0D9FF25C0DAFF200EDF6E75D0C00E66
:100A8800246E080E256E40C026F041C027F0245081
:100A9800261625502716800E26186CE1080E2718F2
:100AA80069E12050D96EDA6A020ED926DE50DE10CE
:100AB80011E02050D96EDA6A020ED92601D81DD06D
:100AC8000500FA6EDE50FD6EDE50FE6EF850FF6EC9
:100AD800FA50300C2050D96EDA6ADECF24F0DDCF20
:100AE80025F024C0D9FF25C0DAFF300EDF6E205074
:100AF800D96EDA6ADE2A000EDD222050D96EDA6A53
:100B0800020ED926DE50DE101AE040BA03D02A6A57
:100B1800780E02D02A6A580E296E2050D96EDA6AE9
:100B2800020ED92601D826D00500FA6EDE50FD6ED9
:100B3800DE50FE6EF850FF6EFA502950120040BA8F
:100B480003D02C6A780E02D02C6A580E2B6E2050D7
:100B5800D96EDA6ADECF24F0DDCF25F024C0D9FFC4
:100B680025C0DAFF2BC0DFFF2050D96EDA6ADE2AF3
:100B7800000EDD223D503E1001E151D22050D96EC9
:100B8800DA6A020ED926DE50DE1011E02050D96E46
:100B9800DA6A020ED92601D81DD00500FA6EDE5099
:100BA800FD6EDE50FE6EF850FF6EFA50300C20508D
:100BB800D96EDA6ADECF24F0DDCF25F024C0D9FF64
:100BC80025C0DAFF300EDF6E2050D96EDA6ADE2AD1
:100BD800000EDD223D06D8A03E06CCD73D503E1083
:100BE80034E040B632D02050D96EDA6A020ED926E7
:100BF800DE50DE1011E02050D96EDA6A020ED926D6
:100C080001D81DD00500FA6EDE50FD6EDE50FE6E76
:100C1800F850FF6EFA50200C2050D96EDA6ADECFF9
:100C280024F0DDCF25F024C0D9FF25C0DAFF200E3F
:100C3800DF6E2050D96EDA6ADE2A000EDD223D060C
:100C4800D8A03E063D503E10CEE140C024F0030E31
:100C5800241626E02050D96EDA6A020ED926DE5014
:100C6800DE1011E02050D96EDA6A020ED92601D8BA
:100C780045D00500FA6EDE50FD6EDE50FE6EF8506F
:100C8800FF6EFA502D0C2050D96EDA6ADECF24F0B0
:100C9800DDCF25F024C0D9FF25C0DAFF2D0E27D0DF
:100CA80040A02CD02050D96EDA6A020ED926DE5028
:100CB800DE1011E02050D96EDA6A020ED92601D86A
:100CC8001DD00500FA6EDE50FD6EDE50FE6EF85047
:100CD800FF6EFA50200C2050D96EDA6ADECF24F06D
:100CE800DDCF25F024C0D9FF25C0DAFF200EDF6E46
:100CF8002050D96EDA6ADE2A000EDD22C00E246E7C
:100D0800080E256E40C026F041C027F02450261654
:100D180025502716400E26182AE1080E271827E125
:100D28002050D96EDA6A020ED926DE50DE1011E0A4
:100D38002050D96EDA6A020ED92601D870D1050082
:100D4800FA6EDE50FD6EDE50FE6EF850FF6EFA5001
:100D5800300C2050D96EDA6ADECF24F0DDCF25F0D2
:100D680024C0D9FF25C0DAFF300EDF6E52D1C00E85
:100D7800246E080E256E40C026F041C027F024508E
:100D8800261625502716800E26186DE1080E2718FE
:100D980001E045D12050D96EDA6A020ED926DE501C
:100DA800DE1011E02050D96EDA6A020ED92601D879
:100DB8001DD00500FA6EDE50FD6EDE50FE6EF85056
:100DC800FF6EFA50300C2050D96EDA6ADECF24F06C
:100DD800DDCF25F024C0D9FF25C0DAFF300EDF6E45
:100DE8002050D96EDA6ADE2A000EDD222050D96E34
:100DF800DA6A020ED926DE50DE101AE040BA03D0B5
:100E08002E6A780E02D02E6A580E2D6E2050D96E9A
:100E1800DA6A020ED92601D802D10500FA6EDE5030
:100E2800FD6EDE50FE6EF850FF6EFA502D50120027
:100E380040BA03D0306A780E02D0306A580E2F6E4E
:100E48002050D96EDA6ADECF24F0DDCF25F024C039
:100E5800D9FF25C0DAFF2FC0DFFF2050D96EDA6A2C
:100E6800DE2A000EDD22DBD03BC024F03CC025F09A
:100E7800D89024362536D890243625367C0E24245E
:100E8800F66EDF0E2520F76E0900F5CF09F0090090
:100E9800F5CF0AF00900F5CF0BF00A00F5CF0CF0FA
:100EA80037C005F038C006F039C007F03AC008F07E
:100EB800E0EC40F005C017F006C018F007C019F0C4
:100EC80008C01AF00A0E1B6E1C6A1D6A1E6AE9EC3D
:100ED80041F0175069D037C005F038C006F039C066
:100EE80007F03AC008F03BC024F03CC025F0D89089
:100EF80024362536D89024362536A40E2424F66EBA
:100F0800DF0E2520F76E0900F5CF09F00900F5CFAF
:100F18000AF00900F5CF0BF00A00F5CF0CF0E0EC71
:100F280040F005500F0B286E40BA04D0120E316EF7
:100F3800FA0E03D0010E316EFA0E326E28503124AB
:100F4800246E000E3220256E24C0F6FF25C0F7FF60
:100F58000800F5CF3FF036D037C005F038C006F0AE
:100F680039C007F03AC008F03BC024F03CC025F077
:100F7800D89024362536D89024362536500E242489
:100F8800F66EDF0E2520F76E0900F5CF09F009008F
:100F9800F5CF0AF00900F5CF0BF00A00F5CF0CF0F9
:100FA800E0EC40F00550070B300F3F6E0BD040507F
:100FB800C00B01E159D7400ACFE0C00A8CE0400AD3
:100FC80001E152D72050D96EDA6A020ED926DE50D6
:100FD800DE1012E02050D96EDA6A020ED92601D846
:100FE8001ED00500FA6EDE50FD6EDE50FE6EF85023
:100FF800FF6EFA503F5012002050D96EDA6ADECFE9
:1010080024F0DDCF25F024C0D9FF25C0DAFF3FC08A
:10101800DFFF2050D96EDA6ADE2A000EDD223B0699
:10102800D8A03C063B28C3E13C28C1E140B63EBEFF
:1010380036D03E5002E13D0432E32050D96EDA6AE0
:10104800020ED926DE50DE1011E02050D96EDA6A81
:10105800020ED92601D81DD00500FA6EDE50FD6EAD
:10106800DE50FE6EF850FF6EFA50200C2050D96EFC
:10107800DA6ADECF24F0DDCF25F024C0D9FF25C001
:10108800DAFF200EDF6E2050D96EDA6ADE2A000EF3
:10109800DD223D06D8A03E063D503E10CEE121504F
:1010A800246E2250256E214A222A24C0F6FF25C02C
:1010B800F7FFF86A0F0EF76403D00800F55005D063
:1010C800F6CFE1FFF7CFE2FFE7503F6E3F5002E077
:1010D800EFEF00F0206A216A12000401DB6BDC6B81
:1010E800050EDA6FC76BD96BC66B010EB66FB76B9F
:1010F800010EC56F24EECCF00B0EDE6AE806FDE2A9
:1011080024EEB8F00B0EDE6AE806FDE2080EDE6F8C
:10111800C86BC96BCA6BCB6BB26BB36BB46BB56B7B
:10112800020ED86FBEEC3CF045EC2DF00A0E000123
:10113800F703F3CFD2F1F4CFD3F1F803F350010161
:10114800D327D2C1D9F0D3C1DAF063EC48F089864D
:101158001BEC41F0FCEC46F0D08254EC33F0040177
:10116800DF6F020EDF1902E1800E596E0001E251B5
:1011780002E008EC37F00101795102E0C7EC0FF00A
:10118800010164510FE046514511441103E1070E76
:10119800435D08E38A8A066A010E056EE0EC44F0B6
:1011A8009D88646B785102E1ACB28A9A26EC3FF0D4
:1011B800A30E946E00F000F08250210B0401DF6F43
:1011C800DF39E8461F0B0101C86F0401DF51DF2535
:1011D800020B0101C8138150010BC813820E946ED3
:1011E800070EC81903E1C751C81903E0C85156ECE6
:1011F8001AF0010E73651CD0240E736119D0880E85
:101208003F25D26F130E4021D36F000E4121D46FBA
:10121800000E4221D56F4751D25D4851D3594951EB
:10122800D4594A51D55904E2725102E1EAEC3AF034
:10123800735122E1060EC8191FE10001F0511CE0AC
:101248000401C45119E1020E0001ED6115D0030E2D
:10125800EC1912E1F01D030BC1EC47F0DE0E591634
:10126800576A0001AB6BAA6B87EC46F00101746BFF
:10127800050E0401C46F09D00401C45106E0070E2D
:101288000101C81902E10401C407010E81A4000E7E
:101298000401C51903E1DB5101E1BAD0B72BB70549
:1012A8000101D26F060ED26104D00401DB5101E1C5
:1012B800B1D0000E81B4010E0401C56FC5515FE0C5
:1012C8009FD00101685105E0686B000EB2EC45F053
:1012D80061D0010E0101686F5DD00401DB510AE1A4
:1012E800010EDB6F47C1B2F448C1B3F449C1B4F48D
:1012F8004AC1B5F4DB514EE0DC0EB2250101D26FD4
:10130800050E0401B3210101D36F000E0401B421BD
:101318000101D46F000E0401B5210101D56F4751B9
:10132800D25D4851D3594951D4594A51D55932E21D
:10133800020E5A182FE1000EB2EC45F00001E251FE
:1013480002E10F0E576E020E0401DB6F23D0020E6E
:10135800F01920E1010EC1EC47F00001AB6BAA6B5C
:1013680087EC46F017D0020E5A1814E1000EB2ECC2
:1013780045F00001E2510EE10F0E576E0BD000014F
:10138800EC51010A9EE0030AA4E0010AA6E0070A5C
:10139800DEE0E9D70001EB0504E159B881B201D0DC
:1013A80059983C0E0101756F898632D00101686B2E
:1013B800000EB2EC45F02CD0020E0401DB1917E048
:1013C8000001F00504E1020EC1EC47F006D0020E60
:1013D800F01903E1010EC1EC47F0DE0E5916576A09
:1013E8000001AB6BAA6B87EC46F00101746B04013A
:1013F800DB6B0ED0F0050CE1020EC1EC47F008D013
:101408000001EC51020AD2E0010AD6E0070AF2E034
:101418000401B76B0001EB050AE181B281A207D094
:10142800000EB2EC45F0100E596E0101746B5A5063
:1014380004E0040E5A1801E081D0BD6A82848A98BB
:101448000101216BD1EC42F00401DD6FDD0511E1F2
:10145800040E5A1803E1000EB2EC45F0599A59905F
:10146800576A01017C690401D85168E1010ED86FFF
:1014780065D0020EDD1903E0020EDD195DE1595059
:101488005BE1575059E10101685156E0040E5A18C2
:1014980053E07C054CE10401DC2BDC050101D26F33
:1014A800190ED2654BD00401C76BABEC3FF0F55178
:1014B800DD5DF651DE5908E20A0EDD03F3CFD2F105
:1014C800F4CFD3F1DE0307D00A0EF503F3CFD2F140
:1014D800F4CFD3F1F603F3500101D327D2C161F160
:1014E800D3C162F1010E0001ED6504D0040EB2EC27
:1014F80045F024D00A0EDD03F3CFD2F1F4CFD3F1B7
:10150800DE03F3500101D327D2C100F2D3C101F2A7
:1015180061C1A1F162C1A2F1010E216FB2EC45F0E7
:101528001E0E0401D96F3C0E0101756F07D0010E24
:101538007C6F0401DC6B02D001017C69050E5A182E
:1015480009E1010EB2EC45F01E0E0401D96F3C0E04
:101558000101756F5A0404E0060E5A1801E09BD089
:10156800070EBC6482D0180EBC607FD0D1EC42F06C
:101578000401DD6FDD0514E101017C510FE1040177
:10158800DC2BDC050101D26F190ED2656ED0000E7E
:10159800B2EC45F03C0E0101756F67D07C6B56D0FC
:1015A800030EDD1956E1020E01017C194CE104011C
:1015B800C70549E1DC2BDC050101D26F190ED265A4
:1015C80054D0595052E1575050E10001E7510CE016
:1015D8000401D85109E0C8C437F1C9C438F1CAC4F4
:1015E80039F1CBC43AF1D86B010E0001ED6507D093
:1015F800060E5A183AE0060EB2EC45F036D061C134
:1016080000F262C101F280EC32F000091AE0020E29
:101618000101216FA16BA26B010E88EC1DF08A8875
:101628000401D969C76B020EB2EC45F00101746B75
:10163800476B486B496B4A6B735117E10AEC16F01C
:1016480014D0598012D0020E01017C6F0401DC6BAA
:101658000CD0D95108E1080EB2EC45F0030E040194
:10166800C66FBD6A829401017C69E60EBC6413D022
:10167800F10EBC64FDD7BC640ED0F90EBC600BD073
:10168800D1EC42F00401DD6F040EDD1903E1010E17
:10169800C76F01D0C76B080E5A1809E10401C6517B
:1016A80006E1010EB2EC45F082840401D969070E07
:1016B8005A1813E18A880401C76B020EB2EC45F090
:1016C8000401D96901017C69746B476B486B496BEC
:1016D8004A6B735102E10AEC16F0020E5A184DE1FA
:1016E800070EBC644AD0180EBC6047D0D1EC42F05B
:1016F8000401DD6FDD0502E0DD511AE101017C51D5
:1017080015E10401DC2BDC050101D26F190ED2654D
:1017180034D08A98000EB2EC45F01BEC41F0020E72
:101728000001ED612AD00101216B27D07C6B20D00C
:10173800020EDD1920E101017C0518E10401DC2B12
:10174800DC050101D26F190ED26517D08A98010EF7
:10175800B2EC45F01BEC41F00401C76B020E00012E
:10176800ED610BD0010E0101216F07D0010E7C6FD6
:101778000401DC6B02D001017C69ABA202D0AB98FA
:10178800AB8871A202D071987188D6CFDFF43C0E75
:10179800D764B9D001017C2904E0020E5A1801E18E
:1017A800B2D0D76AD66AC0EC44F091EC39F05A044A
:1017B80004E10401D92901E0D907080E5A1804E107
:1017C8000401C65101E0C6070001D751D8110CE049
:1017D800D707D8A0D807D751D81106E1000EB2EC28
:1017E80045F0598A57EC46F0575001E0570600017A
:1017F800E351800A490F02E259B4599459C0D2F111
:10180800210E0101D21714E0020E0001ED6110D083
:1018180080EC32F000090CE05990599A0001A76B4E
:10182800010EA66F59C0A8F0A96B090ECFEC46F0BF
:101838000401DA5110E159B20ED05982000EB2EC0F
:1018480045F0AD0E0001606FF80E616F77EC47F060
:1018580057EC46F003D0DA5101E0DA070001E35112
:10186800800A3F0F14E359B412D05984000EB2EC29
:1018780045F0E60E0001606FF80E616FE351626F8C
:10188800636B62BF630777EC47F057EC46F059C0CB
:10189800D2F1210E0101D2171AE0020E0001F0194F
:1018A80009E157500FE1CA0E606FF80E616F77ECCF
:1018B80047F008D0575006E1E00E606FF70E616FF1
:1018C80077EC47F0000EB2EC45F03C0E576E0AEC90
:1018D80016F0020E0001ED6116D00401B607B62914
:1018E80012E10001F05104E0010E01016B6F08D014
:1018F800DB6BDC6B060E01016B6F0A0E0401DA6FFD
:10190800010E0401B66F01016B5101E1EBD04651A4
:101918004511441105E1640E435D01E3B6D0E2D000
:10192800B4D00001E95106E0FAC0ABF0E95169EC26
:101938003FF0D8D001016B2BFBC0ABF00001FC518C
:1019480069EC3FF0CFD0010E0201AC6FE7C0AEF2F8
:10195800F9C0AFF20401DE2B070EDE6501D0DE6BA5
:10196800DE51040DAC0EF324D96E020EF420DA6EAB
:10197800DF50F0E0DE51040DAD0EF324D96E020EF7
:10198800F420DA6EDF5004E0DE512DEC48F0AAD0E6
:1019980001016B2B0401DE51040DAE0EF324D96E48
:1019A800020EF420DA6EDF5018E0DE51040DAF0E9F
:1019B800F324D96E020EF420DA6EDF500001AB6F0B
:1019C8000401DE51040DAE0EF324D96E020EF4208C
:1019D800DA6EDF503CEC45F085D001016B2B040139
:1019E800DE51040DAE0EF324D96E020EF420DA6E29
:1019F800DF5018E0DE51040DAF0EF324D96E020E4D
:101A0800F420DA6EDF500001AB6F0401DE51040DE3
:101A1800AE0EF324D96E020EF420DA6EDF501EECFF
:101A280045F060D001016B2B0001ED0506E10101D5
:101A38006B51FA0F12EC47F055D00C0E01016B6F89
:101A48000001ED0506E101016B51F30F6AEC2EF080
:101A580049D00001F05104E059A214EC38F012D03A
:101A6800000E88EC1DF0ED0502E157EC48F05A0431
:101A780003E0020E5A1806E1A1C136F0A2C137F000
:101A880099EC38F001016B6B2DD06B2B6B05010ABB
:101A980001E147D7030A01E14FD7010A01E153D712
:101AA800070A01E177D7010A9AE0030ABDE0010AB3
:101AB800BBE00F0AB9E0010AB7E0030AB5E0010A82
:101AC800B3E0070AB1E0010ABBE0030AB9E0010A82
:101AD800B7E01F0AB5E0010AB3E0030AB1E0010A62
:101AE800AFE0B7D701017B5101E141D24651451121
:101AF800441104E1040E435D01E239D2AF0E056ED4
:101B0800030E066E100E076E020E086E7BC109F0FA
:101B18000A6AA5EC42F07BC17AF101017B6BAF0E3A
:101B280000016F6F030E706F7AC171F018EC23F02B
:101B3800030E01010B1901E16FD176D10001E951C2
:101B480022E0FA51010100191EE10001E951190DC5
:101B5800100EF324D96E030EF420DA6EDE50010164
:101B6800021911E1DE5003190EE108C1AAF009C1FA
:101B7800ABF0E9C0ACF0B80E0001AD6F040EAE6F6B
:101B880058EC20F0F4D10001FB510101001901E0EB
:101B9800A9D00001FC51190D100EF324D96E030EC3
:101BA800F420DA6EDE500101021903E1DE50031958
:101BB800D8A498D008C1AAF009C1ABF0FCC0ACF019
:101BC800CC0E0001AD6F040EAE6F58EC20F004018E
:101BD800DF6FDF5107E0020E0001ED6103D00A0E4E
:101BE8000401DA6F01015B6B5C6B0401DF6B020EB1
:101BF800DF6501D0BCD10001E9513FE00401DF51AC
:101C0800040DB80EF324D96E040EF420DA6EDECF7C
:101C1800D2F1DECFD3F1DECFD4F1DECFD5F1DF5173
:101C2800040DCC0EF324D96E040EF420DA6EDECF48
:101C3800D6F1DECFD7F1DECFD8F1DECFD9F1010171
:101C4800D251D65DDA6FD351D759DB6FD451D859F9
:101C5800DC6FD551D959DD6F0401DF51040DCC0E6D
:101C6800F324D96E040EF420DA6EDAC1DEFFDBC18C
:101C7800DEFFDCC1DEFFDDC1DEFF0401DF51040D44
:101C8800CC0EF324D96E040EF420DA6EDECF05F004
:101C9800DECF06F0DECF07F0DECF08F0640E096E67
:101CA8000A6A0B6A0C6A4FEC3BF00401DF51020D23
:101CB800290EF324D96E010EF420DA6E05C0DEFF7A
:101CC80006C0DDFFDF51020D290EF324D96E010E87
:101CD800F420DA6EDE5001015B27DD505C2304013D
:101CE800DF2B85D70001E75146E0F95101010019C2
:101CF80042E10001E751190D160EF324D96E030EC7
:101D0800F420DA6EDE500101021935E1DE500319C4
:101D180032E108C146F009C147F0E7C048F01AECC3
:101D280042F046C0C8F447C0C9F448C0CAF449C024
:101D3800CBF4020E0401D81908E1C8C437F1C9C4AC
:101D480038F1CAC439F1CBC43AF101013751040161
:101D5800C85D01013B6F38510401C95901013C6F4D
:101D680039510401CA5901013D6F3A510401CB5957
:101D780001013E6FFCD00001E75125E0F951010156
:101D8800001921E10001E751190D130EF324D96E52
:101D9800030EF420DA6EDE500101021914E1DE5060
:101DA800031911E108C146F009C147F0E7C048F03E
:101DB80049EC42F046C033F147C034F148C035F130
:101DC80049C036F1D4D0010E010100650FD0090ECB
:101DD80000610CD00251031109E108C105F009C1E5
:101DE80006F00005076EADEC3BF0C1D0010E0065B2
:101DF800BED0090E0061BBD0080E021902E103052E
:101E0800D8A4B5D008C1AAF009C1ABF000050001FB
:101E1800AC6F87EC41F0ABD00151030A01E18ED6DB
:101E2800070A01E18BD6A3D0020E0B1901E095D069
:101E38000A0E001913E1060E011910E1A80E021985
:101E480003110CE14F0E061909E1490E071906E1C5
:101E58000001E25103E1E269EBEF00F0090E010134
:101E6800001971E00001ED5103E1010100056BE08B
:101E78000001ED517CE0ED510101001964E077D0DB
:101E8800090E001974E0B8EC41F071D02AEC40F06A
:101E98006ED0200E0219031153E1010E0001ED6509
:101EA8004FD0ED510101D26FD36BD890D237D337D1
:101EB80021EE08F0DECFD4F1DDCFD5F1D251D42711
:101EC800D351D523FE0ED425D96EFF0ED521DA6E57
:101ED800DF50D76FD66B0001ED510101D86FD96B78
:101EE800D890D837D93721EE08F0DECFDAF1DDCF38
:101EF800DBF1D851DA27D951DB23FF0EDA25D96E69
:101F0800FF0EDB21DA6EDF50D611A16FD751A26F19
:101F1800A11107E1020E5A1804E1000EB2EC45F0D7
:101F28000BD05A0403E0020E5A1806E1A1C136F09C
:101F3800A2C137F099EC38F00A0E0401DA6F17D015
:101F480017EC39F014D00151030A9AE0070A98E017
:101F5800020A9CE0160A9DE00AD0040E0B1907E05D
:101F6800560E0001606FFA0E616F77EC47F059A2C8
:101F7800BAEF08F00A0E0401DA1902E0BAEF08F025
:101F88005992BAEF08F08AEC26F0BB6F980E606F92
:101F9800F30E616F77EC47F00001E4514BE1C16B40
:101FA80022D04A0E056E020E066E7D0EC125D96E30
:101FB800DA6A010EDA22DF504B0DC40EF324076EE5
:101FC800DF0EF420086E6EEC3DF00550061009E1B6
:101FD8007D0E0001C125D96EDA6A010EDA22DF50C2
:101FE800E46F0001C12BB269B369BB51B46FB56B23
:101FF800B251B427B351B523C151B66FB76BB451C1
:10200800B65DB751800AB86FB551800AB859C9E3AF
:102018004A0E056E020E066E640E076EFC0E086E02
:102028006EEC3DF00550061001E05ED2320E000164
:10203800E46F5AD202014A5101E028D20001E46B50
:1020480053D2C06B4A0EC025D96EDA6A020EDA2264
:10205800DF50C16F2E0EC11915E14B0EC025D96E88
:10206800DA6A020EDA224A0EC025E16EE26A020E30
:10207800E222DFCFE7FF4B0EC025D96EDA6A020EE7
:10208800DA22DF6AC02BC151DDE14A0E086E020E6A
:10209800096E0AEC3CF008C0BCF009C0BDF00001B4
:1020A800BD5103E13C0EBC5D05E3210EBC5D030E92
:1020B800BD5907E31F0E606FF70E616F77EC47F0AD
:1020C8000ED2BC51B26FBD51B36FB46BB56B0A0E73
:1020D800B203F3CFB6F0F4CFB7F0B86BB96BB30374
:1020E800F350B727F450B823000EB923B203F350C6
:1020F800B727F450B823000EB9230A0EB403F350DF
:10210800B827F450B923000EB303F350B827F4509E
:10211800B923000EB203F350B827F450B9230A0EBE
:10212800B503F350B927000EB403F350B927000ED6
:10213800B303F350B927000EB203F350B9270A0EC0
:10214800D890B637B737B837B937E82EF9D7000E71
:10215800B625056E140EB721066E000EB821076E5F
:10216800000EB921086E53C109F054C10AF00B6A78
:102178000C6AE0EC40F005C0CAF106C0CBF107C01C
:10218800CCF108C0CDF1F3EC27F0A9D14A0E056EC9
:10219800020E066E230E076EFB0E086E6EEC3DF007
:1021A8000550061002E1020E0ED04A0E056E020E10
:1021B800066ED00E076EFC0E086E6EEC3DF00550F4
:1021C800061004E1010E0001F06FDDD74A0E056E1E
:1021D800020E066E790E076EFC0E086E6EEC3DF070
:1021E8000550061001E07BD10001F06BF3EC27F0FD
:1021F800596A75D14A0E056E020E066ECB0E076E31
:10220800FB0E086E6EEC3DF00550061002E1010E63
:102218000ED04A0E056E020E066ECA0E076EFC0E32
:10222800086E6EEC3DF00550061004E1020E000148
:10223800EF6FA9D74A0E056E020E066E0C0E076EDA
:10224800FC0E086E6EEC3DF00550061001E047D11B
:102258000001EF6B98D74A0E056E020E066EC40E8B
:10226800076EFC0E086E6EEC3DF00550061004E19A
:10227800010E0001EE6F87D74A0E056E020E066E3C
:10228800800E076EFC0E086E6EEC3DF005500610D1
:1022980001E025D10001EE6B76D7C16B4A0E056EC1
:1022A800020E066EC151090DF50EF324076EEF0EEE
:1022B800F420086E6EEC3DF00550061004E1C1C034
:1022C800EDF0F3EC27F00001C12B080EC165E6D74D
:1022D80006D1C16B4A0E056E020E066EC1510A0D7B
:1022E800780EF324076EF00EF420086E6EEC3DF0C5
:1022F8000550061004E1C1C0ECF0F3EC27F0000132
:10230800C12B040EC165E6D7EAD0C16B4A0E056E33
:10231800020E066EC1510A0DAA0EF324076EF00EC6
:10232800F420086E6EEC3DF00550061004E1C1C0C3
:10233800E8F0F3EC27F00001C12B010EC165E6D7E8
:10234800CED04A0E056E020E066E0C0E076EFC0EFF
:10235800086E6EEC3DF00550061003E10001EB6BD2
:1023680012D74A0E056E020E066E720E076EFC0E2E
:10237800086E6EEC3DF00550061001E0B0D0010E7D
:102388000001EB6F00D7C16B4A0E056E020E066E98
:10239800C151190D000EF324076E030EF420086EC8
:1023A8006EEC3DF0055006100EE10001C10503E199
:1023B8000A0EE41908E0C1C0ACF0AD6BE45152EC70
:1023C80029F0F3EC27F00001C12B060EC165DCD71C
:1023D80086D04A0E056E020E066EEB0E076EFC0ED8
:1023E800086E6EEC3DF00550061003E10001EA6B43
:1023F800CAD64A0E056E020E066EE60E076EFC0E73
:10240800086E6EEC3DF00550061069E1010E000102
:10241800EA6FB9D6C16B4A0E056E020E066EC1513F
:102428000A0D460EF324076EF00EF420086E6EECCB
:102438003DF00550061004E1C1C0E6F0F3EC27F0CA
:102448000001C12B040EC165E6D749D04A0E086EBB
:10245800020E096E0AEC3CF008C0BEF009C0BFF0DD
:10246800BEC0ACF0BFC0ADF00001E45152EC29F0A1
:102478000001BA6FF3EC27F00001BA5130E1560EB3
:10248800606FF80E616F77EC47F029D00001E451D6
:10249800020A01E1E0D6010A01E1ACD6050A01E130
:1024A800FCD6010A01E115D70F0A01E14AD7010A52
:1024B800B1E0030A01E167D7060A01E167D6020A1B
:1024C80001E123D7010A01E1BCD51B0A01E15BD771
:1024D800020A01E17ED7010A01E155D7B7D7000109
:1024E800E46B8AEC26F0BB6F0E0E0001E46536D370
:1024F800240EE46133D3340E606FFA0E616FE45139
:102508004B0D110EF326000EF422C40EF324626F55
:10251800DF0EF420636FE451E1EC24F04FC064F067
:1025280050C065F077EC47F019D3070E606FF30ED3
:10253800616F77EC47F0870E0001606FFB0E616FEB
:1025480077EC47F04A0E0001606FF70E616F77EC89
:1025580047F0740E0001606FF70E616FE351626F10
:10256800636B62BF630755C164F056C165F077ECD1
:1025780047F0520E0001606FF30E616F77EC47F081
:102588000001C16B8CD0450E606FFA0E616F7D0E35
:10259800C125D96EDA6A010EDA22DF504B0DC40E5E
:1025A800F324626FDF0EF420636F7D0EC125D96EB0
:1025B800DA6A010EDA22DF504B0D110EF326000EF7
:1025C800F422C40EF324646FDF0EF420656F77ECF9
:1025D80047F07D0E0001C125D96EDA6A010EDA22B4
:1025E8000F0EDE1844E1C06B020EC06501D04ED05C
:1025F800640E606FFA0E616FC029626F636B000E24
:102608006323C051020D290EF324D96E010EF42064
:10261800DA6EDECF05F0DDCF06F0086A0A0E076E27
:10262800A4EC40F005C064F006C065F00001C0519C
:10263800020D290EF324D96E010EF420DA6EDECFD6
:1026480013F0DDCF14F050EC47F013C017F014C0AE
:1026580018F01A6A0A0E196EFFEC44F017C066F0FB
:1026680018C067F077EC47F00001C02BBDD77D0E8E
:10267800C125D96EDA6A010EDA22DF50E1EC24F0C6
:102688004FC060F050C061F077EC47F0980E000141
:10269800606FF30E616F77EC47F00001C12BB269F0
:1026A800B369BB51B46FB56BB251B427B351B523FD
:1026B800C151B66FB76BB451B65DB751800AB86FE8
:1026C800B551800AB85901E25ED7F90E606FFC0E69
:1026D800616F77EC47F095D2A10E606FF50E616FD0
:1026E800E451E1EC24F04FC062F050C063F077ECA5
:1026F80047F087D2650E606FF50E616FE451E1EC2B
:1027080024F04FC062F050C063F077EC47F079D204
:10271800C90E606FF10E616FD0C162F0D1C163F074
:1027280077EC47F06ED2E00E606FF30E616FCEC1AA
:1027380062F0CFC163F077EC47F063D26D0E606F43
:10274800F20E616FBDC162F0BEC163F077EC47F075
:1027580058D2DD0E606FF50E616FE451E1EC24F0A4
:102768004FC062F050C063F0F50E0001646FEF0EC9
:10277800656F77EC47F0010E0001C16FEF0E606FD7
:10278800FC0E616FC151090DF50EF324626FEF0E57
:10279800F420636F77EC47F00001C12B080EC16588
:1027A800EDD7A50E606FF40E616F77EC47F029D274
:1027B800A90E606FF40E616F77EC47F0F20E00011E
:1027C800606FF60E616F77EC47F0670E0001606F7F
:1027D800F40E616FF7C062F0F8C063F077EC47F071
:1027E80010D29A0E606FF30E616FF3C062F0F4C0FE
:1027F80063F077EC47F005D2A90E606FF40E616FB5
:1028080077EC47F0F20E0001606FF60E616F77EC1F
:1028180047F0E80E0001606FF40E616FF5C062F0DA
:10282800F6C063F077EC47F0ECD1A90E606FF40EB8
:10283800616F77EC47F0F20E0001606FF60E616F82
:1028480077EC47F0240E0001606FF40E616FF1C061
:1028580062F0F2C063F077EC47F0D3D1BB0E606F43
:10286800F20E616FE451E1EC24F04FC062F050C009
:1028780063F077EC47F0C5D1270E606FF50E616FF6
:10288800E451E1EC24F04FC062F050C063F0780EE0
:102898000001646FF00E656F77EC47F0010E0001E0
:1028A800C16FEF0E606FFC0E616FC1510A0D780E9B
:1028B800F324626FF00EF420636F77EC47F00001A9
:1028C800C12B040EC165EDD7A50E606FF40E616FC4
:1028D80077EC47F096D1110E606FF10E616FE451FD
:1028E800E1EC24F04FC062F050C063F077EC47F0A1
:1028F80088D16D0E606FF10E616FE451E1EC24F048
:102908004FC062F050C063F077EC47F07AD14F0EB9
:10291800606FF60E616F29C105F02AC106F0086ADA
:102928000A0E076EA4EC40F005C062F006C063F022
:1029380029C113F02AC114F050EC47F013C017F066
:1029480014C018F01A6A0A0E196EFFEC44F017C08A
:1029580064F018C065F077EC47F053D1EE0E606F65
:10296800F90E616F000E626F030E636F77EC47F02C
:10297800010E0001C16FC10503E10A0EE4190EE062
:10298800EF0E606FFC0E616FC151190D000EF3243C
:10299800626F030EF420636F77EC47F00001C12BE0
:1029A800060EC165E8D7A50E606FF40E616F77EC6F
:1029B80047F027D1BD0E606FF60E616F77EC47F0D8
:1029C80020D11D0E606FF20E616F77EC47F019D1C0
:1029D800870E606FF60E616F77EC47F012D1160E16
:1029E800606FF60E616FE451E1EC24F04FC062F0C5
:1029F80050C063F0460E0001646FF00E656F77EC0F
:102A080047F0010E0001C16FEF0E606FFC0E616FA1
:102A1800C1510A0D460EF324626FF00EF420636F65
:102A280077EC47F00001C12B040EC165EDD7A50E68
:102A3800606FF40E616F77EC47F0E3D0BE6BBF6B4D
:102A4800BF515FE1080EBE5D5CE2DB0E606FF90E00
:102A5800616FBEC062F0BFC063F0210EBE25D96EA3
:102A6800010EBF21DA6EDF50B26F410EB225646FDE
:102A7800656B000E6523D890BE35D96EBF35DA6E0A
:102A8800A10ED926010EDA22DECF17F0DDCF18F01D
:102A98001A6A0A0E196EECEC43F017C066F018C0FB
:102AA80067F0D8900001BE35D96EBF35DA6EA10E39
:102AB800D926010EDA22DECF17F0DDCF18F01A6A18
:102AC8000A0E196EFFEC44F017C068F018C069F0E0
:102AD80077EC47F00001BF510AE1070EBE5D07E23F
:102AE800F70E606FFC0E616F77EC47F006D0980E1A
:102AF800606FF30E616F77EC47F00001BE4BBF2BA0
:102B08009FD7E46B7ED0010E606FF90E616FE451C0
:102B18004B0D450EF326000EF422C40EF324F66E78
:102B2800DF0EF420F76E0900F5CF62F00A00F5CF4A
:102B380063F0E4514B0D470EF326000EF422C40E49
:102B4800F324F66EDF0EF420F76E0900F5CF64F07B
:102B58000A00F5CF65F077EC47F053D00001E45157
:102B680001E1E3D4020A01E1B7D5010A01E176D611
:102B7800070A01E136D6010A01E13ED6030A01E15E
:102B8800E8D5010A01E178D60F0A01E1A4D6010AC5
:102B980001E125D7030A01E1E1D6060A01E1AAD538
:102BA800010A01E142D6030A01E1A3D6010A01E1C3
:102BB800AED61F0A01E1FCD5010A01E1A9D5030A35
:102BC80001E1B1D5010A01E1B9D5070A01E1C6D68B
:102BD800020A01E1EFD6010A01E1C0D60E0A01E1BD
:102BE800F0D6040A01E1F4D6020A01E1F1D63E0A60
:102BF80001E1EED6020A01E1EBD6110A01E11ED786
:102C080082D70101796B0001E56B12000101742B79
:102C180073514EE0090E731945E1725143E0020EFB
:102C28000001E11909E1126A9B0E136EFA0E146E87
:102C3800000EECEC3FF034D0030EE11909E1126A02
:102C48008E0E136EFA0E146E000EECEC3FF028D0C8
:102C5800040EE11909E1126A770E136EF90E146E6B
:102C6800000EECEC3FF01CD0050EE11909E1126AE8
:102C78008C0E136EF90E146E000EECEC3FF010D0B3
:102C8800060EE11909E1126AC80E136EF90E146EE8
:102C9800000EECEC3FF004D0000E0A6A1EEC48F07F
:102CA8000101746B780E7465780C736B45EC2DF02C
:102CB8000101740502E1636B0BD0040E746508D042
:102CC800010E746F0001E0510108E06F0101632BF0
:102CD800595001E19CD089863C0E756F59A219D0D4
:102CE800A70E1D6EFB0E1E6E000E90EC48F0BE0E79
:102CF8001D6EFA0E1E6E020E90EC48F09A0E1D6EB6
:102D0800FC0E1E6E040E90EC48F0410E1D6EFC0E7B
:102D180051D059A419D0150E1D6EFB0E1E6E000E53
:102D280090EC48F0A00E1D6EFC0E1E6E020E90EC8C
:102D380048F0950E1D6EFB0E1E6E040E90EC48F0CA
:102D4800DC0E1D6EFB0E36D059A838D00001E051BC
:102D580019E19E0E1D6EFB0E1E6E000E90EC48F0E3
:102D6800B20E1D6EFC0E1E6E020E90EC48F0F40EB4
:102D78001D6EFB0E1E6E040E90EC48F08C0E1D6E40
:102D8800FB0E18D0A60E1D6EFC0E1E6E000E90ECEB
:102D980048F0480E1D6EFC0E1E6E020E90EC48F0B8
:102DA800B60E1D6EFB0E1E6E040E90EC48F0AC0EB7
:102DB8001D6EFC0E1E6E060E90EF48F059AC17D033
:102DC800040E1D6EFC0E1E6E020E90EC48F0B40E42
:102DD800426E436A000E446EFB0E456EE2C046F03A
:102DE800476A6FEC46F0B40E1D6E1E6A0DD059AEE0
:102DF8000ED0C90E1D6EFA0E1E6E020E90EC48F033
:102E0800D40E1D6EFA0E11D0040E90EF48F0500E3D
:102E18000001E2190CE1040E1D6EFC0E1E6E020E7E
:102E280090EC48F0560E1D6EFC0E1E6EEDD7F0515C
:102E380004E00101685101E0B2D0000E0A6A1EECFC
:102E480048F0040E0A6E010E1EEC48F0100E0A6ED1
:102E5800060E1EEC48F00A6A070E1EEC48F059A050
:102E68000FD0EC0E1D6EFB0E1E6E020E90EC48F09D
:102E7800290E1D6EFB0E1E6E040E90EC48F00AD350
:102E8800020E5A1834E13C0E0101756F950E1D6E45
:102E9800FB0E1E6E020E90EC48F0B40E426E436AB2
:102EA800330E446EFC0E456EA1C117F0A2C118F096
:102EB8001A6A0A0E196EECEC43F017C046F018C0F7
:102EC80047F0A1C117F0A2C118F01A6A0A0E196ECC
:102ED800FFEC44F017C048F018C049F06FEC46F01A
:102EE800B40E1D6E1E6A040E90EC48F0D3D2010198
:102EF800685122E0B00E1D6EFB0E1E6E020E90ECA5
:102F080048F0B40E426E436A3D0E446EFB0E456EA9
:102F180057C046F0476A6FEC46F0575004E03C0E45
:102F28000101756F02D00001BA6BB40E1D6E1E6AE6
:102F3800040E90EC48F0AED20001E65121E0070EF5
:102F4800E1190FE1E40E1D6EFB0E1E6E020E90ECF1
:102F580048F00B0E1D6EFB0E1E6E040E90EC48F032
:102F680099D2FC0E1D6EFB0E1E6E020E90EC48F000
:102F78000B0E1D6EFB0E1E6E040E90EC48F08AD2EE
:102F88004F0E1D6EFC0E1E6E020E90EC48F03A0EAF
:102F98001D6EFC0E1E6E040E90EC48F07BD20001F4
:102FA800F00504E0020EF01901E074D2E00E056E9F
:102FB800040E066E9B0E076EED0E086E020E0A6E6C
:102FC800096AA5EC42F00001F00515E1C26B0C0E90
:102FD800C26501D010D02A0EC225D96EDA6A050E54
:102FE800DA22DF6AAA0EC225D96EDA6A050EDA225B
:102FF800DF6AC22BECD7D751D81136E0D7C0C0F062
:10300800D8C0C1F0C0C017F0C1C018F01A6A3C0E91
:10301800196EECEC43F017C0B2F018C0B3F0C0C0A2
:1030280017F0C1C018F01A6A3C0E196EFFEC44F094
:1030380017C0C0F018C0C1F0B40E426E436A470E04
:10304800446EFB0E456EB2C046F0B3C047F0C0C038
:1030580048F0C1C049F06FEC46F0136AB40E146E24
:10306800640E06EC46F00ED0C26B070EC26501D0A6
:1030780009D03C0EC225D96EDA6A050EDA22DF6A5B
:10308800C22BF3D701015CAF07D0030EC65F140E45
:10309800C66109D02C0E06D0030EC6272C0EC665B5
:1030A80002D0140EC66FC6C151F1526BBC6B030E31
:1030B800BB6F5BC113F05CC114F050EC47F014BE59
:1030C8000AD0145003E1040E135C05E30A6AFE0EED
:1030D800096E65EC3CF00001E7511BE0B40E606F2F
:1030E800F50E616FFA0E626F3BC163F03CC164F08C
:1030F8003DC165F03EC166F0030E676F010E686F53
:103108000FEC34F0010E136EB40E146E590E06EC6B
:1031180046F0020E5A1876E13C0E0101756F030E57
:10312800C527590EC56502D04A0EC56FC5C151F1F4
:10313800526BBC6B030EBB6F0A6AFE0E096E65EC20
:103148003CF00001E05146E0E75144E0010136BFA0
:1031580008D03651351122E1DE0E335D260E345982
:103168001DE2B40E0001606F330E616FFB0E626FDB
:1031780033C163F034C164F035C165F036C166F01F
:10318800030E676F010E686F0FEC34F0020E136EBA
:10319800B40E146E490E06EC46F034D0B40E00019D
:1031A800606FB80E616FFC0E626F33C163F034C19B
:1031B80064F035C165F036C166F0030E676F686B61
:1031C8000FEC34F0020E136EB40E146E4B0E06ECB8
:1031D80046F018D0B40E606FE10E616FFC0E626F9E
:1031E800A1C163F0A2C164F0656B666B010E676FE5
:1031F800686B0FEC34F0020E136EB40E146E4D0EA5
:1032080006EC46F00001E0512CE0020EF01929E12D
:103218000101526B290E516FBC6B010EBB6F0A6A1C
:10322800E30E096E65EC3CF0B40E0001606FDC0E35
:10323800616FFC0E626F5BC163F05CC164F0000EED
:1032480064BFFF0E656F666F010E676F686B0FECEA
:1032580034F0020E136EB40E146E170E06EC46F020
:103268002BD0C26B020EC26501D026D0B40E606F9F
:10327800DC0E616FFC0E626FC251020D290EF32441
:10328800D96E010EF420DA6EDECF63F0DDCF64F084
:10329800000E64BFFF0E656F666F010E676F686B87
:1032A8000FEC34F0C2C013F0B40E146E170E06EC17
:1032B80046F00001C22BD6D7000E51EC43F00A6A43
:1032C800040E1EEC48F059A013D00001E05108E1AB
:1032D800EC0E1D6EFB0E1E6E050E90EC48F0D6D05F
:1032E800290E1D6EFB0E1E6E050E90EC48F0CED01A
:1032F80059AA13D00001E05108E1EC0E1D6EFB0E37
:103308001E6E050E90EC48F0C1D01F0E1D6EFB0E10
:103318001E6E050E90EC48F0B9D0020E5A181BE04C
:10332800B40E426E436AB90E446EFB0E456E57C02A
:1033380046F0476A6FEC46F0575004E03C0E010136
:10334800756F02D00001B96BB40E1D6E1E6A050EB2
:1033580090EC48F09BD0020E5A1801E18CD096D020
:10336800636B0001F05113E0020EF01908E1230E1F
:103378001D6EFB0E1E6E050E90EC48F087D0D00E29
:103388001D6EFC0E1E6E050E90EC48F07FD00101FC
:10339800632B950E1D6EFB0E1E6E050E90EC48F00D
:1033A80075D00001E7511BE0B40E606FDF0E616F4E
:1033B800FA0E626F33C163F034C164F035C165F051
:1033C80036C166F0030E676F010E686F0FEC34F0BC
:1033D800B40E1D6E1E6A050E90EC48F057D0010120
:1033E800632B0001E7511BE0B40E606FA70E616FFD
:1033F800FA0E626F3BC163F03CC164F03DC165F0F9
:103408003EC166F0030E676F020E686F0FEC34F072
:10341800B40E1D6E1E6A050E90EC48F037D00101FF
:10342800632BB40E426E436AD40E446EFB0E456E97
:10343800A1C117F0A2C118F01A6A0A0E196EECECB5
:1034480043F017C046F018C047F0A1C117F0A2C159
:1034580018F01A6A0A0E196EFFEC44F017C048F00B
:1034680018C049F06FEC46F0B40E1D6E1E6A050ECA
:1034780090EC48F00BD001016351010A8AE0030A7D
:1034880090E0010AAEE0070ACCE06AD70A6A070EA4
:103498001EEC48F00101755103E08986750712009A
:1034A800899612000001D66F8AEC26F0D56F3C0E83
:1034B8000101756F89860001EB0504E159B881B2F5
:1034C80001D059980101735112E1050E0001D61976
:1034D8000EE1DF510CE1010E0101736F47C12FF1BD
:1034E80048C130F149C131F14AC132F10CD2010170
:1034F800730526E1D00E2F250001C36F070E0101C9
:1035080030210001C46F000E010131210001C56F97
:10351800000E010132210001C66F0101475100016F
:10352800C35D010148510001C4590101495100011D
:10353800C55901014A510001C65902E2020EE4D000
:10354800010173050BE1070E0001D61907E101011E
:10355800736B0001DF6B0AEC16F0D5D10F0E010179
:1035680073190EE1020E0001D6190AE10101725128
:1035780007E0CA6B040ECB6FCC6BCD6B726BC6D0F9
:10358800010E010173650DD1020E0001D61907E085
:10359800030ED61904E0060ED61901E002D1DF5158
:1035A80001E0B6D00101725101E09AD0A1D04FC11B
:1035B80005F050C106F0086A640E076E030E0A6E25
:1035C800E70E096E0001D651A1EC43F005C04FF19A
:1035D80006C050F19BD07351FCEC2BF005C04DF1A7
:1035E80006C04EF14DC105F04EC106F00101735100
:1035F8004B0D450EF326000EF422C40EF324F66E8E
:10360800DF0EF420F76E0900F5CF07F00A00F5CFBA
:1036180008F073514B0D470EF326000EF422C40E2A
:10362800F324F66EDF0EF420F76E0900F5CF09F0EB
:103638000A00F5CF0AF00001D651A1EC43F005C00D
:103648004DF106C04EF101014D054E11CBE04DC1C3
:10365800ACF04EC1ADF0735152EC29F057D0735114
:10366800FCEC2BF005C04DF106C04EF14DC105F044
:103678004EC106F0010173514B0D450EF326000EA5
:10368800F422C40EF324F66EDF0EF420F76E090060
:10369800F5CF07F00A00F5CF08F073514B0D470E30
:1036A800F326000EF422C40EF324F66EDF0EF42087
:1036B800F76E0900F5CF09F00A00F5CF0AF000010E
:1036C800D651A1EC43F005C04DF106C04EF14DC1F5
:1036D800ACF04EC1ADF00101735152EC29F016D097
:1036E80073510A0A01E177D7050A01E160D7B7D714
:1036F80073C10CF07D0E0D6E010E0E6ED5C00FF06D
:103708000001D65155EC41F00101736F010EEBD069
:10371800020EDF190CE101014B514C1108E1010EB9
:103728004C6FF40E4B6F47252F6F010E31D00101FE
:103738004B514C1101E1E7D047512F5D48513059A9
:10374800495131594A51325901E3DDD00001DF6B4B
:1037580001014C5104E1020E4B5D01E2D4D04BC192
:10376800C3F04CC1C4F00001D890C433C333D8901F
:10377800C433C333D890C433C333C35101014B5F3F
:103788000001C45101014C5B4B5147252F6F4C512F
:103798004821306F000E4921316F000E4A21326FE7
:1037A800B2D0010E01017365A1D0050E0001D61932
:1037B80001E09CD0DF5101E099D0010EDF6F0101DB
:1037C80072516FE0726B0F0E731901E09CD04F516C
:1037D8000001C36F010150510001C46FC56BC66B76
:1037E8000A0EC303F3CFC7F0F4CFC8F0C96BCA6B96
:1037F800C403F350C827F450C923000ECA23C303D7
:10380800F350C827F450C923000ECA230A0EC50373
:10381800F350C927F450CA23000EC403F350C92734
:10382800F450CA23000EC303F350C927F450CA2327
:103838000A0EC603F350CA27000EC503F350CA2761
:10384800000EC403F350CA27000EC303F350CA275F
:103858000A0ED890C737C837C937CA37E82EF9D7FC
:10386800000EC725056E140EC821066E000EC9216C
:10387800076E000ECA21086E53C109F054C10AF040
:103888000B6A0C6AE0EC40F005C0CAF106C0CBF147
:1038980007C0CCF108C0CDF14FC129F150C12AF1C0
:1038A80032D0010E726F0F0E73190BE129C113F09C
:1038B8002AC114F050EC47F013C04FF114C050F176
:1038C80022D0240E73191FE1736B726B596A0001C1
:1038D800E26B576AAB6BAA6B87EC46F00AEC16F002
:1038E800F3EC27F0020E0001DF6F0DD0070E000188
:1038F800D61909E1DF6B01014B6B4C6B066A0A0EA6
:10390800056EE0EC44F00001DF0504E001017305F9
:1039180001E0ECD00101730521E1000E0A6A1EECFA
:1039280048F0040E0A6E010E1EEC48F0EA0E1D6EF9
:10393800FA0E1E6E020E90EC48F0C20E1D6EFB0EC3
:103948001E6E040E90EC48F0100E0A6E060E1EEC69
:1039580048F00A6A070E1EEC48F0C5D073514B0DAB
:10396800080EF326000EF422C40EF3240001606F43
:10397800DF0EF420616F020EC7EC43F068D072517D
:1039880024E0CB0E426E436A330E446EFC0E456E45
:103998004FC117F050C118F01A6A0A0E196EECECF4
:1039A80043F017C046F018C047F04FC117F050C198
:1039B80018F01A6A0A0E196EFFEC44F017C048F0A6
:1039C80018C049F06FEC46F02FD0CB0E426E436A18
:1039D800330E446EFC0E456E29C113F02AC114F053
:1039E80050EC47F013C017F014C018F01A6A0A0E0A
:1039F800196EECEC43F017C046F018C047F029C127
:103A080013F02AC114F050EC47F013C017F014C09B
:103A180018F01A6A0A0E196EFFEC44F017C048F045
:103A280018C049F06FEC46F0CB0E0001606F616B77
:103A3800040EC7EC43F010D07351E1EC24F04FC0F2
:103A480060F050C061F0040EC7EC43F005D00101EE
:103A580073510F0A94E0F0D70A6A070E1EEC48F07B
:103A6800CB0E426E436A940E446EFC0E456E000106
:103A7800E351466E476A46BE47066FEC46F0070EAE
:103A8800126ECB0E136E146A000EECEC3FF0CB0EE8
:103A9800426E436A5D0E446EFC0E456E0001D551C0
:103AA8003CEC47F0466E476AD5C048F0496A6FEC6F
:103AB80046F0070E126ECB0E136E146A310EECEC44
:103AC8003FF0070E126E8E0E136EFC0E146E870EEC
:103AD800056EFB0E066E27EC47F00550FA0DF35005
:103AE8007A0FECEC3FF0020E0001DF6F47C13FF1A7
:103AF80048C140F149C141F14AC142F10101716B2C
:103B0800D6C0C7F1746B12000001BC6FC76BC86BDD
:103B1800BD6BBE6BBA6BBB6BB06BB16BB26BB36B8F
:103B2800B46BB56BB66BB76BED5102E157EC46F071
:103B3800020E0101211910E10001F551DD5DF65178
:103B4800DE590AE2EE5108E10A0EDD03F3CFACF0CC
:103B5800F4CFADF0DE0308D00A0E0001F503F3CF71
:103B6800ACF0F4CFADF0F603F350AD27ACC061F183
:103B7800ADC062F101015F51601104E05FC161F104
:103B880060C162F1020E0001ED6104D061C100F272
:103B980062C101F2C96B210EC925D96EDA6A010E1C
:103BA800DA22020EDE181AE1C74BC82BC951020DE2
:103BB800000EF324D96E020EF420DA6EDE50BD2713
:103BC800DD50BE23C951020DA10EF324D96E010E9A
:103BD800F420DA6EDE50BA27DD50BB23C92B070E5E
:103BE800C965D9D7BC5148E1020EF01945E00A0E63
:103BF800F703F3CFACF0F4CFADF0F803F350AD27F3
:103C0800DB51AC5DC36FDC51AD59C46FC4BF0ED07E
:103C1800C45102E1C3050AE3C3C005F0C4C006F0FD
:103C2800086A040E076EA4EC40F012D0640EC303B9
:103C3800F3CFACF0F4CFADF0C403F350AD27ACC074
:103C480005F0ADC006F0086A640E076EA4EC40F0FB
:103C580005500001D9270650DA23DAAF02D0D96B14
:103C6800DA6BDABF09D0210ED95D030EDA5904E305
:103C7800030EDA6F200ED96F020EF01901E0A9D0F9
:103C8800F60EAC6FAD69AC510101BD03F3CFAEF0D8
:103C9800F4CFAFF0BE03F3500001AF27AD510101DF
:103CA800BD030001F350AF2701015B510001AE25B0
:103CB800C56F01015C510001AF21C66FC6AF1BD0B3
:103CC800C6AF0FD0F60EC55DFF0EC6590AE2C5C0D5
:103CD80005F0C6C006F0086A030E076EA4EC40F0B3
:103CE80013D0C5C005F0C6C006F0086A040E076EFA
:103CF800A4EC40F009D0C5C005F0C6C006F0086ABB
:103D0800020E076EA4EC40F005500001D95F065082
:103D1800DA5BF351C703F3CFACF0F4CFADF0C803CF
:103D2800F350AD27F451C703F350AD270A0EAC0387
:103D3800F3CFAEF0F4CFAFF0AD03F350AF27AE51F1
:103D4800D95DAF51DA5902E3DAAF3ED0F351C70378
:103D5800F3CFACF0F4CFADF0C803F350AD27F45176
:103D6800C703F350AD270A0EAC03F3CFAEF0F4CF80
:103D7800AFF0AD03F350AF27AEC0D9F0AFC0DAF063
:103D8800C751C81121E00101CE51CF111DE000013A
:103D9800C6BF1AD0C65103E10B0EC55D15E3D75156
:103DA800D81117E13C0E0101CE03F3CFACF0F4CFEC
:103DB800ADF0CF03F3500001AD27ACC0AAF0ADC001
:103DC800ABF087EC46F005D00001AB6BAA6B87EC33
:103DD80046F00001ED051BE10A0EF103F3CFACF04C
:103DE800F4CFADF0F203F350AD27D951AC5DDA5101
:103DF800AD590DE20A0EF103F3CFACF0F4CFADF0FC
:103E0800F203F350AD27ACC0D9F0ADC0DAF0BA5127
:103E1800DB5DBF6FBB51DC59C06FC0AF02D0BF6B59
:103E2800C06BF05114E1ED050EE10A0EF103F3CF7A
:103E3800ACF0F4CFADF0F203F350AD27ACC0D9F03D
:103E4800ADC0DAF004D061C1D9F062C1DAF0C7516F
:103E5800C811D8B41200BC5112E0020EF0190FE0DC
:103E68000A0EF703F3CFACF0F4CFADF0F803F3503C
:103E7800AD27BF51AC5DD96FC051AD59DA6FDABF0C
:103E880035D0F351C703F3CFACF0F4CFADF0C8038E
:103E9800F350AD27F451C703F350AD270A0EAC0316
:103EA800F3CFAEF0F4CFAFF0AD03F350AF27AE5180
:103EB800D95DAF51DA591AE3020EF0193BE101015D
:103EC8005CBF38D05C5103E10B0E5B5D33E30A0E37
:103ED8000001F703F3CFACF0F4CFADF0F803F350E3
:103EE800AD27DB51AC5DDC51AD5924E2F351C7037A
:103EF800F3CFACF0F4CFADF0C803F350AD27F451D5
:103F0800C703F350AD270A0EAC03F3CFAEF0F4CFDE
:103F1800AFF0AD03F350AF27AEC0D9F0AFC0DAF0C1
:103F28000101702B720E0001606FFA0E616F77EC61
:103F380047F002D00101706B0001D951BD5DBE513F
:103F4800800AAC6FDA51800AAC5904E2BDC0D9F0DE
:103F5800BEC0DAF0D9C0C1F0DAC0C2F0C96BC1C0C6
:103F680005F0C2C006F0C7C007F0C8C008F0A4EC4E
:103F780040F005C0B8F006C0B9F0210E0001C9250F
:103F8800D96EDA6A010EDA22020EDE183EE1C95154
:103F9800B00FD96EDA6ADF5038E1C951020D000E50
:103FA800F324D96E020EF420DA6EDE50B85DDE50CE
:103FB800B9592BE3C951020D000EF324D96E020E34
:103FC800F420DA6EC951020DA10EF324E16E010E40
:103FD800F420E26EDECFE6FFDDCFE5FFC951B00F7A
:103FE800D96EDA6A010EDF6EC707D8A0C807C951B3
:103FF800020DA10EF324D96E010EF420DA6EDE5004
:10400800C15FDD50C25BC96B01D0C92B080EC96105
:1040180003D0C751C811A3E1C96BC751C811D8B49F
:104028001200210EC925D96EDA6A010EDA22020EB3
:10403800DE1832E1C951B00FD96EDA6ADF502CE1CF
:10404800C1C005F0C2C006F0C7C007F0C8C008F07C
:10405800A4EC40F00001C951020DA10EF324D96E61
:10406800010EF420DA6E05C0DEFF06C0DDFFC9517F
:10407800B00FD96EDA6A010EDF6EC707D8A0C8077D
:10408800C951020DA10EF324D96E010EF420DA6E87
:10409800DE50C15FDD50C25BC92B080EC961080C38
:1040A800C751C811BEE112000101656BE7D120EECE
:1040B80003F0AA51D926AB51DA22DF5001E1000CF6
:1040C80020EE03F0AA51D926AB51DA22100EDFAE4A
:1040D8001C0EAF6FB06BAAC036F0ABC037F0B05152
:1040E800040DF350AF25386EAC51190D0A0EF324A8
:1040F800D96E030EF420DA6EDF50396EAC51190D0B
:104108000C0EF324D96E030EF420DA6EDF503A6EEB
:10411800AC51190D120EF324D96E030EF420DA6E89
:10412800DF50FD0F3B6E91EC31F00001B051040DF2
:10413800F3CF46F0F4CF47F04650AD25D96E47503F
:10414800AE21DA6E36C0DEFF37C0DEFF38C0DEFFD4
:1041580039C0DEFF1C0EAF1901E013D1B05125E1C3
:10416800B051040DF3CF46F0F4CF47F04650AD25DB
:10417800D96E4750AE21DA6EDECF05F0DECF06F0FD
:10418800DECF07F0DECF08F00A0E096E0A6A0B6A66
:104198000C6A4FEC3BF005C013F006C014F050EC6D
:1041A80047F013C053F114C054F10001B051040D8D
:1041B800F3CF46F0F4CF47F04650AD25D96E4750BF
:1041C800AE21DA6EDECF48F0DECF49F0DECF4AF01E
:1041D800DECF4BF0CAC14CF0CBC14DF0000E4DBE46
:1041E800FF0E4E6E4F6E4C504802F3CF50F0F4CF96
:1041F80051F0526A536A4902F3505126F450522240
:10420800000E53224D504802F3505126F4505222CA
:10421800000E53224C504A02F3505226F4505322B7
:104228004D504902F3505226F45053224E50480242
:10423800F3505226F45053224B504C02F35053265D
:104248004D504A02F35053264E504902F35053261C
:104258004F504802F350532650C005F051C006F0A5
:1042680052C007F053C008F0096A040E0A6E0B6AC0
:104278000C6A4FEC3BF00001B051040DF3CF54F041
:10428800F4CF55F05450AD25D96E5550AE21DA6EA5
:1042980005C0DEFF06C0DEFF07C0DEFF08C0DEFF88
:1042A800F85103E1650EF75D31E3B051040DF3CF2A
:1042B80046F0F4CF47F04650AD25D96E4750AE21B1
:1042C800DA6EDECF48F0DECF49F0DECF4AF0DECF3F
:1042D8004BF0D89048344C6E49344D6E4A344E6E8B
:1042E8004B344F6EB051040DF3CF50F0F4CF51F072
:1042F8005050AD25D96E5150AE21DA6E4CC0DEFF5C
:104308004DC0DEFF4EC0DEFF4FC0DEFFB051040DD2
:10431800F3CF46F0F4CF47F04650AD25D96E47505D
:10432800AE21DA6E030EDBBE29D0B051040DF3CFF7
:1043380046F0F4CF47F04650AD25D96E4750AE2130
:10434800DA6E030EDBBE0AD0DB5018E1020EDB503A
:1043580015E1010EDB5012E1DE0410E2B051040D4C
:10436800F3CF46F0F4CF47F04650AD25D96E47500D
:10437800AE21DA6EDE6ADE6ADE6ADD6A010E0101EE
:10438800656F0001B02B020EB065A5D620EE01F0D6
:10439800AA51D926AB51DA220F0EDF6428D01C0EA1
:1043A800AF1925E1010E0101666F0001E851466E63
:1043B800476AD8904636473620EE01F0AA51D926EA
:1043C800AB51DA22DF50030B4618471001E124D124
:1043D800020EED6121D1080EA76FA66BD890E835C3
:1043E800A86FA96BA9370A0ECFEC46F015D10101C9
:1043F800666B12D1B06BAAC036F0ABC037F0B051C3
:10440800040DF3CF38F0AC51190D0A0EF324D96E10
:10441800030EF420DA6EDF50396EAC51190D0C0E14
:10442800F324D96E030EF420DA6EDF503A6EAC51E5
:10443800190D120EF324D96E030EF420DA6EDF5034
:10444800FD0F3B6E91EC31F00001B051040DF3CF3C
:1044580046F0F4CF47F04650AD25D96E4750AE210F
:10446800DA6E36C0DEFF37C0DEFF38C0DEFF39C087
:10447800DEFFB02B020EB065BED7CED00001AC5126
:10448800010A01E114D6B6D7B06BAAC036F0ABC0AA
:1044980037F0B051040DF3500C0F386EAC51190DB4
:1044A8000A0EF324D96E030EF420DA6EDF50396E4B
:1044B800AC51190D0C0EF324D96E030EF420DA6EEC
:1044C800DF503A6EAC51190D150EF324D96E030E58
:1044D800F420DA6EDF503B6E91EC31F039AE32D019
:1044E8000001B051040DF3CF46F0F4CF47F0465029
:1044F800AD25D96E4750AE21DA6EDECF48F0DECF5B
:1045080049F0DECF4AF0DECF4BF0481E491E4A1E66
:104518004B1E482A000E49224A224B22B051040D54
:10452800F3CF4CF0F4CF4DF04C50AD25D96E4D5033
:10453800AE21DA6E48C0DEFF49C0DEFF4AC0DEFFAA
:104548004BC0DEFF0001B02B020EB0659ED7010CF8
:10455800B06BAAC036F0ABC037F0B051040DF350C1
:10456800140F386EAC51190D0A0EF324D96E030ED0
:10457800F420DA6EDF50396EAC51190D0C0EF324AD
:10458800D96E030EF420DA6EDF503A6EAC51190D75
:10459800150EF324D96E030EF420DA6EDF503B6E4D
:1045A80091EC31F039AE32D00001B051040DF3CFA7
:1045B80046F0F4CF47F04650AD25D96E4750AE21AE
:1045C800DA6EDECF48F0DECF49F0DECF4AF0DECF3C
:1045D8004BF0481E491E4A1E4B1E482A000E49220F
:1045E8004A224B22B051040DF3CF4CF0F4CF4DF0DA
:1045F8004C50AD25D96E4D50AE21DA6E48C0DEFF65
:1046080049C0DEFF4AC0DEFF4BC0DEFF0001B02B11
:10461800020EB0659ED7010C0001AC51040A01E1FD
:1046280033D7010A95E0010C0101006B016B026BA5
:10463800036B046B056B066B076B0A6B0B6B106BDC
:10464800050E000171192AE16FC005F070C006F06F
:1046580071C007F077EC42F005500610D8A412009C
:10466800040E01010B6F6FC0D9FF70C0DAFFDF5075
:10467800006F000120EE01F06F51D9267051DA2247
:10468800DF500101016F000120EE02F06F51D926C1
:104698007051DA22DF500101106F1200070E7165A8
:1046A800070C6FC0D9FF70C0DAFFDF500101006F3F
:1046B800000120EE01F06F51D9267051DA22DF5047
:1046C8000101016F6FC005F070C006F071C007F0FE
:1046D80077EC42F00550061001E1FDD01200080EFB
:1046E8000001711934E1020E01010B6F000120EE87
:1046F80002F06F51D9267051DA22DF50736F726B56
:1047080020EE03F06F51D9267051DA22DF50721172
:104718000101026F000173510101036F000120EED6
:1047280004F06F51D9267051DA22DF50736F726B23
:1047380020EE05F06F51D9267051DA22DF50721140
:104748000101046F000173510101056FD1D020EE02
:1047580002F06F51D9267051DA22DF5001010A6F39
:104768000A510001726F736BFB0E746F756971519A
:10477800766F776B74517627755177237251761956
:1047880005E17351771902E1030E9BD0FF0E606FAC
:10479800F70E616F77EC47F0ABD0080E0001711986
:1047A80037E1010E01010B6F000120EE02F06F519D
:1047B800D9267051DA22DF50736F726B20EE03F046
:1047C8006F51D9267051DA22DF5072110101026F40
:1047D800000173510101036F056B010E046F0001A5
:1047E80020EE04F06F51D9267051DA22DF50736F32
:1047F800726B20EE05F06F51D9267051DA22DF5026
:1048080072110101066F000173510101076F70D029
:104818001C0E606FF80E616F77EC47F069D00001ED
:1048280020EE02F06F51D9267051DA22DF50736FF3
:10483800726B20EE03F06F51D9267051DA22DF50E7
:1048480072110101026F000173510101036F000130
:1048580020EE04F06F51D9267051DA22DF50736FC1
:10486800726B20EE05F06F51D9267051DA22DF50B5
:1048780072110101046F000173510101056F080EE7
:104888000001711981E020EE06F06F51D9267051B0
:10489800DA22DF5001010A6F0A510001726F736B4F
:1048A800F70E746F75697151766F776B745176274F
:1048B800755177237251761907E17351771904E11D
:1048C800020E01010B6F14D0390E606FF80E616F84
:1048D80077EC47F00DD001010151030A01E1FFD641
:1048E800070A01E1FCD6020A01E157D7160A97E048
:1048F80001010B515AE00A5158E06FC008F170C02D
:1049080009F100017151010108250001726F000EC3
:10491800010109210001736F01010A510001725F51
:10492800000E735BFE0E72250101086FFF0E000179
:1049380073210101096F39D000C10CF101C10DF1DA
:1049480002C10EF103C10FF1120000510C190DE163
:104958000D5101190AE1030E011903E0040E0119B2
:1049680004E10EC102F10FC103F10C6B0D6B0E6B6C
:104978000F6B120000510C190DE10D5101190AE1DC
:10498800090E001907E0030E0B6F0C6B0D6B0E6B15
:104998000F6B1200020E0B6F00C10CF101C10DF17B
:1049A80002C10EF103C10FF1020C0B51010AE2E042
:1049B800030AC2E0010AC9E01200536E5350FCEC2E
:1049C8002BF005C054F006C055F03DD10001EE5162
:1049D80005E0020E4F6EF10E506E1200E90E4F6E9A
:1049E800F00E506E12000001F00505E1FC0E4F6E4E
:1049F800F00E506E1200020EF01905E1F60E4F6E21
:104A0800F00E506E1200E20E4F6EF00E506E120055
:104A1800B10E426E010E436E6B0E446EFC0E456E77
:104A280054C046F055C047F06FEC46F0B10E4F6EDB
:104A3800010E506E1200545055100FE0B10E426E28
:104A4800010E436E1C0E446EFC0E456E54C046F0BB
:104A580055C047F06FEC46F0E9D7C80E4F6EF00E20
:104A6800506E12000001ED51090DF50EF3244F6E42
:104A7800EF0EF420506E1200B10E426E010E436E1E
:104A88006C0E446EFC0E456E54C046F055C047F09F
:104A98006FEC46F0CBD70001EF0505E1D10E4F6E64
:104AA800F00E506E1200020EEF19D7E1F00E4F6EA5
:104AB800F00E506E12000001EC510A0D780EF3242E
:104AC8004F6EF00EF420506E12000001EB51C5E05D
:104AD800DA0E4F6EF00E506E1200190E5402F3CF1C
:104AE80051F0F4CF52F05502F3505226000E5124E3
:104AF8004F6E030E5220506E12000001E8510A0D4D
:104B0800AA0EF3244F6EF00EF420506E1200100E11
:104B1800555C13E2B10E426E010E436E510E446EA7
:104B2800FB0E456E54C046F055C047F054C048F0DF
:104B380055C049F06FEC46F079D7B10E426E010EC0
:104B4800436ED60E446EFC0E456E54C046F055C0FA
:104B580047F054C048F055C049F06FEC46F066D7AE
:104B68000001EA5105E0BE0E4F6EF00E506E1200C5
:104B78000D0E4F6EF10E506E1200790E4F6EFB0E39
:104B8800506E1200650E4F6EFB0E506E12006F0EC7
:104B98004F6EFB0E506E12005B0E4F6EFB0E506E8A
:104BA800120054C051F055C052F0525008E1515013
:104BB800E4E0010AE7E0030AEAE0010AEDE0545004
:104BC800551005E0870E4F6EFC0E506E1200240E35
:104BD8004F6EFC0E506E1200B10E426E010E436E07
:104BE800F30E446EFC0E456E840E516E020E526E2C
:104BF800D8905434D96E5534DA6ED890D936DA361E
:104C08005150D9265250DA22DECF46F0DECF47F097
:104C1800DECF48F0DECF49F06FEC46F007D7000151
:104C2800E6510A0D460EF3244F6EF00EF420506E36
:104C38001200080E4F6EF10E506E1200990E4F6E54
:104C4800F30E506E12005350020A01E1BFD6010A5A
:104C580001E121D7070A01E10FD7010A01E10CD7C9
:104C6800030A01E1FFD6010A01E125D70F0A01E194
:104C78002CD7010AD4E0030A01E12FD7010A01E188
:104C880046D7070A01E1AFD6010A01E1F5D6030AC2
:104C980001E133D71E0A01E1EFD6010A01E1B8D6D6
:104CA800030A01E1C8D6010A01E1E6D6070A01E1D3
:104CB80014D7010A01E12BD7030A01E151D7010AF0
:104CC80001E10BD70F0A01E122D7010A01E169D7F7
:104CD800030A01E174D7060A01E119D7010A01E1C3
:104CE8007BD7030A01E113D7010A01E175D73F0A0F
:104CF80001E10DD7010A01E16FD7030A01E107D7E6
:104D0800010A01E169D7070A94E098D7056A020EFB
:104D180001017D6F052A0001EE5109E17D0E052490
:104D2800D96EDA6A010EDA22030EDF6E052A7D0ECD
:104D38000524D96EDA6A010EDA220C0EDF6E052A16
:104D4800020EF0191EE1020EED611BD07D0E052446
:104D5800D96EDA6A010EDA22110EDF6E052A7D0E8F
:104D68000524D96EDA6A010EDA22120EDF6E052AE0
:104D78007D0E0524D96EDA6A010EDA22130EDF6E73
:104D8800052A7D0E0524D96EDA6A010EDA22060E8E
:104D9800DF6E052AF0510CE0020EED6109D07D0EA0
:104DA8000524D96EDA6A010EDA22100EDF6E052AA2
:104DB800F05103E0010EED6502D0ED0509E17D0E2D
:104DC8000524D96EDA6A010EDA22040EDF6E052A8E
:104DD800ED0509E17D0E0524D96EDA6A010EDA22A5
:104DE8000D0EDF6E052A7D0E0524D96EDA6A010ED6
:104DF800DA22050EDF6E052A7D0E0524D96EDA6AE1
:104E0800010EDA22070EDF6E052A7D0E0524D96E03
:104E1800DA6A010EDA22080EDF6E052A7D0E0524F5
:104E2800D96EDA6A010EDA22090EDF6E052AF05110
:104E380001E1CAD0020EED614CD07D0E0524D96E79
:104E4800DA6A010EDA22140EDF6E052AFC0518E173
:104E58000101660509E17D0E0524D96EDA6A010EA5
:104E6800DA220E0EDF6E052A650533E17D0E052474
:104E7800D96EDA6A010EDA220F0EDF6E052A29D002
:104E8800FC5127E07D0E0524D96EDA6A010EDA227C
:104E9800150EDF6E052A7D0E0524D96EDA6A010E1D
:104EA800DA22160EDF6E052AEA5113E07D0E05247C
:104EB800D96EDA6A010EDA22170EDF6E052AE95179
:104EC80008E07D0E0524D96EDA6A010EDA22180E82
:104ED800D4D77D0E0524D96EDA6A010EDA220A0EBD
:104EE800DF6E052A0001E75109E07D0E0524D96E21
:104EF800DA6A010EDA220B0EDF6E052A020EED6168
:104F080063D0060EFC1906E0060EE91903E0060E4A
:104F1800E7195AE17D0E0524D96EDA6A010EDA2204
:104F2800190EDF6E052A7D0E0524D96EDA6A010E88
:104F3800DA221A0EDF6E052A7D0E0524D96EDA6A8A
:104F4800010EDA221C0EDF6E052A7D0E0524D96EAD
:104F5800DA6A010EDA221D0EDF6E052A7D0E05249F
:104F6800D96EDA6A010EDA221E0EDF6E052A7D0E70
:104F78000524D96EDA6A010EDA221F0EDF6E052AC1
:104F88007D0E0524D96EDA6A010EDA22200EDF6E54
:104F9800052A7D0E0524D96EDA6A010EDA22210E61
:104FA800DF6E052A7D0E0524D96EDA6A010EDA2233
:104FB800220EDF6E052A7D0E0524D96EDA6A010EEF
:104FC800DA22230EDF6E052A7D0E0524D96EDA6AF1
:104FD800010EDA22240EDF6E052A055012000101A7
:104FE800DE51330F6A6FDE51880F696F5CEC35F064
:104FF800F2CFFCF2F29EA96AAA6AF70E056E066A5B
:10500800086A020E076E7DEC44F0F50E056E066A1E
:10501800086A020E076E7DEC44F0F30E056E066A10
:10502800086A020E076E7DEC44F0CA0E056E010E8A
:10503800066E086A040E076E7DEC44F0F00E056EED
:10504800066A086A010E076E7DEC44F0EF0E056EE5
:10505800066A086A010E076E7DEC44F0F10E056ED3
:10506800066A086A020E076E7DEC44F0EE0E056EC5
:10507800066A086A010E076E7DEC44F0ED0E056EB7
:10508800066A086A010E076E7DEC44F0EC0E056EA8
:10509800066A086A010E076E7DEC44F0EB0E056E99
:1050A800066A086A010E076E7DEC44F0D00E056EA4
:1050B800010E066E086A020E076E7DEC44F0CE0EF5
:1050C800056E010E066E086A020E076E7DEC44F04E
:1050D800FC0E056E066A086A010E076E7DEC44F048
:1050E800FB0E056E066A086A010E076E7DEC44F039
:1050F800EA0E056E066A086A010E076E7DEC44F03A
:10510800E90E056E066A086A010E076E7DEC44F02A
:10511800FA0E056E066A086A010E076E7DEC44F009
:10512800A00E056E030E066E086A010E076E7DEC72
:1051380044F0A60E056E030E066E086A020E076E90
:105148007DEC44F0A80E056E030E066E086A010E8B
:10515800076E7DEC44F0BD0E056E010E066E086A02
:10516800020E076E7DEC44F0E80E056E066A086ACA
:10517800010E076E7DEC44F0E70E056E066A086ABC
:10518800010E076E7DEC44F0F90E056E066A086A9A
:10519800010E076E7DEC44F0E60E056E066A086A9D
:1051A800010E076E7DEC44F0A30E056E030E066E2D
:1051B800086A020E076E7DEC44F0A50E056E030E1C
:1051C800066E086A010E076E7DEC44F0A90E056EA6
:1051D800030E066E086A020E076E7DEC44F0AB0EF5
:1051E800056E030E066E086A010E076E7DEC44F02C
:1051F800AC0E056E030E066E086A020E076E7DEC95
:1052080044F0AE0E056E030E066E086A010E076EB8
:105218007DEC44F0A20E056E030E066E086A010EC0
:10522800076E7DEC44F001016A6B696BFCC2F2FF0A
:10523800230E0001606FFA0E616F77EC47F00001F2
:10524800ED0528E10201FD6BFE6BFD510C0FFCEC36
:105258002BF0D8900201FD35D96EFE35DA6ECC0EF2
:10526800D926020EDA2205C0DEFF06C0DDFFFD4B9F
:10527800FE2BFE5103E1180EFD5DE7E3020E136EEF
:10528800126ACC0E146E020E156E180E166E090EEA
:10529800C1EC34F0010E0101676F010C0001AE6F23
:1052A800240EAE61DBD0AE514B0D450EF326000E39
:1052B800F422C40EF324F66EDF0EF420F76E090014
:1052C800F550AC5D0900F550AD59D8A0000CAE51B1
:1052D8004B0D470EF326000EF422C40EF324F66E8F
:1052E800DF0EF420F76EAC510900F55CAD510900F2
:1052F800F55801E3B3D0000CACC0EEF0010CF0514E
:1053080001E123D1ED5101E120D1ACC0F0F0010C55
:10531800ACC0D0F1ADC0D1F1010CACC0CEF1ADC084
:10532800CFF1010CACC0BDF1ADC0BEF1010CACC0F9
:10533800EDF0010CACC0F7F0ADC0F8F0010CACC05A
:10534800F3F0ADC0F4F0010CACC0F5F0ADC0F6F070
:10535800010CACC0F1F0ADC0F2F0010CACC0EFF044
:10536800010CACC0ECF0010CACC0EBF0010CACC013
:10537800CAF1ADC0CBF10101CC6BCD6B010CACC057
:10538800E8F0010CACC0FCF0010CACC0FBF0010C67
:10539800ACC0EAF0010CACC0E9F0010CACC0FAF00A
:1053A800010CACC0E7F0010CACC0F9F0010CACC0CA
:1053B800A0F3010CACC0A2F3010CACC0A3F3ADC0C8
:1053C800A4F3010CACC0A5F3010CACC0A6F3ADC0AE
:1053D800A7F3010CACC0A8F3010CACC0A9F3ADC095
:1053E800AAF3010CACC0ABF3010CACC0ACF3ADC07C
:1053F800ADF3010CACC0AEF3010CACC0E6F0010C8F
:10540800AC51B2EC45F0010CACC059F0595001E177
:105418009CD0000EB2EC45F03C0E576E010CACC0AF
:105428005FF1ADC060F1010CACC0AAF0ADC0ABF04B
:1054380087EC46F0010CAC51AD1104E0AC05AD11A0
:1054480001E083D0ACC068F1AC51AD117EE1000E33
:10545800B2EC45F0010CACC067F1010CAE51020A88
:1054680001E14AD7010A01E179D7070A01E167D7C3
:10547800010A01E169D7030A01E159D7010A01E1EB
:1054880070D70F0A01E170D7010AB7E0030A89E073
:10549800010A8AE0070A01E138D7010A01E159D770
:1054A800030A01E16CD7010A01E161D71F0A01E192
:1054B80041D7010A01E12CD7030A01E12ED7010ADD
:1054C80001E130D7070A01E15DD7010A01E15DD7A3
:1054D800030A01E15DD7010A01E15DD70F0A01E185
:1054E8005DD7010A01E163D7030A01E163D7060A20
:1054F80001E163D7010A01E165D7030A01E165D734
:10550800010A01E167D73F0A01E167D7010A01E112
:1055180069D7030A01E169D7010A01E16BD7630A78
:1055280001E16ED7010A01E16FD7030A01E177D7DC
:10553800010A01E1E4D6070A01E176D7010A01E18F
:105548007AD7030AD8A4000C86D7010C1650800B12
:105558001F6E16501624216E15BE2180215008E0BA
:10556800212804E1136A146A156A166A158E04D094
:10557800136A146A156A166A1A50800B1F1A1A5091
:105588001A24206E19BE2080205008E0202804E14B
:10559800176A186A196A1A6A198E04D0176A186A7B
:1055A800196A1A6A205002E0215005E1136A146A48
:1055B800156A166A120019501302F3CF2AF0F4CFB5
:1055C8002BF02A50226E236A246A256A2B50266EF5
:1055D800276A286A296A18501402F3CF2AF0F4CFF0
:1055E8002BF02A502226000E2322242225222B507B
:1055F8002626000E27222822292217501502F3CF2B
:105608002AF0F4CF2BF02A502226000E232224223F
:1056180025222B502626000E27222822292224C0A4
:1056280025F023C024F022C023F0226A1750140268
:10563800F3CF2AF0F4CF2BF02A5022262B50232226
:10564800000E2422252218501302F3CF2AF0F4CF9B
:105658002BF02A5022262B502322000E242225220A
:1056680024C025F023C024F022C023F0226A17505A
:105678001302F3CF2AF0F4CF2BF02A5022262B5016
:105688002322000E2422252219501402F3CF2AF0D7
:10569800F4CF2BF02A5026262B502722000E282242
:1056A800292218501502F3CF2AF0F4CF2BF02A50F4
:1056B80026262B502722000E2822292219501502AF
:1056C800F3CF2AF0F4CF2BF02A501B6E2B501C6E10
:1056D8001D6A1E6A1DC01EF01CC01DF01BC01CF0F8
:1056E8001B6A1B5026261C5027221D5028221E509C
:1056F800292225502626000E27222822292224C0C6
:1057080025F023C024F022C023F0226A205021C0B3
:105718001BF01C6A1B26000E1C22820E1B242A6EFC
:10572800FF0E1C202B6E0FD0D89026362736283631
:10573800293625BE2680D8902236233624362536AB
:105748002A06D8A02B0628AEEFD7206A25AE13D09C
:1057580022501B6E23501C6E24501D6E7F0E251484
:105768001E6E1B501C101D101E1003E0010E206E33
:1057780002D026B0FBD720500EE0262A000E2722A2
:105788002822292229A007D0293429322832273271
:1057980026322A4A2B2A2BBE0AD02B5002E12A286D
:1057A80006E3266A276A800E286E7F0E15D02BBE68
:1057B80004D02B5008E12A0406E2266A276A286AE0
:1057C800296A1F6A0AD02AC021F07F0E2816296A82
:1057D80021B0288ED8902130296E1F50291226C05A
:1057E80013F027C014F028C015F029C016F01200D5
:1057F800096EC5D0EEC005F0066A1200F0C005F0CB
:10580800066A1200D0C105F0D1C106F01200CEC15F
:1058180005F0CFC106F01200BDC105F0BEC106F00B
:105828001200EDC005F0066A1200F7C005F0F8C0D6
:1058380006F01200F3C005F0F4C006F01200F5C03F
:1058480005F0F6C006F01200F1C005F0F2C006F04F
:105858001200EFC005F0066A1200ECC005F0066AF7
:105868001200EBC005F0066A1200CAC105F0CBC1F0
:1058780006F01200E8C005F0066A1200FCC005F048
:10588800066A1200FBC005F0066A1200EAC005F0BD
:10589800066A1200E9C005F0066A1200FAC005F0AF
:1058A800066A1200E7C005F0066A1200F9C005F0A2
:1058B800066A1200A0C305F0066A1200A2C305F02A
:1058C800066A1200A3C305F0A4C306F01200A5C31C
:1058D80005F0066A1200A6C305F0A7C306F0120079
:1058E800A8C305F0066A1200A9C305F0AAC306F00A
:1058F8001200ABC305F0066A1200ACC305F0ADC3D5
:1059080006F01200AEC305F0066A1200E6C005F004
:10591800066A12005AC005F0066A120059C005F05E
:10592800066A1200A1C105F0A2C106F01200D7C094
:1059380005F0D8C006F0120068C105F0066A12002A
:1059480067C105F0066A1200DDC005F0DEC006F08A
:105958001200110E076E010E086E07500001E325B4
:10596800056E000EE3BFFF0E0820066E120055C13B
:1059780005F056C106F01200056A066A12000950C1
:10598800020A01E137D7010A01E163D7070A01E1F9
:1059980051D7010A01E153D7030A01E142D7010AAD
:1059A80001E15BD70F0A01E15CD7010AAFE0030A06
:1059B80001E178D7010A01E179D7070A01E11ED789
:1059C800010A01E141D7030A01E154D7010A01E1C3
:1059D8004CD71F0A01E129D7010A01E113D7030AAD
:1059E80001E115D7010A01E117D7070A01E146D7F6
:1059F800010A01E147D7030A01E148D7010A01E199
:105A080049D70F0A01E14AD7010A01E153D7030A2E
:105A180001E154D7060A01E155D7010A01E157D738
:105A2800030A01E158D7010A01E15AD73F0A01E107
:105A38005BD7010A01E15DD7030A01E15ED7010ADC
:105A480001E160D7630A01E165D7010A01E166D780
:105A5800030A01E167D7010A01E1D0D6070A01E18B
:105A680066D7010A01E168D7030A01E169D7010A8B
:105A780001E16AD70D0A01E16CD7010A01E177D784
:105A88007BD7A96AAA6AF70E056E066A086A020E2B
:105A9800076EB7EC46F00001F85103E1C90EF75D57
:105AA80005E3F86B190EF76FF3EF27F0F50E056EA7
:105AB800066A086A020E076EB7EC46F0F30E056E2A
:105AC800066A086A020E076EB7EC46F0CA0E056E43
