:020000040000FA
:04000000E9EF00F034
:100008005B82D9CF03F0DACF04F01CD0AECF58F022
:1000180001014E514D114C1103E1040E4B5D01E3FA
:10002800816B320E811901E18107940E8125D96E09
:10003800DA6A020EDA2258C0DFFF812B4B6B4C6B59
:100048004D6B4E6B9EBAE2D79EB89DA845D0AF0EB9
:1000580001017D25D96EDA6A030EDA22DF50AD6E12
:100068007D2B7C517D1903E0320E7D1902E19D98AC
:100078007D6B4B6B4C6B4D6B4E6B2ED071B4D0A21D
:1000880008D05A5006E174CF58F0585004E1FF00E8
:1000980002D074CF58F0D08258C073FF320E0101DD
:1000A800801901E18007080E581804E1805102E028
:1000B800800712D00D0E581803E00A0E581803E1F5
:1000C800586A80297E6F300E8025D96EDA6A020E52
:1000D800DA2258C0DFFF802BA4BAD0D76ED0000137
:1000E800E75157E0595003E1020E5A1829E0580E1B
:1000F80001015D5D020E5E5902E2899801D089888E
:10010800898A5D51016E5E51026E5D4B5E2BBD0E9C
:10011800015C020E025811E3010E82A2000E7B1947
:1001280008E1890E5D5D130E5E5907E35D6B5E6B3A
:1001380004D0020E5E6FBC0E5D6F5F6B606B29D0E2
:10014800580E01015F5D020E605903E28988899AA1
:1001580002D08988898A5F51016E6051026E5F4BB7
:10016800602BBD0E015C020E025811E3010E82A243
:10017800000EC61908E1890E5F5D130E605907E38A
:100188005F6B606B04D0020E606FBC0E5F6F5D6BBF
:100198005E6B01014F2B000E5023512352234B2B32
:1001A8004C234D234E237407742906E171C167FF60
:1001B8000A0E746F010E736F7E907EB090D704C0E4
:1001C800DAFF03C0D9FF5B921100B7EF39F051EFA6
:1001D80008F0250E3F1830E02050D96EDA6A020E7A
:1001E800D926DE50DE1013E02050D96EDA6A020EEE
:1001F800D92602D851EF08F00500FA6EDE50FD6EE0
:10020800DE50FE6EF850FF6EFA503F50120020503C
:10021800D96EDA6ADECF24F0DDCF25F024C0D9FF0D
:1002280025C0DAFF3FC0DFFF2050D96EDA6ADE2A28
:10023800000EDD2251EF08F03D6A3E6A406A416ACD
:1002480009D0408605D0408003D0418601D0408443
:10025800214A222A21C0F6FF22C0F7FFF86A0F0EB2
:10026800F76403D00800F55005D0F6CFE1FFF7CFCB
:10027800E2FFE750200AE7E0030AE7E00E0AE1E0C0
:100288001D0AE5E040B6409421C0F6FF22C0F7FF02
:10029800F86A0F0EF76403D00800F55005D0F6CFC2
:1002A800E1FFF7CFE2FFE750C7EC47F042E33D6AD2
:1002B8003E6A3DC005F03EC006F0086A0A0E076EA9
:1002C80017EC47F005C03DF006C03EF0D00E246E96
:1002D800256821C0F6FF22C0F7FFF86A0F0EF76401
:1002E80003D00800F55005D0F6CFE1FFF7CFE2FFC5
:1002F800E750266E276A24502626255027222650A6
:100308003D2627503E22214A222A21C0F6FF22C03C
:10031800F7FFF86A0F0EF76403D00800F55005D010
:10032800F6CFE1FFF7CFE2FFE750C7EC47F021E354
:10033800C0D721C0F6FF22C0F7FFF86A0F0EF76496
:1003480003D00800F55005D0F6CFE1FFF7CFE2FF64
:10035800E7502A0A0EE12350D96EDA6A020EDF2628
:10036800DF5CD96EDA6ADECF3DF0DECF3EF0214A9F
:10037800222A21C0F6FF22C0F7FFF86A0F0EF764A1
:1003880003D00800F55005D0F6CFE1FFF7CFE2FF24
:10039800E7502E0A6DE1418C214A222A21C0F6FF3E
:1003A80022C0F7FFF86A0F0EF76403D00800F55073
:1003B80005D0F6CFE1FFF7CFE2FFE7502A0A14E1B4
:1003C8002350D96EDA6A020EDF26DF5CD96EDA6A4C
:1003D800DECF3BF0DECF3CF03CAE03D03B6A3C6A5C
:1003E800419C214A222A76D13B6A3C6A2CD03BC0E8
:1003F80005F03CC006F0086A0A0E076E17EC47F0D5
:1004080005C03BF006C03CF0D00E246E256821C024
:10041800F6FF22C0F7FFF86A0F0EF76403D0080052
:10042800F55005D0F6CFE1FFF7CFE2FFE750266E93
:10043800276A245026262550272226503B26275057
:100448003C22214A222A21C0F6FF22C0F7FFF86A7F
:100458000F0EF76403D00800F55005D0F6CFE1FF82
:10046800F7CFE2FFE750C7EC47F001E233D1BFD73F
:100478003B6A3C6A2FD140882DD1408C5ED1408A9E
:10048800408E5BD12350D96EDA6A020EDF26DF5C1C
:10049800D96EDA6ADECF33F0DECF34F03350341061
:1004A80004E12B0E336EFC0E346E356A366A02D0C8
:1004B800354A362A35503324246E36503420256E7A
:1004C80024C0F6FF25C0F7FFF86A0F0EF76403D0C3
:1004D8000800F55005D0F6CFE1FFF7CFE2FFE7506F
:1004E8000009E6E13B503C100DE035503B5C3C50C8
:1004F800800A246E3650800A245804E23BC035F046
:100508003CC036F03D50355C3E50365805E235501B
:100518003D5E36503E5A02D03D6A3E6A40B685D0AE
:100528002CD02050D96EDA6A020ED926DE50DE10A1
:1005380011E02050D96EDA6A020ED92601D81DD0F2
:100548000500FA6EDE50FD6EDE50FE6EF850FF6E4E
:10055800FA50200C2050D96EDA6ADECF24F0DDCFB5
:1005680025F024C0D9FF25C0DAFF200EDF6E205009
:10057800D96EDA6ADE2A000EDD223D06D8A03E06D4
:100588003D28CFE13E2851E0CCD72050D96EDA6A19
:10059800020ED926DE50DE1024E02050D96EDA6A29
:1005A800020ED92601D81AD00500FA6EDE50FD6E6B
:1005B800DE50FE6EF850FF6EFA5033C0F6FF34C0BE
:1005C800F7FFF86A0F0EF76403D00800F55005D05E
:1005D800F6CFE1FFF7CFE2FFE7501200334A342AA3
:1005E80024D033C0F6FF34C0F7FFF86A2050D96E24
:1005F800DA6ADECF24F0DDCF25F024C0D9FF25C08C
:10060800DAFF0F0EF76403D00800F55005D0F6CFD7
:10061800E1FFF7CFE2FFE750DF6E334A342A20507C
:10062800D96EDA6ADE2A000EDD223506D8A0360633
:100638003528ABE13628A9E140A651EF08F02CD0C7
:100648002050D96EDA6A020ED926DE50DE1011E08B
:100658002050D96EDA6A020ED92601D81DD00500BD
:10066800FA6EDE50FD6EDE50FE6EF850FF6EFA50E8
:10067800200C2050D96EDA6ADECF24F0DDCF25F0C9
:1006880024C0D9FF25C0DAFF200EDF6E2050D96EB6
:10069800DA6ADE2A000EDD223D06D8A03E063D2895
:1006A800CFE13E2802E151EF08F0CAD72350D96EB6
:1006B800DA6ADF50DF2ADF2AD96EDA6ADF503F6E46
:1006C8003F0E336E346A366A010E356E0BD7C00E94
:1006D800401233D02150246E2250256E214A222AFE
:1006E80024C0F6FF25C0F7FFF86A0F0EF76403D0A1
:1006F8000800F55005D0F6CFE1FFF7CFE2FFE7504D
:100708003F6E3F5002E16CEF08F0580A01E1B7D69E
:100718003B0ACCE0070A11E00D0A0FE0050A01E1E7
:10072800AAD6030A01E1A9D61C0A01E1ABD6060A3A
:10073800CEE00D0A01E1A4D6C3D740C024F0C00E14
:10074800241631E140A811D02350D96EDA6A040E7C
:10075800DF26DF5CD96EDA6ADECF37F0DECF38F01D
:10076800DECF39F0DECF3AF011D02350D96EDA6AF5
:10077800DF50DF2ADF2AD96EDA6ADECF37F0DDCF25
:1007880038F0000E38BEFF0E396E3A6E3AAE30D0F1
:10079800030E40123A1E391E381E376C000E3822DE
:1007A80039223A2225D040A811D02350D96EDA6ACE
:1007B800040EDF26DF5CD96EDA6ADECF37F0DECFD3
:1007C80038F0DECF39F0DECF3AF012D02350D96EB0
:1007D800DA6ADF50DF2ADF2AD96EDA6ADECF24F040
:1007E800DDCF25F024C037F025C038F0396A3A6AE1
:1007F8003B503C105CE13750381039103A1057E143
:100808003B4A3C2A54D0010E3F6E0A0E3F1858E06E
:100818003F50040DC60EF324F66EDF0EF420F76E7B
:100828000900F550375C0900F55038580900F550B3
:1008380039580900F5503A5843E33F2AE6D7010EE4
:100848003F6E080E3F183CE03F50040DEE0EF324B7
:10085800F66EDF0EF420F76E0900F550375C0900DC
:10086800F55038580900F55039580900F5503A58EC
:1008780027E33F2AE6D7010E3F6E0B0E3F1820E014
:100888003F50040D9A0EF324F66EDF0EF420F76E37
:100898000900F550375C0900F55038580900F55043
:1008A80039580900F5503A580BE33F2AE6D740502B
:1008B800C00BA9E0400ADFE0C00AC1E0400AA3E09B
:1008C8003F50246E256A3B50245C2550800A266ED2
:1008D8003C50800A265803E23BC03FF00FD03F50FF
:1008E800246E256A24503B5C3C50800A266E2550B5
:1008F800800A265803E23FC03BF03C6A3D503E1058
:1009080008E040C024F0030E241603E03D06D8A0FA
:100918003E0641AC10D03D503B5C3C50800A246EF2
:100928003E50800A245805E23B503D5E3C503E5AFA
:1009380002D03D6A3E6AC40E246E080E256E40C081
:1009480026F041C027F02450261625502716400EC1
:1009580026180AE1080E271807E13D503E1024E04A
:100968003D06D8A03E0620D0C00E246E080E256E87
:1009780040C026F041C027F02450261625502716DF
:10098800800E261811E1080E27180EE13EBE0AD087
:100998003E5003E1030E3D5C05E3FE0E3D26FF0ECF
:1009A8003E2202D03D6A3E6A3F50246E256A3D5081
:1009B800245C2550800A266E3E50800A265805E29F
:1009C8003F503D5E000E3E5A02D03D6A3E6A40A44A
:1009D80003D140C024F0030E241626E02050D96E1F
:1009E800DA6A020ED926DE50DE1011E02050D96EE8
:1009F800DA6A020ED92601D8BBD00500FA6EDE509D
:100A0800FD6EDE50FE6EF850FF6EFA502D0C205031
:100A1800D96EDA6ADECF24F0DDCF25F024C0D9FF05
:100A280025C0DAFF2D0E27D040A027D02050D96E40
:100A3800DA6A020ED926DE50DE1011E02050D96E97
:100A4800DA6A020ED92601D893D00500FA6EDE5074
:100A5800FD6EDE50FE6EF850FF6EFA50200C2050EE
:100A6800D96EDA6ADECF24F0DDCF25F024C0D9FFB5
:100A780025C0DAFF200EDF6E75D0C00E246E080E7A
:100A8800256E40C026F041C027F024502616255078
:100A98002716800E26186CE1080E271869E12050E9
:100AA800D96EDA6A020ED926DE50DE1011E0205027
:100AB800D96EDA6A020ED92601D81DD00500FA6E61
:100AC800DE50FD6EDE50FE6EF850FF6EFA50300CB0
:100AD8002050D96EDA6ADECF24F0DDCF25F024C0AD
:100AE800D9FF25C0DAFF300EDF6E2050D96EDA6AE2
:100AF800DE2A000EDD222050D96EDA6A020ED926CF
:100B0800DE50DE101AE040BA03D02A6A780E02D00E
:100B18002A6A580E296E2050D96EDA6A020ED92632
:100B280001D826D00500FA6EDE50FD6EDE50FE6E4E
:100B3800F850FF6EFA502950120040BA03D02C6AC0
:100B4800780E02D02C6A580E2B6E2050D96EDA6AB5
:100B5800DECF24F0DDCF25F024C0D9FF25C0DAFF91
:100B68002BC0DFFF2050D96EDA6ADE2A000EDD22A4
:100B78003D503E1001E151D22050D96EDA6A020E82
:100B8800D926DE50DE1011E02050D96EDA6A020E46
:100B9800D92601D81DD00500FA6EDE50FD6EDE5054
:100BA800FE6EF850FF6EFA50300C2050D96EDA6A9B
:100BB800DECF24F0DDCF25F024C0D9FF25C0DAFF31
:100BC800300EDF6E2050D96EDA6ADE2A000EDD2282
:100BD8003D06D8A03E06CCD73D503E1034E040B686
:100BE80032D02050D96EDA6A020ED926DE50DE10D5
:100BF80011E02050D96EDA6A020ED92601D81DD02C
:100C08000500FA6EDE50FD6EDE50FE6EF850FF6E87
:100C1800FA50200C2050D96EDA6ADECF24F0DDCFEE
:100C280025F024C0D9FF25C0DAFF200EDF6E205042
:100C3800D96EDA6ADE2A000EDD223D06D8A03E060D
:100C48003D503E10CEE140C024F0030E241626E0AD
:100C58002050D96EDA6A020ED926DE50DE1011E075
:100C68002050D96EDA6A020ED92601D845D005007F
:100C7800FA6EDE50FD6EDE50FE6EF850FF6EFA50D2
:100C88002D0C2050D96EDA6ADECF24F0DDCF25F0A6
:100C980024C0D9FF25C0DAFF2D0E27D040A02CD0C4
:100CA8002050D96EDA6A020ED926DE50DE1011E025
:100CB8002050D96EDA6A020ED92601D81DD0050057
:100CC800FA6EDE50FD6EDE50FE6EF850FF6EFA5082
:100CD800200C2050D96EDA6ADECF24F0DDCF25F063
:100CE80024C0D9FF25C0DAFF200EDF6E2050D96E50
:100CF800DA6ADE2A000EDD22C00E246E080E256E8A
:100D080040C026F041C027F024502616255027164B
:100D1800400E26182AE1080E271827E12050D96E20
:100D2800DA6A020ED926DE50DE1011E02050D96EA4
:100D3800DA6A020ED92601D870D10500FA6EDE50A3
:100D4800FD6EDE50FE6EF850FF6EFA50300C2050EB
:100D5800D96EDA6ADECF24F0DDCF25F024C0D9FFC2
:100D680025C0DAFF300EDF6E52D1C00E246E080E99
:100D7800256E40C026F041C027F024502616255085
:100D88002716800E26186DE1080E271801E045D1B8
:100D98002050D96EDA6A020ED926DE50DE1011E034
:100DA8002050D96EDA6A020ED92601D81DD0050066
:100DB800FA6EDE50FD6EDE50FE6EF850FF6EFA5091
:100DC800300C2050D96EDA6ADECF24F0DDCF25F062
:100DD80024C0D9FF25C0DAFF300EDF6E2050D96E4F
:100DE800DA6ADE2A000EDD222050D96EDA6A020E97
:100DF800D926DE50DE101AE040BA03D02E6A780EEB
:100E080002D02E6A580E2D6E2050D96EDA6A020E64
:100E1800D92601D802D10500FA6EDE50FD6EDE50EB
:100E2800FE6EF850FF6EFA502D50120040BA03D0F3
:100E3800306A780E02D0306A580E2F6E2050D96E64
:100E4800DA6ADECF24F0DDCF25F024C0D9FF25C033
:100E5800DAFF2FC0DFFF2050D96EDA6ADE2A000ED3
:100E6800DD22DBD03BC024F03CC025F0D8902436EE
:100E78002536D89024362536C60E2424F66EDF0E85
:100E88002520F76E0900F5CF09F00900F5CF0AF023
:100E98000900F5CF0BF00A00F5CF0CF037C005F0CC
:100EA80038C006F039C007F03AC008F0B8EC40F096
:100EB80005C017F006C018F007C019F008C01AF0EE
:100EC8000A0E1B6E1C6A1D6A1E6A95EC41F01750CB
:100ED80069D037C005F038C006F039C007F03AC00D
:100EE80008F03BC024F03CC025F0D89024362536C5
:100EF800D89024362536EE0E2424F66EDF0E2520F3
:100F0800F76E0900F5CF09F00900F5CF0AF00900DE
:100F1800F5CF0BF00A00F5CF0CF0B8EC40F0055017
:100F28000F0B286E40BA04D0110E316EFA0E03D0A2
:100F3800000E316EFA0E326E28503124246E000EE7
:100F48003220256E24C0F6FF25C0F7FF0800F5CF34
:100F58003FF036D037C005F038C006F039C007F08A
:100F68003AC008F03BC024F03CC025F0D8902436A5
:100F78002536D890243625369A0E2424F66EDF0EB0
:100F88002520F76E0900F5CF09F00900F5CF0AF022
:100F98000900F5CF0BF00A00F5CF0CF0B8EC40F0E3
:100FA8000550070B300F3F6E0BD04050C00B01E1CE
:100FB80059D7400ACFE0C00A8CE0400A01E152D775
:100FC8002050D96EDA6A020ED926DE50DE1012E001
:100FD8002050D96EDA6A020ED92601D81ED0050033
:100FE800FA6EDE50FD6EDE50FE6EF850FF6EFA505F
:100FF8003F5012002050D96EDA6ADECF24F0DDCFE0
:1010080025F024C0D9FF25C0DAFF3FC0DFFF2050FC
:10101800D96EDA6ADE2A000EDD223B06D8A03C062D
:101028003B28C3E13C28C1E140B63EBE36D03E5025
:1010380002E13D0432E32050D96EDA6A020ED92665
:10104800DE50DE1011E02050D96EDA6A020ED92681
:1010580001D81DD00500FA6EDE50FD6EDE50FE6E22
:10106800F850FF6EFA50200C2050D96EDA6ADECFA5
:1010780024F0DDCF25F024C0D9FF25C0DAFF200EEB
:10108800DF6E2050D96EDA6ADE2A000EDD223D06B8
:10109800D8A03E063D503E10CEE12150246E22508D
:1010A800256E214A222A24C0F6FF25C0F7FFF86AD8
:1010B8000F0EF76403D00800F55005D0F6CFE1FF16
:1010C800F7CFE2FFE7503F6E3F5002E0EDEF00F050
:1010D800206A216A12000401A16BA26B050EA06FA1
:1010E8008D6B9F6B8C6B010E7C6F7D6B010E8B6F14
:1010F80024EE92F00B0EDE6AE806FDE224EE7EF0A6
:101108000B0EDE6AE806FDE2080EA36F8E6B8F6B8E
:10111800906B916B786B796B7A6B7B6B020E9E6F21
:10112800D7EC3CF0F2EC2CF00A0E0001EF03F3CF01
:10113800CFF1F4CFD0F1F003F3500101D027CFC1A4
:10114800D2F0D0C1D3F0E1EC47F08986F3EC40F05F
:1011580086EC46F0D08202EC33F00401A56F020E53
:10116800A51902E1800E596E0001DB5102E036EC50
:1011780037F001017E5102E0CAEC0FF06A510FE02E
:101188004E514D114C1103E1070E4B5D08E38A8A5D
:10119800066A010E056E69EC44F09D886A6B7D5104
:1011A80002E1ACB28A9AFAEC3EF0A30E946E00F01B
:1011B80000F08250210B0401A56FA539E8461F0BEA
:1011C8000101C56F0401A551A525020B0101C51335
:1011D8008150010BC513820E946E070EC51903E1E9
:1011E800C451C51903E0C55152EC1AF0010E7865D7
:1011F8001CD0230E786119D0880E4725CF6F130EA7
:101208004821D06F000E4921D16F000E4A21D26FBC
:101218004F51CF5D5051D0595151D1595251D25996
:1012280004E2775102E1FEEC3AF078512CE1060E27
:10123800C51929E10001E85126E004018A5123E19A
:10124800020E0001E5611FD0030EE4191CE1E81D40
:10125800030BE86FDE0E5916576A6A6B696BFAEC76
:1012680045F00101796B0001E50509E1666BA80EFF
:10127800656FE8C067F0686B090E9CEC46F0050ED8
:1012880004018A6F09D004018A5106E0070E0101A2
:10129800C51902E104018A07010E81A4000E0401A8
:1012A8008B1903E1A15101E1DCD07D2B7D05010102
:1012B800CF6F060ECF6104D00401A15101E1D3D054
:1012C800000E81B4010E04018B6F8B516BE0C1D00D
:1012D80001016D5105E06D6B000E1EEC45F06DD0FF
:1012E800010E01016D6F69D00401A1510AE1010EDF
:1012F800A16F4FC178F450C179F451C17AF452C149
:101308007BF4A1515AE0DC0E78250101CF6F050E60
:10131800040179210101D06F000E04017A21010135
:10132800D16F000E04017B210101D26F4F51CF5DB7
:101338005051D0595151D1595251D2593EE2020E11
:101348005A183BE1000E1EEC45F00001DB5102E1AA
:101358000F0E576E020E0401A16F2FD0020EE8196E
:1013680006E1010EE86F6A6B696BFAEC45F0000163
:10137800E50523E1E85121E0666BA80E656FE8C03A
:1013880067F0686B090E9CEC46F017D0020E5A18ED
:1013980014E1000E1EEC45F00001DB510EE10F0ECA
:1013A800576E0BD00001E451010A92E0030A98E05D
:1013B800010A9AE0070AD2E0E9D70001E30504E14F
:1013C80059B881B201D059983C0E01017A6F8986CB
:1013D80048D001016D6B000E1EEC45F042D0020EA4
:1013E8000401A11921E00001E80502E1020E04D080
:1013F800020EE81902E1010EE86FDE0E5916576A6F
:101408006A6B696BFAEC45F00101796B0001E5053F
:101418000BE1E85109E0666BA80E656FE8C067F05C
:10142800686B090E9CEC46F00401A16B1AD0E80524
:1014380002E1020EE86FE50514E1E85112E0666B7F
:10144800A80E656FE8C067F0686B090E9CEC46F063
:1014580008D00001E451020ABCE0010AC0E0070A12
:10146800E6E004017D6B0001E3050AE181B281A297
:1014780007D0000E1EEC45F0100E596E0101796B75
:101488005A5004E0040E5A1801E081D0BD6A8284E3
:101498008A980101296B7DEC42F00401A46FA40530
:1014A80011E1040E5A1803E1000E1EEC45F0599A9A
:1014B8005990576A0101826904019E5168E1010E41
:1014C8009E6F65D0020EA41903E0020EA4195DE117
:1014D80059505BE1575059E101016D5156E0040E36
:1014E8005A1853E082054CE10401A22BA205010120
:1014F800CF6F190ECF654BD004018D6B7FEC3FF099
:10150800ED51D65DEE51D75908E20A0ED603F3CF56
:10151800CFF1F4CFD0F1D70307D00A0EED03F3CF04
:10152800CFF1F4CFD0F1EE03F3500101D027CFC1B2
:1015380067F1D0C168F1010E0001E56504D0040E21
:101548001EEC45F024D00A0ED603F3CFCFF1F4CF2A
:10155800D0F1D703F3500101D027CFC120F2D0C179
:1015680021F267C1A6F168C1A7F1010E296F1EEC2F
:1015780045F01E0E04019F6F3C0E01017A6F07D0E3
:10158800010E826F0401A26B02D001018269050E6F
:101598005A1809E1010E1EEC45F01E0E04019F6F5A
:1015A8003C0E01017A6F5A0404E0060E5A1801E055
:1015B8009BD0070EBC6482D0180EBC607FD07DEC37
:1015C80042F00401A46FA40514E1010182510FE166
:1015D8000401A22BA2050101CF6F190ECF656ED0B1
:1015E800000E1EEC45F03C0E01017A6F67D0826B4D
:1015F80056D0030EA41956E1020E010182194CE1DE
:1016080004018D0549E1A22BA2050101CF6F190E36
:10161800CF6554D0595052E1575050E10001DF5185
:101628000CE004019E5109E08EC43FF18FC440F1E3
:1016380090C441F191C442F19E6B010E0001E56531
:1016480007D0060E5A183AE0060E1EEC45F036D0C2
:1016580067C120F268C121F22EEC32F000091AE0CD
:10166800020E0101296FA66BA76B010E7EEC1DF01F
:101678008A8804019F698D6B020E1EEC45F00101FA
:10168800796B4F6B506B516B526B785117E10BECC8
:1016980016F014D0598012D0020E0101826F040195
:1016A800A26B0CD09F5108E1080E1EEC45F0030E0A
:1016B80004018C6FBD6A829401018269E60EBC64E4
:1016C80013D0F10EBC64FDD7BC640ED0F90EBC601B
:1016D8000BD07DEC42F00401A46F040EA41903E1C1
:1016E800010E8D6F01D08D6B080E5A1809E10401A7
:1016F8008C5106E1010E1EEC45F0828404019F69BD
:10170800070E5A1813E18A8804018D6B020E1EEC2D
:1017180045F004019F6901018269796B4F6B506B39
:10172800516B526B785102E10BEC16F0020E5A180D
:101738004DE1070EBC644AD0180EBC6047D07DEC62
:1017480042F00401A46FA40502E0A4511AE10101CA
:10175800825115E10401A22BA2050101CF6F190ED8
:10176800CF6534D08A98000E1EEC45F0F3EC40F0BB
:10177800020E0001E5612AD00101296B27D0826B96
:1017880020D0020EA41920E10101820518E104010C
:10179800A22BA2050101CF6F190ECF6517D08A9829
:1017A800010E1EEC45F0F3EC40F004018D6B020EC7
:1017B8000001E5610BD0010E0101296F07D0010E70
:1017C800826F0401A26B02D001018269ABA202D030
:1017D800AB98AB8871A202D071987188D6CFA5F466
:1017E8003C0ED764B9D00101822904E0020E5A18D0
:1017F80001E1B2D0D76AD66A49EC44F03DEC39F041
:101808005A0404E104019F2901E09F07080E5A18B1
:1018180004E104018C5101E08C070001D051D11181
:101828000CE0D007D8A0D107D051D11106E1000EA5
:101838001EEC45F0598AE2EC45F0575001E0570696
:101848000001DC51800A490F02E259B4599459C089
:10185800CFF1210E0101CF1714E0020E0001E5615E
:1018680010D02EEC32F000090CE05990599A000182
:10187800666BA10E656F59C067F0686B090E9CEC2A
:1018880046F00401A05110E159B20ED05982000E61
:101898001EEC45F0AC0E00016D6FF80E6E6F2AEC71
:1018A80047F0E2EC45F003D0A05101E0A0070001A9
:1018B800DC51800A3F0F14E359B412D05984000E4A
:1018C8001EEC45F0E50E00016D6FF80E6E6FDC51F1
:1018D8006F6F706B6FBF70072AEC47F0E2EC45F052
:1018E80059C0CFF1210E0101CF171AE0020E0001F5
:1018F800E81909E157500FE1C90E6D6FF80E6E6FC8
:101908002AEC47F008D0575006E1DF0E6D6FF70E4E
:101918006E6F2AEC47F0000E1EEC45F03C0E576E39
:101928000BEC16F0020E0001E56116D004017C07ED
:101938007C2912E10001E85104E0010E0101706FF9
:1019480008D0D46BD56B050E0101706F0A0E040127
:10195800A06F010E04017C6F0101705101E1D9D023
:101968004E514D114C1105E1640E4B5D01E3A7D0BA
:10197800D0D0A5D00001E15106E0F2C06AF0E151F3
:101988003DEC3FF0C6D00101702BF3C06AF00001B6
:10199800F4513DEC3FF0BDD0010E216FDFC000F2E5
:1019A8000201016BF1C002F2036B0401A32B070EC5
:1019B800A36501D0A36B210EA325D96EDA6A010EA7
:1019C800DA22DF50F2E0A351040D000EF324D96EA1
:1019D800020EF420DA6EDE50DE1018E0A351040D7A
:1019E800020EF324D96E020EF420DA6EDF500001E5
:1019F8006A6F0401A351040D000EF324D96E020E80
:101A0800F420DA6EDF50C5EC44F083D00101702B6E
:101A18000401A351040D000EF324D96E020EF42024
:101A2800DA6EDE50DE1018E0A351040D020EF32426
:101A3800D96E020EF420DA6EDF5000016A6F0401DD
:101A4800A351040D000EF324D96E020EF420DA6EB1
:101A5800DF50A7EC44F05DD00101702B0001E505D3
:101A680006E101017051FB0FC7EC46F052D00B0E96
:101A78000101706F0001E50506E101017051F40FE5
:101A880017EC2EF046D00001E85104E059A2B0EC62
:101A980036F012D0000E7EEC1DF0E50502E1D5EC23
:101AA80047F05A0403E0020E5A1806E1A6C136F0C0
:101AB800A7C137F042EC38F00101706B2AD0702BC7
:101AC8007005010A01E156D7030A01E15ED7010A50
:101AD80001E162D7070A9CE0010AC0E0030ABEE000
:101AE800010ABCE00F0ABAE0010AB8E0030AB6E04E
:101AF800010AB4E0070ABEE0010ABCE0030ABAE042
:101B0800010AB8E01F0AB6E0010AB4E0030AB2E02D
:101B1800BAD70101815101E12DD24E514D114C111D
:101B280004E1040E4B5D01E225D2620E056E020E41
:101B3800066E940E076E020E086E81C109F00A6ADD
:101B480051EC42F081C17FF10101816B620E00010D
:101B5800776F020E786F7FC179F00EEC23F0030ED9
:101B680001010B1901E15BD162D10001E15122E0D1
:101B7800F251010100191EE10001E151190D100E89
:101B8800F324D96E030EF420DA6EDE500101021937
:101B980011E1DE5003190EE108C169F009C16AF0CC
:101BA800E1C06BF07E0E00016C6F040E6D6F4EECA1
:101BB80020F0E0D10001F3510101001901E0A9D0A2
:101BC8000001F451190D100EF324D96E030EF42000
:101BD800DA6EDE500101021903E1DE500319D8A4C0
:101BE80098D008C169F009C16AF0F4C06BF0920E90
:101BF80000016C6F040E6D6F4EEC20F00401A56FB0
:101C0800A55107E0020E0001E56103D00A0E0401A8
:101C1800A06F0101616B626B0401A56B020EA565E3
:101C280001D0A8D10001E1513FE00401A551040D04
:101C38007E0EF324D96E040EF420DA6EDECFCFF1D7
:101C4800DECFD0F1DECFD1F1DECFD2F1A551040D38
:101C5800920EF324D96E040EF420DA6EDECFD3F19F
:101C6800DECFD4F1DECFD5F1DECFD6F10101CF51F1
:101C7800D35DD76FD051D459D86FD151D559D96FB9
:101C8800D251D659DA6F0401A551040D920EF324EE
:101C9800D96E040EF420DA6ED7C1DEFFD8C1DEFF9C
:101CA800D9C1DEFFDAC1DEFF0401A551040D920E91
:101CB800F324D96E040EF420DA6EDECF05F0DECF01
:101CC80006F0DECF07F0DECF08F0640E096E0A6A70
:101CD8000B6A0C6AC5EC3BF00401A551020D310EEC
:101CE800F324D96E010EF420DA6E05C0DEFF06C0BB
:101CF800DDFFA551020D310EF324D96E010EF4203B
:101D0800DA6EDE5001016127DD5062230401A52B44
:101D180085D70001DF5146E0F1510101001942E188
:101D28000001DF51190D160EF324D96E030EF420AD
:101D3800DA6EDE500101021935E1DE50031932E195
:101D480008C146F009C147F0DFC048F0C6EC41F0D1
:101D580046C08EF447C08FF448C090F449C091F44F
:101D6800020E04019E1908E18EC43FF18FC440F1B0
:101D780090C441F191C442F101013F5104018E5DCB
:101D88000101436F405104018F590101446F4151D2
:101D9800040190590101456F425104019159010113
:101DA800466FE8D00001DF5125E0F151010100192B
:101DB80021E10001DF51190D130EF324D96E030E32
:101DC800F420DA6EDE500101021914E1DE50031925
:101DD80011E108C146F009C147F0DFC048F0F5EC51
:101DE80041F046C03BF147C03CF148C03DF149C015
:101DF8003EF1C0D0010E01010065BCD0090E0061A2
:101E0800B9D0A00E0219031101E0B4D008C105F041
:101E180009C106F00005076E2AEC3AF0ABD0015173
:101E2800030A01E1A2D6070A01E19FD6A3D0020E58
:101E38000B1901E188D094D00001E5510101001986
:101E480001E098D02DEC41F095D00A0E00190FE171
:101E5800A80E021903110BE14F0E061908E1490EED
:101E6800071905E10001DB5102E1DB6983D0090EA6
:101E78000101001905E00001E551010100197AE1AD
:101E8800C0EC3FF077D0090E001905E00001E551DC
:101E9800010100196FE10205031152E1010E000171
:101EA800E5654ED0E5510101CF6FD06BD890CF37A3
:101EB800D03721EE08F0DECFD1F1DDCFD2F1CF510E
:101EC800D127D051D223FE0ED125D96EFF0ED221B3
:101ED800DA6EDF50D46FD36B0001E5510101D56F85
:101EE800D66BD890D537D63721EE08F0DECFD7F1AC
:101EF800DDCFD8F1D551D727D651D823FF0ED72516
:101F0800D96EFF0ED821DA6EDF50D311A66FD451E7
:101F1800A76FA61107E1020E5A1804E1000E1EEC85
:101F280045F00BD05A0403E0020E5A1806E1A6C188
:101F380036F0A7C137F042EC38F00A0E0401A06F62
:101F4800C0EC38F017D00151030A01E175D7070A30
:101F580001E172D7020A01E178D7160A94E00AD0A3
:101F6800040E0B1907E0550E00016D6FFA0E6E6F27
:101F78002AEC47F059A2B8EF08F00A0E0401A0199C
:101F880002E0B8EF08F05992B8EF08F06BEC26F0D1
:101F9800B26F970E6D6FF30E6E6F2AEC47F000016B
:101FA800DD514BE1B86B22D0300E056E020E066E85
:101FB800830EB825D96EDA6A010EDA22DF504B0D8E
:101FC8000E0EF324076EE00EF420086E87EC3DF049
:101FD8000550061009E1830E0001B825D96EDA6AAA
:101FE800010EDA22DF50DD6F0001B82BA969AA695A
:101FF800B251AB6FAC6BA951AB27AA51AC23B85106
:10200800AD6FAE6BAB51AD5DAE51800AAF6FAC51E9
:10201800800AAF59C9E3300E056E020E066E630ED4
:10202800076EFC0E086E87EC3DF00550061001E0C7
:102038005DD2320E0001DD6F59D20201305101E04C
:1020480028D20001DD6B52D2B76B300EB725D96E9E
:10205800DA6A020EDA22DF50B86F2E0EB81915E1CF
:10206800310EB725D96EDA6A020EDA22300EB7259C
:10207800E16EE26A020EE222DFCFE7FF310EB725FA
:10208800D96EDA6A020EDA22DF6AB72BB851DDE1BF
:10209800300E086E020E096E23EC3CF008C0B3F057
:1020A80009C0B4F00001B45103E13C0EB35D05E38F
:1020B800210EB35D030EB45907E31E0E6D6FF70EC4
:1020C8006E6F2AEC47F00DD2B351A96FB451AA6FC5
:1020D800AB6BAC6B0A0EA903F3CFADF0F4CFAEF047
:1020E800AF6BB06BAA03F350AE27F450AF23000ECA
:1020F800B023A903F350AE27F450AF23000EB0234A
:102108000A0EAB03F350AF27F450B023000EAA0316
:10211800F350AF27F450B023000EA903F350AF27B4
:10212800F450B0230A0EAC03F350B027000EAB03F3
:10213800F350B027000EAA03F350B027000EA903EE
:10214800F350B0270A0ED890AD37AE37AF37B03757
:10215800E82EF9D7000EAD25056E140EAE21066ED9
:10216800000EAF21076E000EB021086E59C109F0AC
:102178005AC10AF00B6A0C6AB8EC40F005C0C7F106
:1021880006C0C8F107C0C9F108C0CAF1D4EC27F0ED
:10219800A8D1300E056E020E066E220E076EFB0EDB
:1021A800086E87EC3DF00550061002E1020E0ED0D5
:1021B800300E056E020E066ECF0E076EFC0E086E10
:1021C80087EC3DF00550061004E1010E0001E86FB0
:1021D800DDD7300E056E020E066E780E076EFC0E09
:1021E800086E87EC3DF00550061001E07AD1000139
:1021F800E86BD4EC27F0596A74D1300E056E020EE4
:10220800066ECA0E076EFB0E086E87EC3DF0055091
:10221800061002E1010E0ED0300E056E020E066E9B
:10222800C90E076EFC0E086E87EC3DF005500610CF
:1022380004E1020E0001E76FA9D7300E056E020E09
:10224800066E0B0E076EFC0E086E87EC3DF005500F
:10225800061001E046D10001E76B98D7300E056EF5
:10226800020E066EC30E076EFC0E086E87EC3DF07C
:102278000550061004E1010E0001E66F87D7300E05
:10228800056E020E066E7F0E076EFC0E086E87EC5A
:102298003DF00550061001E024D10001E66B76D729
:1022A800B86B300E056E020E066EB851090DF40EAD
:1022B800F324076EEF0EF420086E87EC3DF005500E
:1022C800061004E1B8C0E5F0D4EC27F00001B82B03
:1022D800080EB865E6D705D1B86B300E056E020E4C
:1022E800066EB8510A0D770EF324076EF00EF4202F
:1022F800086E87EC3DF00550061004E1B8C0E4F024
:10230800D4EC27F00001B82B040EB865E6D7E9D065
:10231800B86B300E056E020E066EB8510A0DA90E86
:10232800F324076EF00EF420086E87EC3DF005509C
:10233800061004E1B8C0E0F0D4EC27F00001B82B97
:10234800010EB865E6D7CDD0300E056E020E066ECA
:102358000B0E076EFC0E086E87EC3DF0055006105C
:1023680003E10001E36B12D7300E056E020E066E14
:10237800710E076EFC0E086E87EC3DF005500610D6
:1023880001E0AFD0010E0001E36F00D7B86B300E4B
:10239800056E020E066EB851190D000EF324076E75
:1023A800030EF420086E87EC3DF0055006100EE190
:1023B8000001B80503E10D0EDD1908E0B8C078F09A
:1023C800796BDD517DEC2AF0D4EC27F00001B82BB5
:1023D800060EB865DCD785D0300E056E020E066E87
:1023E800EA0E076EFC0E086E87EC3DF005500610ED
:1023F80003E10001E26BCAD6300E056E020E066ECE
:10240800E50E076EFC0E086E87EC3DF005500610D1
:1024180068E1010E0001E26FB9D6B86B300E056EA7
:10242800020E066EB8510A0D450EF324076EF00E23
:10243800F420086E87EC3DF00550061004E1B8C0A2
:10244800DEF0D4EC27F00001B82B040EB865E6D70F
:1024580048D0300E086E020E096E23EC3CF008C01E
:10246800B5F009C0B6F0B5C078F0B6C079F0000193
:10247800DD517DEC2AF00001B16FD4EC27F00001AA
:10248800B1512FE1550E6D6FF80E6E6F2AEC47F0C3
:1024980028D00001DD51020A01E1E0D6010A01E17C
:1024A800FFD6050A01E1A9D60F0A01E115D7030AEB
:1024B80001E14AD7060AB1E0010A01E167D71D0A1E
:1024C80001E167D6020A01E1BFD5010A01E15ED741
:1024D800060A82E0030A01E159D7370A01E118D751
:1024E800B8D70001DD6B6BEC26F0B26F0E0E000161
:1024F800DD6536D3230EDD6133D3330E6D6FFA0EEF
:102508006E6FDD514B0D110EF326000EF4220E0EE8
:10251800F3246F6FE00EF420706FDD51D7EC24F0D8
:102528004EC071F04FC072F02AEC47F019D3060E76
:102538006D6FF30E6E6F2AEC47F0860E00016D6F1B
:10254800FB0E6E6F2AEC47F0490E00016D6FF70E17
:102558006E6F2AEC47F0730E00016D6FF70E6E6F09
:10256800DC516F6F706B6FBF70075BC171F05CC13E
:1025780072F02AEC47F0510E00016D6FF30E6E6F8A
:102588002AEC47F00001B86B8CD0440E6D6FFA0E40
:102598006E6F830EB825D96EDA6A010EDA22DF5023
:1025A8004B0D0E0EF3246F6FE00EF420706F830E48
:1025B800B825D96EDA6A010EDA22DF504B0D110EFA
:1025C800F326000EF4220E0EF324716FE00EF420B1
:1025D800726F2AEC47F0830E0001B825D96EDA6ACB
:1025E800010EDA22120EDE1844E1B76B020EB7654F
:1025F80001D04ED0630E6D6FFA0E6E6FB7296F6FF4
:10260800706B000E7023B751020D310EF324D96E92
:10261800010EF420DA6EDECF05F0DDCF06F0086A91
:102628000A0E076E7CEC40F005C071F006C072F02F
:102638000001B751020D310EF324D96E010EF420BA
:10264800DA6EDECF13F0DDCF14F0EFEC46F013C0F6
:1026580017F014C018F01A6A0A0E196E88EC44F0C4
:1026680017C073F018C074F02AEC47F00001B72BBC
:10267800BDD7830EB825D96EDA6A010EDA22DF508B
:10268800D7EC24F04EC06DF04FC06EF02AEC47F046
:10269800970E00016D6FF30E6E6F2AEC47F0000184
:1026A800B82BA969AA69B251AB6FAC6BA951AB271A
:1026B800AA51AC23B851AD6FAE6BAB51AD5DAE5105
:1026C800800AAF6FAC51800AAF5901E25ED7F80EAD
:1026D8006D6FFC0E6E6F2AEC47F095D2A00E6D6FF1
:1026E800F50E6E6FDD51D7EC24F04EC06FF04FC081
:1026F80070F02AEC47F087D2640E6D6FF50E6E6F9E
:10270800DD51D7EC24F04EC06FF04FC070F02AECCA
:1027180047F079D2C80E6D6FF10E6E6FCDC16FF0B4
:10272800CEC170F02AEC47F06ED2DF0E6D6FF30E5B
:102738006E6FCBC16FF0CCC170F02AEC47F063D25A
:102748006C0E6D6FF20E6E6FC0C16FF0C1C170F08C
:102758002AEC47F058D2DC0E6D6FF50E6E6FDD5126
:10276800D7EC24F04EC06FF04FC070F0F40E0001AB
:10277800716FEF0E726F2AEC47F0010E0001B86F0F
:10278800EE0E6D6FFC0E6E6FB851090DF40EF3244A
:102798006F6FEF0EF420706F2AEC47F00001B82B32
:1027A800080EB865EDD7A40E6D6FF40E6E6F2AECA7
:1027B80047F029D2A80E6D6FF40E6E6F2AEC47F021
:1027C800F10E00016D6FF60E6E6F2AEC47F0660E83
:1027D80000016D6FF40E6E6FEFC06FF0F0C070F017
:1027E8002AEC47F010D2990E6D6FF30E6E6FEBC0A6
:1027F8006FF0ECC070F02AEC47F005D2A80E6D6FB0
:10280800F40E6E6F2AEC47F0F10E00016D6FF60EB4
:102818006E6F2AEC47F0E70E00016D6FF40E6E6FD5
:10282800EDC06FF0EEC070F02AEC47F0ECD1A80EC6
:102838006D6FF40E6E6F2AEC47F0F10E00016D6FAC
:10284800F60E6E6F2AEC47F0230E00016D6FF40E42
:102858006E6FE9C06FF0EAC070F02AEC47F0D3D190
:10286800BA0E6D6FF20E6E6FDD51D7EC24F04EC0CC
:102878006FF04FC070F02AEC47F0C5D1260E6D6F8F
:10288800F50E6E6FDD51D7EC24F04EC06FF04FC0DF
:1028980070F0770E0001716FF00E726F2AEC47F03E
:1028A800010E0001B86FEE0E6D6FFC0E6E6FB85121
:1028B8000A0D770EF3246F6FF00EF420706F2AEC78
:1028C80047F00001B82B040EB865EDD7A40E6D6F64
:1028D800F40E6E6F2AEC47F096D1100E6D6FF10E64
:1028E8006E6FDD51D7EC24F04EC06FF04FC070F022
:1028F8002AEC47F088D16C0E6D6FF10E6E6FDD51CA
:10290800D7EC24F04EC06FF04FC070F02AEC47F0BF
:102918007AD14E0E6D6FF60E6E6F31C105F032C171
:1029280006F0086A0A0E076E7CEC40F005C06FF0EE
:1029380006C070F031C113F032C114F0EFEC46F06C
:1029480013C017F014C018F01A6A0A0E196E88EC32
:1029580044F017C071F018C072F02AEC47F053D158
:10296800ED0E6D6FF90E6E6F000E6F6F030E706FC8
:102978002AEC47F0010E0001B86FB80503E10D0E0F
:10298800DD190EE0EE0E6D6FFC0E6E6FB851190D6D
:10299800000EF3246F6F030EF420706F2AEC47F0DB
:1029A8000001B82B060EB865E8D7A40E6D6FF40EBB
:1029B8006E6F2AEC47F027D1BC0E6D6FF60E6E6F66
:1029C8002AEC47F020D11C0E6D6FF20E6E6F2AECC8
:1029D80047F019D1860E6D6FF60E6E6F2AEC47F030
:1029E80012D1150E6D6FF60E6E6FDD51D7EC24F017
:1029F8004EC06FF04FC070F0450E0001716FF00EC1
:102A0800726F2AEC47F0010E0001B86FEE0E6D6F81
:102A1800FC0E6E6FB8510A0D450EF3246F6FF00E61
:102A2800F420706F2AEC47F00001B82B040EB8654B
:102A3800EDD7A40E6D6FF40E6E6F2AEC47F0E3D05D
:102A4800B56BB66BB6515FE1080EB55D5CE2DA0EA8
:102A58006D6FF90E6E6FB5C06FF0B6C070F0290ECD
:102A6800B525D96E010EB621DA6EDF50A96F410E79
:102A7800A925716F726B000E7223D890B535D96E87
:102A8800B635DA6EA60ED926010EDA22DECF17F099
:102A9800DDCF18F01A6A0A0E196E99EC43F017C0C8
:102AA80073F018C074F0D8900001B535D96EB635FA
:102AB800DA6EA60ED926010EDA22DECF17F0DDCFA8
:102AC80018F01A6A0A0E196E88EC44F017C075F0EF
:102AD80018C076F02AEC47F00001B6510AE1070E5B
:102AE800B55D07E2F60E6D6FFC0E6E6F2AEC47F0CF
:102AF80006D0970E6D6FF30E6E6F2AEC47F000014B
:102B0800B54BB62B9FD7DD6B7ED0000E6D6FF90EDF
:102B18006E6FDD514B0D450EF326000EF4220E0E9E
:102B2800F324F66EE00EF420F76E0900F5CF6FF08F
:102B38000A00F5CF70F0DD514B0D470EF326000E5D
:102B4800F4220E0EF324F66EE00EF420F76E090060
:102B5800F5CF71F00A00F5CF72F02AEC47F053D0A8
:102B68000001DD5101E1E3D4020A01E1B7D5010A10
:102B780001E1F1D5070A01E136D6010A01E13ED6A5
:102B8800030A01E16DD6010A01E1C4D50F0A01E18A
:102B9800CCD5010A01E172D6030A01E19ED6010AE9
:102BA80001E1CED5070A01E11CD7010A01E1D8D617
:102BB800020A01E13CD61F0A01E19ED5010A01E1A2
:102BC800F9D5030A01E1A5D6010A01E1C9D6060A29
:102BD80001E1F2D6030A01E1C3D60E0A01E1F3D6F8
:102BE800020A01E1F7D6060A01E1F4D6020A01E178
:102BF800F1D63E0A01E1EED6010A01E17CD6130ABC
:102C080001E11ED782D701017E6B806B12000101A2
:102C1800792B78514EE00C0E781945E1775143E055
:102C2800020E0001DA1909E1126A9A0E136EFA0E01
:102C3800146E000E00EC40F034D0030EDA1909E1EE
:102C4800126A8D0E136EFA0E146E000E00EC40F030
:102C580028D0040EDA1909E1126A760E136EF90EFD
:102C6800146E000E00EC40F01CD0050EDA1909E1D4
:102C7800126A8B0E136EF90E146E000E00EC40F003
:102C880010D0060EDA1909E1126AC70E136EF90E92
:102C9800146E000E00EC40F004D0000E0A6A80ECBE
:102CA80047F00101796B780E7965780C786BF2EC56
:102CB8002CF00101790502E1696B0BD0040E7965EE
:102CC80008D0010E796F0001D9510108D96F0101AF
:102CD800692B595001E19BD089863C0E7A6F59A225
:102CE80019D0A60E1D6EFB0E1E6E000E0EEC48F0DF
:102CF800BD0E1D6EFA0E1E6E020E0EEC48F0990EF9
:102D08001D6EFC0E1E6E040E0EEC48F0400E1D6E7D
:102D1800FC0E51D059A419D0140E1D6EFB0E1E6E58
:102D2800000E0EEC48F09F0E1D6EFC0E1E6E020E7D
:102D38000EEC48F0940E1D6EFB0E1E6E040E0EEC8B
:102D480048F0DB0E1D6EFB0E36D059A838D00001B6
:102D5800D95119E19D0E1D6EFB0E1E6E000E0EEC74
:102D680048F0B10E1D6EFC0E1E6E020E0EEC48F001
:102D7800F30E1D6EFB0E1E6E040E0EEC48F08B0E4D
:102D88001D6EFB0E18D0A50E1D6EFC0E1E6E000EDD
:102D98000EEC48F0470E1D6EFC0E1E6E020E0EEC79
:102DA80048F0B50E1D6EFB0E1E6E040E0EEC48F0BC
:102DB800AB0E1D6EFC0E1E6E060E0EEF48F059ACE3
:102DC80016D0030E1D6EFC0E1E6E020E0EEC48F0A1
:102DD800AB0E426EFF0E436EFA0E446EDBC045F03A
:102DE800466A59EC46F0AB0E1D6E1E6A0DD059AE00
:102DF8000ED0C80E1D6EFA0E1E6E020E0EEC48F0B6
:102E0800D30E1D6EFA0E11D0040E0EEF48F0500EC0
:102E18000001DB190CE1030E1D6EFC0E1E6E020E86
:102E28000EEC48F0550E1D6EFC0E1E6EEDD7E851E7
:102E380004E001016D5101E0B0D0000E0A6A80EC97
:102E480047F0040E0A6E010E80EC47F0100E0A6E71
:102E5800060E80EC47F00A6A070E80EC47F059A08E
:102E68000FD0EB0E1D6EFB0E1E6E020E0EEC48F020
:102E7800280E1D6EFB0E1E6E040E0EEC48F006D3D7
:102E8800020E5A1833E13C0E01017A6F940E1D6E42
:102E9800FB0E1E6E020E0EEC48F0AB0E426E320EAA
:102EA800436EFC0E446EA6C117F0A7C118F01A6A4B
:102EB8000A0E196E99EC43F017C045F018C046F099
:102EC800A6C117F0A7C118F01A6A0A0E196E88EC85
:102ED80044F017C047F018C048F059EC46F0AB0E64
:102EE8001D6E1E6A040E0EEC48F0D0D201016D5121
:102EF80021E0AF0E1D6EFB0E1E6E020E0EEC48F0AA
:102F0800AB0E426E3C0E436EFB0E446E57C045F04E
:102F1800466A59EC46F0575004E03C0E01017A6FBE
:102F280002D00001B16BAB0E1D6E1E6A040E0EECD2
:102F380048F0ACD20001DE5121E0070EDA190FE1AA
:102F4800E30E1D6EFB0E1E6E020E0EEC48F00A0E0E
:102F58001D6EFB0E1E6E040E0EEC48F097D2FB0E93
:102F68001D6EFB0E1E6E020E0EEC48F00A0E1D6E54
:102F7800FB0E1E6E040E0EEC48F088D24E0E1D6E2F
:102F8800FC0E1E6E020E0EEC48F0390E1D6EFC0E85
:102F98001E6E040E0EEC48F079D20001E80504E03C
:102FA800020EE81901E072D2A60E056E040E066E36
:102FB8009A0E076EED0E086E020E0A6E096A51EC43
:102FC80042F00001E80515E1B96B0C0EB96501D0B6
:102FD80010D0F00EB925D96EDA6A040EDA22DF6A4B
:102FE800700EB925D96EDA6A050EDA22DF6AB92BB6
:102FF800ECD7D051D11135E0D0C0B7F0D1C0B8F07E
:10300800B7C017F0B8C018F01A6A3C0E196E99ECE0
:1030180043F017C0A9F018C0AAF0B7C017F0B8C09D
:1030280018F01A6A3C0E196E88EC44F017C0B7F015
:1030380018C0B8F0AB0E426E460E436EFB0E446EDF
:10304800A9C045F0AAC046F0B7C047F0B8C048F0DC
:1030580059EC46F0136AAB0E146E640E58EC45F04A
:103068000ED0B96B070EB96501D009D0020EB9258B
:10307800D96EDA6A050EDA22DF6AB92BF3D70101B5
:1030880062AF07D0030EC35F140EC36109D02C0EC4
:1030980006D0030EC3272C0EC36502D0140EC36FCF
:1030A800C3C1CEF00001CF6B0101BF6B030EBE6F31
:1030B80061C113F062C114F0EFEC46F014BE0AD0FF
:1030C800145003E1040E135C05E30A6AFE0E096E50
:1030D8007EEC3CF00001DF511BE0AB0E4E6EF40EAF
:1030E8004F6EFA0E506E43C151F044C152F045C1C3
:1030F80053F046C154F0030E556E010E566EBDECEA
:1031080033F0010E136EAB0E146E590E58EC45F0E9
:10311800020E5A1876E13C0E01017A6F030EC2279F
:10312800590EC26502D04A0EC26FC2C1CEF000016C
:10313800CF6B0101BF6B030EBE6F0A6AFE0E096EEC
:103148007EEC3CF00001D95144E0DF5142E001013E
:103158003EBF08D03E513D1121E1DE0E3B5D260EFB
:103168003C591CE2AB0E4E6E320E4F6EFB0E506E8B
:103178003BC151F03CC152F03DC153F03EC154F047
:10318800030E556E010E566EBDEC33F0020E136E33
:10319800AB0E146E490E58EC45F033D0AB0E4E6EA4
:1031A800B70E4F6EFC0E506E3BC151F03CC152F051
:1031B8003DC153F03EC154F0030E556E566ABDEC46
:1031C80033F0020E136EAB0E146E4B0E58EC45F036
:1031D80018D0AB0E4E6EE00E4F6EFC0E506EA6C1B0
:1031E80051F0A7C152F0536A546A010E556E566ADF
:1031F800BDEC33F0020E136EAB0E146E4D0E58EC90
:1032080045F00001D9512BE0020EE81928E1CF6BF7
:10321800290ECE6F0101BF6B010EBE6F0A6AE30E65
:10322800096E7EEC3CF0AB0E4E6EDB0E4F6EFC0E64
:10323800506E61C151F062C152F0000E52BEFF0ED5
:10324800536E546E010E556E566ABDEC33F0020E85
:10325800136EAB0E146E170E58EC45F02BD0B96BED
:10326800020EB96501D026D0AB0E4E6EDB0E4F6E46
:10327800FC0E506EB951020D310EF324D96E010EB9
:10328800F420DA6EDECF51F0DDCF52F0000E52BEE0
:10329800FF0E536E546E010E556E566ABDEC33F038
:1032A800B9C013F0AB0E146E170E58EC45F00001C0
:1032B800B92BD6D7000EFDEC42F00A6A040E80EC5A
:1032C80047F059A013D00001D95108E1EB0E1D6E4B
:1032D800FB0E1E6E050E0EEC48F0D4D0280E1D6EA7
:1032E800FB0E1E6E050E0EEC48F0CCD059AA13D07A
:1032F8000001D95108E1EB0E1D6EFB0E1E6E050E86
:103308000EEC48F0BFD01E0E1D6EFB0E1E6E050E95
:103318000EEC48F0B7D0020E5A181AE0AB0E426E07
:10332800B80E436EFB0E446E57C045F0466A59EC22
:1033380046F0575004E03C0E01017A6F02D00001BC
:10334800B06BAB0E1D6E1E6A050E0EEC48F09AD0DF
:10335800020E5A1801E18BD095D0696B0001E85133
:1033680013E0020EE81908E1220E1D6EFB0E1E6E18
:10337800050E0EEC48F086D0CF0E1D6EFC0E1E6EAC
:10338800050E0EEC48F07ED00101692B940E1D6EDF
:10339800FB0E1E6E050E0EEC48F074D00001DF51D6
:1033A8001BE0AB0E4E6EDE0E4F6EFA0E506E3BC13A
:1033B80051F03CC152F03DC153F03EC154F0030EF0
:1033C800556E010E566EBDEC33F0AB0E1D6E1E6AC7
:1033D800050E0EEC48F056D00101692B0001DF51B3
:1033E8001BE0AB0E4E6EA60E4F6EFA0E506E43C12A
:1033F80051F044C152F045C153F046C154F0030E98
:10340800556E020E566EBDEC33F0AB0E1D6E1E6A85
:10341800050E0EEC48F036D00101692BAB0E426E5A
:10342800D30E436EFB0E446EA6C117F0A7C118F069
:103438001A6A0A0E196E99EC43F017C045F018C0C5
:1034480046F0A6C117F0A7C118F01A6A0A0E196E3D
:1034580088EC44F017C047F018C048F059EC46F023
:10346800AB0E1D6E1E6A050E0EEC48F00BD0010166
:103478006951010A8BE0030A91E0010AAFE0070AEB
:10348800CDE06BD70A6A070E80EC47F001017A514C
:1034980003E089867A071200899612000001CD6F31
:1034A8006BEC26F0CC6F3C0E01017A6F8986000127
:1034B800E30504E159B881B201D059980101785166
:1034C80012E1050E0001CD190EE1D8510CE1010EF3
:1034D8000101786F4FC137F150C138F151C139F14D
:1034E80052C13AF10CD20101780526E1D00E3725F8
:1034F8000001BA6F070E010138210001BB6F000EF1
:10350800010139210001BC6F000E01013A210001BF
:10351800BD6F01014F510001BA5D01015051000119
:10352800BB59010151510001BC590101525100011F
:10353800BD5902E2020EE4D0010178050BE1070E45
:103548000001CD1907E10101786B0001D86B0BEC84
:1035580016F0D5D1120E010178190EE1020E000104
:10356800CD190AE10101775107E0C76B040EC86F56
:10357800C96BCA6B776BC6D0010E010178650DD196
:10358800020E0001CD1907E0030ECD1904E0060E66
:10359800CD1901E002D1D85101E0B6D0010177512F
:1035A80001E09AD0A1D057C105F058C106F0086AC9
:1035B800640E076E030E0A6EE70E096E0001CD5108
:1035C8004DEC43F005C057F106C058F19BD0785137
:1035D800CAEC2BF005C055F106C056F155C105F0EF
:1035E80056C106F0010178514B0D450EF326000E29
:1035F800F4220E0EF324F66EE00EF420F76E0900A6
:10360800F5CF07F00A00F5CF08F078514B0D470EBB
:10361800F326000EF4220E0EF324F66EE00EF420CC
:10362800F76E0900F5CF09F00A00F5CF0AF000019E
:10363800CD514DEC43F005C055F106C056F10101DE
:1036480055055611CBE055C178F056C179F078513F
:103658007DEC2AF057D07851CAEC2BF005C055F113
:1036680006C056F155C105F056C106F00101785162
:103678004B0D450EF326000EF4220E0EF324F66EC3
:10368800E00EF420F76E0900F5CF07F00A00F5CF39
:1036980008F078514B0D470EF326000EF4220E0E5B
:1036A800F324F66EE00EF420F76E0900F5CF09F06A
:1036B8000A00F5CF0AF00001CD514DEC43F005C0EA
:1036C80055F106C056F155C178F056C179F001019F
:1036D80078517DEC2AF016D078510D0A01E177D7A0
:1036E8001F0A01E160D7B7D778C10CF0830E0D6EC1
:1036F800010E0E6ECCC00FF00001CD5163EC41F00D
:103708000101786F010EEBD0020ED8190CE101010E
:103718005351541108E1010E546FF40E536F4F25A5
:10372800376F010E31D001015351541101E1E7D037
:103738004F51375D505138595151395952513A59B1
:1037480001E3DDD00001D86B0101545104E1020E00
:10375800535D01E2D4D053C1BAF054C1BBF00001AB
:10376800D890BB33BA33D890BB33BA33D890BB3375
:10377800BA33BA510101535F0001BB510101545BD7
:1037880053514F25376F54515021386F000E512136
:10379800396F000E52213A6FB2D0010E01017865DF
:1037A800A1D0050E0001CD1901E09CD0D85101E04F
:1037B80099D0010ED86F010177516FE0776B120E27
:1037C800781901E09CD057510001BA6F0101585196
:1037D8000001BB6FBC6BBD6B0A0EBA03F3CFBEF022
:1037E800F4CFBFF0C06BC16BBB03F350BF27F450DD
:1037F800C023000EC123BA03F350BF27F450C023DF
:10380800000EC1230A0EBC03F350C027F450C12395
:10381800000EBB03F350C027F450C123000EBA03B7
:10382800F350C027F450C1230A0EBD03F350C1273B
:10383800000EBC03F350C127000EBB03F350C12791
:10384800000EBA03F350C1270A0ED890BE37BF370F
:10385800C037C137E82EF9D7000EBE25056E140E05
:10386800BF21066E000EC021076E000EC121086E32
:1038780059C109F05AC10AF00B6A0C6AB8EC40F059
:1038880005C0C7F106C0C8F107C0C9F108C0CAF130
:1038980057C131F158C132F132D0010E776F120E93
:1038A80078190BE131C113F032C114F0EFEC46F096
:1038B80013C057F114C058F122D0230E78191FE114
:1038C800786B776B596A0001DB6B576A6A6B696BB7
:1038D800FAEC45F00BEC16F0D4EC27F0020E0001E0
:1038E800D86F0DD0070E0001CD1909E1D86B010181
:1038F800536B546B066A0A0E056E69EC44F00001BE
:10390800D80504E00101780501E0E6D00101780559
:1039180021E1000E0A6A80EC47F0040E0A6E010EDF
:1039280080EC47F0E90E1D6EFA0E1E6E020E0EECCC
:1039380048F0C10E1D6EFB0E1E6E040E0EEC48F014
:10394800100E0A6E060E80EC47F00A6A070E80EC2D
:1039580047F0BFD078514B0D080EF326000EF42225
:103968000E0EF324526EE00EF420536E020E73EC2A
:1039780043F065D0775123E0C20E426E320E436E9B
:10398800FC0E446E57C117F058C118F01A6A0A0E97
:10399800196E99EC43F017C045F018C046F057C1AE
:1039A80017F058C118F01A6A0A0E196E88EC44F01C
:1039B80017C047F018C048F059EC46F02ED0C20E98
:1039C800426E320E436EFC0E446E31C113F032C1AA
:1039D80014F0EFEC46F013C017F014C018F01A6A90
:1039E8000A0E196E99EC43F017C045F018C046F05E
:1039F80031C113F032C114F0EFEC46F013C017F0E8
:103A080014C018F01A6A0A0E196E88EC44F017C030
:103A180047F018C048F059EC46F0C20E526E536A8F
:103A2800040E73EC43F010D07851D7EC24F04EC05C
:103A380052F04FC053F0040E73EC43F005D001016F
:103A48007851120A97E0F0D70A6A070E80EC47F01F
:103A5800C20E426E930E436EFC0E446E0001DC51A2
:103A6800456E466A45BE460659EC46F0070E126E8C
:103A7800C20E136E146A000E00EC40F0C20E426EC5
:103A88005C0E436EFC0E446E0001CC51DBEC46F03C
:103A9800456E466ACCC047F0486A59EC46F0070EB6
:103AA800126EC20E136E146A310E00EC40F0070E4F
:103AB800126E8D0E136EFC0E146E860E056EFB0EC6
:103AC800066EB2EC46F00550FA0DF3507A0F00EC92
:103AD80040F0020E0001D86F4FC147F150C148F1C4
:103AE80051C149F152C14AF10101766BCDC0C4F10F
:103AF800796B12000001876F926B936B886B896BEF
:103B0800856B866B7B6B7C6B7D6B7E6B7F6B806B59
:103B1800816B826BE55102E1E2EC45F0020E010196
:103B2800291910E10001ED51D65DEE51D7590AE28D
:103B3800E65108E10A0ED603F3CF77F0F4CF78F018
:103B4800D70308D00A0E0001ED03F3CF77F0F4CFC6
:103B580078F0EE03F350782777C067F178C068F102
:103B680001016551661104E065C167F166C168F13C
:103B7800020E0001E56104D067C120F268C121F29C
:103B8800946B290E9425D96EDA6A010EDA22020E98
:103B9800DE181AE1924B932B9451020D200EF32458
:103BA800D96E020EF420DA6EDE508827DD508923A4
:103BB8009451020DA60EF324D96E010EF420DA6E8C
:103BC800DE508527DD508623942B070E9465D9D7C0
:103BD800875148E1020EE81945E00A0EEF03F3CFDA
:103BE80077F0F4CF78F0F003F3507827D451775D6D
:103BF8008E6FD55178598F6F8FBF0ED08F5102E1DC
:103C08008E050AE38EC005F08FC006F0086A040E20
:103C1800076E7CEC40F012D0640E8E03F3CF77F081
:103C2800F4CF78F08F03F350782777C005F078C089
:103C380006F0086A640E076E7CEC40F0055000013F
:103C4800D2270650D323D3AF02D0D26BD36BD3BFC6
:103C580009D0210ED25D030ED35904E3030ED36FAE
:103C6800200ED26F020EE81901E0A9D0F60E776F88
:103C7800786977510101C003F3CF79F0F4CF7AF076
:103C8800C103F35000017A2778510101C0030001F4
:103C9800F3507A270101615100017925906F0101E4
:103CA800625100017A21916F91AF1BD091AF0FD073
:103CB800F60E905DFF0E91590AE290C005F091C092
:103CC80006F0086A030E076E7CEC40F013D090C033
:103CD80005F091C006F0086A040E076E7CEC40F00F
:103CE80009D090C005F091C006F0086A020E076E70
:103CF8007CEC40F005500001D25F0650D35BEB51DD
:103D08009203F3CF77F0F4CF78F09303F35078274A
:103D1800EC519203F35078270A0E7703F3CF79F02A
:103D2800F4CF7AF07803F3507A277951D25D7A513B
:103D3800D35902E3D3AF3ED0EB519203F3CF77F0E0
:103D4800F4CF78F09303F3507827EC519203F350B3
:103D580078270A0E7703F3CF79F0F4CF7AF0780357
:103D6800F3507A2779C0D2F07AC0D3F092519311E8
:103D780021E00101CB51CC111DE0000191BF1AD007
:103D8800915103E10B0E905D15E3D051D11117E16C
:103D98003C0E0101CB03F3CF77F0F4CF78F0CC03DE
:103DA800F3500001782777C069F078C06AF0FAEC20
:103DB80045F005D000016A6B696BFAEC45F000012B
:103DC800E5051BE10A0EE903F3CF77F0F4CF78F0AD
:103DD800EA03F3507827D251775DD35178590DE231
:103DE8000A0EE903F3CF77F0F4CF78F0EA03F35043
:103DF800782777C0D2F078C0D3F08551D45D8A6F28
:103E08008651D5598B6F8BAF02D08A6B8B6BE8517B
:103E180014E1E5050EE10A0EE903F3CF77F0F4CFDC
:103E280078F0EA03F350782777C0D2F078C0D3F05F
:103E380004D067C1D2F068C1D3F092519311D8B4BD
:103E48001200875112E0020EE8190FE00A0EEF0384
:103E5800F3CF77F0F4CF78F0F003F35078278A5156
:103E6800775DD26F8B517859D36FD3BF35D0EB5173
:103E78009203F3CF77F0F4CF78F09303F3507827D9
:103E8800EC519203F35078270A0E7703F3CF79F0B9
:103E9800F4CF7AF07803F3507A277951D25D7A51CA
:103EA800D3591AE3020EE8193BE1010162BF38D089
:103EB800625103E10B0E615D33E30A0E0001EF036B
:103EC800F3CF77F0F4CF78F0F003F3507827D4519C
:103ED800775DD551785924E2EB519203F3CF77F00F
:103EE800F4CF78F09303F3507827EC519203F35012
:103EF80078270A0E7703F3CF79F0F4CF7AF07803B6
:103F0800F3507A2779C0D2F07AC0D3F00101752B2B
:103F1800710E00016D6FFA0E6E6F2AEC47F002D039
:103F28000101756B0001D251885D8951800A776F54
:103F3800D351800A775904E288C0D2F089C0D3F0FF
:103F4800D2C08CF0D3C08DF0946B8CC005F08DC0BE
:103F580006F092C007F093C008F07CEC40F005C072
:103F680083F006C084F0290E00019425D96EDA6A20
:103F7800010EDA22020EDE183EE194517B0FD96E53
:103F8800DA6ADF5038E19451020D200EF324D96E1D
:103F9800020EF420DA6EDE50835DDE5084592BE386
:103FA8009451020D200EF324D96E020EF420DA6E1D
:103FB8009451020DA60EF324E16E010EF420E26E78
:103FC800DECFE6FFDDCFE5FF94517B0FD96EDA6ACD
:103FD800010EDF6E9207D8A093079451020DA60E2A
:103FE800F324D96E010EF420DA6EDE508C5FDD50BA
:103FF8008D5B946B01D0942B080E946103D0925181
:104008009311A3E1946B92519311D8B41200290E25
:104018009425D96EDA6A010EDA22020EDE1832E130
:1040280094517B0FD96EDA6ADF502CE18CC005F011
:104038008DC006F092C007F093C008F07CEC40F009
:1040480000019451020DA60EF324D96E010EF4203E
:10405800DA6E05C0DEFF06C0DDFF94517B0FD96E16
:10406800DA6A010EDF6E9207D8A093079451020D09
:10407800A60EF324D96E010EF420DA6EDE508C5FA2
:10408800DD508D5B942B080E9461080C92519311AE
:10409800BEE1120001016B6BE7D120EE03F069511C
:1040A800D9266A51DA22DF5001E1000C20EE03F034
:1040B8006951D9266A51DA22100EDFAE1C0E7E6FC6
:1040C8007F6B69C036F06AC037F07F51040DF3503A
:1040D8007E25386E6B51190D0A0EF324D96E030E26
:1040E800F420DA6EDF50396E6B51190D0C0EF32483
:1040F800D96E030EF420DA6EDF503A6E6B51190D4B
:10410800120EF324D96E030EF420DA6EDF50FD0F81
:104118003B6E3FEC31F000017F51040DF3CF6EF0A0
:10412800F4CF6FF06E516C25D96E6F516D21DA6E38
:1041380036C0DEFF37C0DEFF38C0DEFF39C0DEFF25
:104148001C0E7E1901E013D17F5125E17F51040D2A
:10415800F3CF6EF0F4CF6FF06E516C25D96E6F51BE
:104168006D21DA6EDECF05F0DECF06F0DECF07F088
:10417800DECF08F00A0E096E0A6A0B6A0C6AC5ECF3
:104188003BF005C013F006C014F0EFEC46F013C086
:1041980059F114C05AF100017F51040DF3CF6EF0AC
:1041A800F4CF6FF06E516C25D96E6F516D21DA6EB8
:1041B800DECF70F0DECF71F0DECF72F0DECF73F0BD
:1041C800C7C174F0C8C175F0000E75BFFF0E766FD9
:1041D800776F74517003F3CF78F0F4CF79F07A6B7E
:1041E8007B6B7103F3507927F4507A23000E7B23FD
:1041F80075517003F3507927F4507A23000E7B230E
:1042080074517203F3507A27F4507B23755171036C
:10421800F3507A27F4507B2376517003F3507A27B2
:10422800F4507B2373517403F3507B277551720349
:10423800F3507B2776517103F3507B277751700336
:10424800F3507B2778C005F079C006F07AC007F0F4
:104258007BC008F0096A040E0A6E0B6A0C6AC5EC8A
:104268003BF000017F51040DF3CF7CF0F4CF7DF0DB
:104278007C516C25D96E7D516D21DA6E05C0DEFF4B
:1042880006C0DEFF07C0DEFF08C0DEFFF05103E115
:10429800650EEF5D31E37F51040DF3CF6EF0F4CF7F
:1042A8006FF06E516C25D96E6F516D21DA6EDECFCD
:1042B80070F0DECF71F0DECF72F0DECF73F0D89001
:1042C8007035746F7135756F7235766F7335776FBA
:1042D8007F51040DF3CF78F0F4CF79F078516C2545
:1042E800D96E79516D21DA6E74C0DEFF75C0DEFFBC
:1042F80076C0DEFF77C0DEFF7F51040DF3CF6EF08E
:10430800F4CF6FF06E516C25D96E6F516D21DA6E56
:10431800030EDBBE29D07F51040DF3CF6EF0F4CF2E
:104328006FF06E516C25D96E6F516D21DA6E030EE8
:10433800DBBE0AD0DB5018E1020EDB5015E1010E9E
:10434800DB5012E1DE0410E27F51040DF3CF6EF072
:10435800F4CF6FF06E516C25D96E6F516D21DA6E06
:10436800DE6ADE6ADE6ADD6A010E01016B6F00013A
:104378007F2B020E7F65A5D620EE01F06951D92664
:104388006A51DA220F0EDF6428D01C0E7E1925E14F
:10439800010E01016C6F0001E0516E6F6F6BD890D8
:1043A8006E376F3720EE01F06951D9266A51DA224B
:1043B800DF50030B6E196F1101E124D1020EE56184
:1043C80021D1080E666F656BD890E035676F686B12
:1043D80068370A0E9CEC46F015D101016C6B12D1BE
:1043E8007F6B69C036F06AC037F07F51040DF3CF98
:1043F80038F06B51190D0A0EF324D96E030EF42010
:10440800DA6EDF50396E6B51190D0C0EF324D96E2C
:10441800030EF420DA6EDF503A6E6B51190D120E4E
:10442800F324D96E030EF420DA6EDF50FD0F3B6ED5
:104438003FEC31F000017F51040DF3CF6EF0F4CF63
:104448006FF06E516C25D96E6F516D21DA6E36C0E2
:10445800DEFF37C0DEFF38C0DEFF39C0DEFF7F2B4E
:10446800020E7F65BED7CED000016B51010A01E173
:1044780014D6B6D77F6B69C036F06AC037F07F5163
:10448800040DF3500C0F386E6B51190D0A0EF324FE
:10449800D96E030EF420DA6EDF50396E6B51190DA8
:1044A8000C0EF324D96E030EF420DA6EDF503A6E48
:1044B8006B51190D150EF324D96E030EF420DA6E24
:1044C800DF503B6E3FEC31F039AE32D000017F5106
:1044D800040DF3CF6EF0F4CF6FF06E516C25D96EEA
:1044E8006F516D21DA6EDECF70F0DECF71F0DECF66
:1044F80072F0DECF73F0701F711F721F731F702B65
:10450800000E7123722373237F51040DF3CF74F0CF
:10451800F4CF75F074516C25D96E75516D21DA6E32
:1045280070C0DEFF71C0DEFF72C0DEFF73C0DEFF49
:1045380000017F2B020E7F659ED7010C7F6B69C03F
:1045480036F06AC037F07F51040DF350140F386EFF
:104558006B51190D0A0EF324D96E030EF420DA6E8E
:10456800DF50396E6B51190D0C0EF324D96E030E02
:10457800F420DA6EDF503A6E6B51190D150EF324E4
:10458800D96E030EF420DA6EDF503B6E3FEC31F04B
:1045980039AE32D000017F51040DF3CF6EF0F4CF65
:1045A8006FF06E516C25D96E6F516D21DA6EDECFCA
:1045B80070F0DECF71F0DECF72F0DECF73F0701FD7
:1045C800711F721F731F702B000E712372237323C8
:1045D8007F51040DF3CF74F0F4CF75F074516C254E
:1045E800D96E75516D21DA6E70C0DEFF71C0DEFFC5
:1045F80072C0DEFF73C0DEFF00017F2B020E7F65F5
:104608009ED7010C00016B51040A01E133D7010A5E
:1046180095E0010C0101006B016B026B036B046BED
:10462800056B066B076B0A6B0B6B106B050E0001B5
:1046380079192AE177C005F078C006F079C007F04B
:1046480023EC42F005500610D8A41200040E010114
:104658000B6F77C0D9FF78C0DAFFDF50006F000119
:1046680020EE01F07751D9267851DA22DF50010186
:10467800016F000120EE02F07751D9267851DA2235
:10468800DF500101106F1200070E7965070C77C023
:10469800D9FF78C0DAFFDF500101006F000120EE7A
:1046A80001F07751D9267851DA22DF500101016FE4
:1046B80077C005F078C006F079C007F023EC42F027
:1046C8000550061001E1FDD01200080E000179190D
:1046D80034E1020E01010B6F000120EE02F0775168
:1046E800D9267851DA22DF507B6F7A6B20EE03F0FF
:1046F8007751D9267851DA22DF507A110101026FF9
:1047080000017B510101036F000120EE04F0775195
:10471800D9267851DA22DF507B6F7A6B20EE05F0CC
:104728007751D9267851DA22DF507A110101046FC6
:1047380000017B510101056FD1D020EE02F07751C5
:10474800D9267851DA22DF5001010A6F0A51000197
:104758007A6F7B6BFB0E7C6F7D6979517E6F7F6B07
:104768007C517E277D517F237A517E1905E17B514B
:104778007F1902E1030E9BD0FE0E6D6FF70E6E6F70
:104788002AEC47F0ABD0080E0001791937E1010E89
:1047980001010B6F000120EE02F07751D926785104
:1047A800DA22DF507B6F7A6B20EE03F07751D9263F
:1047B8007851DA22DF507A110101026F00017B5132
:1047C8000101036F056B010E046F000120EE04F078
:1047D8007751D9267851DA22DF507B6F7A6B20EE39
:1047E80005F07751D9267851DA22DF507A11010184
:1047F800066F00017B510101076F70D01B0E6D6FB2
:10480800F80E6E6F2AEC47F069D0000120EE02F036
:104818007751D9267851DA22DF507B6F7A6B20EEF8
:1048280003F07751D9267851DA22DF507A11010145
:10483800026F00017B510101036F000120EE04F0BB
:104848007751D9267851DA22DF507B6F7A6B20EEC8
:1048580005F07751D9267851DA22DF507A11010113
:10486800046F00017B510101056F080E00017919E1
:1048780081E020EE06F07751D9267851DA22DF5010
:1048880001010A6F0A5100017A6F7B6BF70E7C6F8A
:104898007D6979517E6F7F6B7C517E277D517F23A7
:1048A8007A517E1907E17B517F1904E1020E01015B
:1048B8000B6F14D0380E6D6FF80E6E6F2AEC47F040
:1048C8000DD001010151030A01E1FFD6070A01E1F8
:1048D800FCD6020A01E157D7160A97E001010B51ED
:1048E8005AE00A5158E077C008F178C009F1000190
:1048F80079510101082500017A6F000E0101092193
:1049080000017B6F01010A5100017A5F000E7B5B99
:10491800FE0E7A250101086FFF0E00017B210101BF
:10492800096F39D000C10CF101C10DF102C10EF1BE
:1049380003C10FF1120000510C190DE10D510119BD
:104948000AE1030E011903E0040E011904E10EC186
:1049580002F10FC103F10C6B0D6B0E6B0F6B1200A4
:1049680000510C190DE10D5101190AE1090E001948
:1049780007E0030E0B6F0C6B0D6B0E6B0F6B1200C9
:10498800020E0B6F00C10CF101C10DF102C10EF155
:1049980003C10FF1020C0B51010AE2E0030AC2E065
:1049A800010AC9E012000001606F6051CAEC2BF0E7
:1049B80005C06BF006C06CF027D1E65105E0010E8A
:1049C8004E6EF10E4F6E1200E80E4E6EF00E4F6EE8
:1049D8001200E80505E1FB0E4E6EF00E4F6E120058
:1049E800020EE81905E1F50E4E6EF00E4F6E12003C
:1049F800E10E4E6EF00E4F6E1200610E426E6A0EA0
:104A0800436EFC0E446E6BC045F06CC046F059EC2A
:104A180046F0610E4E6E4F6A12006B516C110DE03C
:104A2800610E426E1B0E436EFC0E446E6BC045F069
:104A38006CC046F059EC46F0ECD7C70E4E6EF00E3F
:104A48004F6E1200E551090DF40EF3244E6EEF0E71
:104A5800F4204F6E1200610E426E6B0E436EFC0E18
:104A6800446E6BC045F06CC046F059EC46F0D1D7A7
:104A7800E70505E1D00E4E6EF00E4F6E1200020EE5
:104A8800E719DBE1EF0E4E6EF00E4F6E1200E451A7
:104A98000A0D770EF3244E6EF00EF4204F6E1200BE
:104AA800E351CBE0D90E4E6EF00E4F6E1200190E88
:104AB8006B03F3CF50F0F4CF51F06C03F350512651
:104AC800000E50244E6E030E51204F6E1200E0511E
:104AD8000A0DA90EF3244E6EF00EF4204F6E12004C
:104AE800100E6C5D11E2610E426E500E436EFB0EAD
:104AF800446E6BC045F06CC046F06BC047F06CC0AC
:104B080048F059EC46F085D7610E426ED50E436EDB
:104B1800FC0E446E6BC045F06CC046F06BC047F0AD
:104B28006CC048F059EC46F074D7E25105E0BD0E70
:104B38004E6EF00E4F6E12000C0E4E6EF10E4F6E52
:104B48001200780E4E6EFB0E4F6E1200640E4E6E03
:104B5800FB0E4F6E12006E0E4E6EFB0E4F6E120065
:104B68005A0E4E6EFB0E4F6E12006BC050F06CC0AA
:104B780051F0515008E15050E4E0010AE7E0030A1F
:104B8800EAE0010AEDE06B516C1105E0860E4E6E0D
:104B9800FC0E4F6E1200230E4E6EFC0E4F6E12006E
:104BA800610E426EF20E436EFC0E446EC60E506EDF
:104BB800020E516ED8906B35D96E6C35DA6ED8907E
:104BC800D936DA365050D9265150DA22DECF45F0A0
:104BD800DECF46F0DECF47F0DECF48F059EC46F0A6
:104BE80018D7DE510A0D450EF3244E6EF00EF42050
:104BF8004F6E1200070E4E6EF10E4F6E1200980E99
:104C08004E6EF30E4F6E120000016051020A01E170
:104C1800D4D6010A01E116D7070A01E11CD7010A17
:104C280001E119D7030A01E123D7010A01E1E5D619
:104C38000F0A01E1F2D6010A01E129D7030A01E1CD
:104C48002FD7010A01E107D7070ACBE0010A01E1E2
:104C58002ED7030A01E144D7010A01E1FCD61F0A55
:104C680001E1B7D6010A01E1F6D6020A01E11FD730
:104C7800070A01E135D7010A01E157D7030A01E123
:104C880016D7010A01E12CD70F0A01E16ED7010AF4
:104C980001E126D7030A84E0010A01E121D7070AC6
:104CA80001E17ED7010A01E11BD7030A01E178D7A8
:104CB800010A01E115D73F0A01E172D7010A01E1B2
:104CC80006D7030A01E15FD7010A94E098D7056A7D
:104CD800020E0101836F052A0001E65109E1830EE6
:104CE8000524D96EDA6A010EDA22060EDF6E052A6D
:104CF800830E0524D96EDA6A010EDA22100EDF6EF1
:104D0800052A020EE8191EE1020EE5611BD0830E8A
:104D18000524D96EDA6A010EDA22070EDF6E052A3B
:104D2800830E0524D96EDA6A010EDA22080EDF6EC8
:104D3800052A830E0524D96EDA6A010EDA220B0ED3
:104D4800DF6E052A830E0524D96EDA6A010EDA228F
:104D5800030EDF6E052AE8510CE0020EE56109D06A
:104D6800830E0524D96EDA6A010EDA22110EDF6E7F
:104D7800052AE85103E0010EE56502D0E50509E1E1
:104D8800830E0524D96EDA6A010EDA22040EDF6E6C
:104D9800052AE50509E1830E0524D96EDA6A010EB4
:104DA800DA220F0EDF6E052A830E0524D96EDA6A21
:104DB800010EDA22050EDF6E052A830E0524D96E50
:104DC800DA6A010EDA22090EDF6E052A830E05243F
:104DD800D96EDA6A010EDA220A0EDF6E052A830E10
:104DE8000524D96EDA6A010EDA220C0EDF6E052A66
:104DF800E85101E1CAD0020EE5614CD0830E0524CA
:104E0800D96EDA6A010EDA22130EDF6E052AF4056E
:104E180018E101016C0509E1830E0524D96EDA6AEF
:104E2800010EDA22210EDF6E052A6B0533E1830EAF
:104E38000524D96EDA6A010EDA22120EDF6E052A0F
:104E480029D0F45127E0830E0524D96EDA6A010EC1
:104E5800DA22140EDF6E052A830E0524D96EDA6A6B
:104E6800010EDA22150EDF6E052AE25113E0830ED9
:104E78000524D96EDA6A010EDA22160EDF6E052ACB
:104E8800E15108E0830E0524D96EDA6A010EDA22B0
:104E9800170ED4D7830E0524D96EDA6A010EDA22EA
:104EA8000D0EDF6E052A0001DF5109E0830E05248F
:104EB800D96EDA6A010EDA220E0EDF6E052A020EAC
:104EC800E56163D0060EF41906E0060EE11903E069
:104ED800060EDF195AE1830E0524D96EDA6A010E2F
:104EE800DA22180EDF6E052A830E0524D96EDA6AD7
:104EF800010EDA22220EDF6E052A830E0524D96EF2
:104F0800DA6A010EDA221B0EDF6E052A830E0524EB
:104F1800D96EDA6A010EDA221C0EDF6E052A830EBC
:104F28000524D96EDA6A010EDA22190EDF6E052A17
:104F3800830E0524D96EDA6A010EDA221A0EDF6EA4
:104F4800052A830E0524D96EDA6A010EDA221D0EAF
:104F5800DF6E052A830E0524D96EDA6A010EDA227D
:104F68001E0EDF6E052A830E0524D96EDA6A010E3D
:104F7800DA221F0EDF6E052A830E0524D96EDA6A3F
:104F8800010EDA22200EDF6E052A830E0524D96E63
:104F9800DA6A010EDA22230EDF6E052A05501200A6
:104FA8000101DB51330F6F6FDB51880F6E6F04EC1B
:104FB80035F0F2CFA6F0F29EA96AAA6AEF0E056E46
:104FC800066A086A020E076E06EC44F0ED0E056EDE
:104FD800066A086A020E076E06EC44F0EB0E056ED0
:104FE800066A086A020E076E06EC44F0C70E056EE4
:104FF800010E066E086A040E076E06EC44F0E80E11
:10500800056E066A086A010E076E06EC44F0E70EA4
:10501800056E066A086A010E076E06EC44F0E90E92
:10502800056E066A086A020E076E06EC44F0E60E84
:10503800056E066A086A010E076E06EC44F0E50E76
:10504800056E066A086A010E076E06EC44F0E40E67
:10505800056E066A086A010E076E06EC44F0E30E58
:10506800056E066A086A010E076E06EC44F0CD0E5E
:10507800056E010E066E086A020E076E06EC44F015
:10508800CB0E056E010E066E086A020E076E06EC60
:1050980044F0F40E056E066A086A010E076E06EC07
:1050A80044F0F30E056E066A086A010E076E06ECF8
:1050B80044F0E20E056E066A086A010E076E06ECF9
:1050C80044F0E10E056E066A086A010E076E06ECEA
:1050D80044F0F20E056E066A086A010E076E06ECC9
:1050E80044F0A00E056E030E066E086A010E076EE8
:1050F80006EC44F0A60E056E030E066E086A020E54
:10510800076E06EC44F0A80E056E030E066E086ADC
:10511800010E076E06EC44F0C00E056E010E066E19
:10512800086A020E076E06EC44F0E00E056E066A89
:10513800086A010E076E06EC44F0DF0E056E066A7B
:10514800086A010E076E06EC44F0F10E056E066A59
:10515800086A010E076E06EC44F0DE0E056E066A5C
:10516800086A010E076E06EC44F0A30E056E030EE6
:10517800066E086A020E076E06EC44F0A50E056E70
:10518800030E066E086A010E076E06EC44F0A90EBF
:10519800056E030E066E086A020E076E06EC44F0F2
:1051A800AB0E056E030E066E086A010E076E06EC5E
:1051B80044F0AC0E056E030E066E086A020E076E0A
:1051C80006EC44F0AE0E056E030E066E086A010E7C
:1051D800076E06EC44F0A20E056E030E066E086A12
:1051E800010E076E06EC44F001016F6B6E6BA6C0F2
:1051F800F2FF220E00016D6FFA0E6E6F2AEC47F077
:105208000001E505D8A41200A76BA86BA7510F0FE2
:10521800CAEC2BF00001A751020DF3507E0FD96E96
:10522800DA6A05C0DEFF06C0DDFFA74BA82BA85130
:1052380003E1140EA75DEAE3136AE00E126E7E0E18
:10524800146E156A140E166E090E6CEF34F01650B3
:10525800800B1F6E16501624216E15BE218021501A
:1052680008E0212804E1136A146A156A166A158E83
:1052780004D0136A146A156A166A1A50800B1F1A2A
:105288001A501A24206E19BE2080205008E02028C9
:1052980004E1176A186A196A1A6A198E04D0176A1B
:1052A800186A196A1A6A205002E0215005E1136A47
:1052B800146A156A166A120019501302F3CF2AF0FD
:1052C800F4CF2BF02A50226E236A246A256A2B50C9
:1052D800266E276A286A296A18501402F3CF2AF022
:1052E800F4CF2BF02A502226000E23222422252236
:1052F8002B502626000E2722282229221750150275
:10530800F3CF2AF0F4CF2BF02A502226000E2322C6
:10531800242225222B502626000E27222822292245
:1053280024C025F023C024F022C023F0226A17509D
:105338001402F3CF2AF0F4CF2BF02A5022262B5058
:105348002322000E2422252218501302F3CF2AF01C
:10535800F4CF2BF02A5022262B502322000E242291
:10536800252224C025F023C024F022C023F0226A7D
:1053780017501302F3CF2AF0F4CF2BF02A5022262D
:105388002B502322000E2422252219501402F3CF79
:105398002AF0F4CF2BF02A5026262B502722000E75
:1053A8002822292218501502F3CF2AF0F4CF2BF027
:1053B8002A5026262B502722000E2822292219504F
:1053C8001502F3CF2AF0F4CF2BF02A501B6E2B5086
:1053D8001C6E1D6A1E6A1DC01EF01CC01DF01BC07D
:1053E8001CF01B6A1B5026261C5027221D50282201
:1053F8001E50292225502626000E2722282229223F
:1054080024C025F023C024F022C023F0226A2050B3
:1054180021C01BF01C6A1B26000E1C22820E1B24B6
:105428002A6EFF0E1C202B6E0FD0D89026362736FA
:105438002836293625BE2680D890223623362436AB
:1054480025362A06D8A02B0628AEEFD7206A25AE27
:1054580013D022501B6E23501C6E24501D6E7F0EDD
:1054680025141E6E1B501C101D101E1003E0010E8B
:10547800206E02D026B0FBD720500EE0262A000E60
:1054880027222822292229A007D029342932283284
:10549800273226322A4A2B2A2BBE0AD02B5002E169
:1054A8002A2806E3266A276A800E286E7F0E15D002
:1054B8002BBE04D02B5008E12A0406E2266A276A8C
:1054C800286A296A1F6A0AD02AC021F07F0E281686
:1054D800296A21B0288ED8902130296E1F502912B0
:1054E80026C013F027C014F028C015F029C016F004
:1054F800120000017A6F230E7A61D3D07A514B0DD6
:10550800450EF326000EF4220E0EF324F66EE00E7E
:10551800F420F76E0900F550785D0900F5507959C7
:10552800D8A0000C7A514B0D470EF326000EF4223A
:105538000E0EF324F66EE00EF420F76E7851090093
:10554800F55C79510900F55801E3ABD0000C78C03F
:10555800E6F0010C78C0E8F0010C78C0CDF179C014
:10556800CEF1010C78C0CBF179C0CCF1010C78C038
:10557800C0F179C0C1F1010C78C0E5F0010C78C028
:10558800EFF079C0F0F0010C78C0EBF079C0ECF0E6
:10559800010C78C0EDF079C0EEF0010C78C0E9F0AC
:1055A80079C0EAF0010C78C0E7F0010C78C0E4F0AB
:1055B800010C78C0E3F0010C78C0C7F179C0C8F1DC
:1055C8000101C96BCA6B010C78C0E0F0010C78C00E
:1055D800F4F0010C78C0F3F0010C78C0E2F0010C93
:1055E80078C0E1F0010C78C0F2F0010C78C0DFF06F
:1055F800010C78C0F1F0010C78C0A0F3010C78C060
:10560800A2F3010C78C0A3F379C0A4F3010C78C00D
:10561800A5F3010C78C0A6F379C0A7F3010C78C0F4
:10562800A8F3010C78C0A9F379C0AAF3010C78C0DB
:10563800ABF3010C78C0ACF379C0ADF3010C78C0C2
:10564800AEF3010C78C0DEF0010C78511EEC45F089
:10565800010C78C059F0595001E197D0000E1EECAA
:1056680045F03C0E576E010C78C065F179C066F1C3
:10567800010C7851791104E07805791101E085D0A1
:1056880078C06DF17851791101E07FD0000E1EECE1
:1056980045F0010C78C069F079C06AF0FAEC45F081
:1056A800010C7A51020A01E152D7010A01E164D7DB
:1056B800070A01E169D7010A01E16BD7030A01E191
:1056C80072D7010A01E149D70F0A01E14BD7010A54
:1056D80001E16CD7030A01E16CD7010A01E147D760
:1056E800070AB0E0010A82E0030A83E0010A01E147
:1056F80055D71F0A01E12ED7010A01E140D7030A55
:1057080001E15AD7010A01E162D7070A01E162D72C
:10571800010A01E162D7030A01E162D7010A01E146
:1057280062D70F0A01E168D7010A01E173D7030ABA
:1057380001E175D7010A01E165D7070A01E167D7D9
:10574800010A01E16FD7030A01E171D7010A01E1FA
:1057580071D73F0A01E173D7010A01E135D7030A7E
:1057680001E14DD7620A01E170D7010A01E171D761
:10577800070A01E179D7010A01E17BD70F0A01E1A4
:10578800E9D6030AD8A4000C85D7010C076EAED061
:10579800E6C005F0066A1200E8C005F0066A1200C5
:1057A800CDC105F0CEC106F01200CBC105F0CCC1C9
:1057B80006F01200C0C105F0C1C106F01200E5C034
:1057C80005F0066A1200EFC005F0F0C006F01200FE
:1057D800EBC005F0ECC006F01200EDC005F0EEC01D
:1057E80006F01200E9C005F0EAC006F01200E7C0B2
:1057F80005F0066A1200E4C005F0066A1200E3C06C
:1058080005F0066A1200C7C105F0C8C106F012000B
:10581800E0C005F0066A1200F4C005F0066A12003E
:10582800F3C005F0066A1200E2C005F0066A12002D
:10583800E1C005F0066A1200F2C005F0066A12001F
:10584800DFC005F0066A1200F1C005F0066A120012
:10585800A0C305F0066A1200A2C305F0066A12008A
:10586800A3C305F0A4C306F01200A5C305F0066A99
:105878001200A6C305F0A7C306F01200A8C305F0DE
:10588800066A1200A9C305F0AAC306F01200ABC34A
:1058980005F0066A1200ACC305F0ADC306F01200AD
:1058A800AEC305F0066A1200DEC005F0066A1200F3
:1058B8005AC005F0066A120059C005F0066A1200BF
:1058C800D6C005F0D7C006F01200A6C105F0A7C1E2
:1058D80006F012006DC105F0066A1200D0C005F08E
:1058E800D1C006F01200056A066A12000750020AC3
:1058F80001E14ED7010A01E162D7070A01E168D741
:10590800010A01E16AD7030A01E171D7010A01E13D
:1059180047D70F0A01E149D7010A01E16CD7030A09
:1059280001E16DD7010A01E145D7070ABDE0010A87
:1059380087E0030A89E0010A01E154D71F0A01E15F
:105948002BD7010A01E13FD7030A01E15CD7010A1D
:1059580001E162D7070A01E163D7010A01E164D7CF
:10596800030A01E165D7010A01E166D70F0A01E1DF
:105978006FD7010A01E17DD7030A80E0010A01E13E
:105988006FD7070A01E171D7010A01E17BD7030A42
:1059980001E17DD7010A01E17ED73F0A81E0010AD2
:1059A80001E136D7030A01E157D7620A81E0010A0B
:1059B80083E0030A85E0010A01E10AD7050A85E0C8
:1059C800010A88E00F0A01E1E7D6010A01E138D7A8
:1059D800030A01E139D7010A81E085D7A96AAA6AD1
:1059E800EF0E056E066A086A020E076E2AEC46F08C
:1059F8000001F05103E1C90EEF5D05E3F06B190EEC
:105A0800EF6FD4EF27F0ED0E056E066A086A020EF6
:105A1800076E2AEC46F0EB0E056E066A086A020E5F
:105A2800076E2AEC46F0C70E056E010E066E086A70
:105A3800040E076E2AEC46F0E80E056E066A086A40
:105A4800010E076E2AEC46F0E70E056E066A086A34
:105A5800010E076E2AEC46F0E90E056E066A086A22
:105A6800020E076E2AEC46F0E60E056E066A086A14
:105A7800010E076E2AEC46F0E50E056E066A086A06
:105A8800010E076E2AEC46F0E40E056E066A086AF7
:105A9800010E076E2AEC46F0E30E056E066A086AE8
:105AA800010E076E2AEC46F0CD0E056E010E066E4D
:105AB800086A020E076E2AEC46F0CB0E056E010E40
:105AC800066E086A020E076E2AEC46F0F40E056EA2
