:020000040000FA
:040000001AEF01F002
:100008005B82D9CF03F0DACF04F022D0AECFDFF095
:10001800010156515511541104E1040E535DD8A045
:1000280002D0000E956F3C0E9519D8B49507200E96
:100038009525D96EDA6A020EDA22DFC0DFFF952B2A
:10004800000E536F000E546F000E556F000E566F62
:100058009EBADCD79EB89DA859D0000E0101912503
:10006800D96EDA6A040EDA22DF50AD6E912B905108
:100078009119D8B404D03C0E9119D8A403D09D98F6
:10008800000E916F000E536F000E546F000E556FE7
:10009800000E566F3BD071B4D0A20BD05A50D8A4E2
:1000A80008D074CFDFF00001DF51D8A404D0FF00DE
:1000B80002D074CFDFF0D082DFC073FF320E0101AF
:1000C8009419D8B49407080E0001DF19D8A406D0F3
:1000D80001019451D8B402D0940718D00D0E000134
:1000E800DF19D8B404D00A0EDF19D8A405D0000E41
:1000F800DF6F01019429926F5C0E01019425D96E7E
:10010800DA6A020EDA22DFC0DFFF942BA4AA86D0B7
:10011800C2D70001E951D8B469D001018E51D8B4D1
:1001280031D0580E6B5D020E6C59D8B002D0899848
:1001380001D08988898A6B51016E6C51026E6B4BB4
:100148006C2BBD0E015C020E0258D8A016D082A2FC
:1001580002D0010E01D0000E8F19D8A40AD0890E42
:100168006B5D130E6C59D8A008D0000E6C6F000E92
:1001780003D0020E6C6FBC0E6B6F000E6E6F000E1C
:100188006D6F34D08D51D8B431D0580E6D5D020EDC
:100198006E59D8B003D08988899A02D08988898A0B
:1001A8006D51016E6E51026E6D4B6E2BBD0E015C72
:1001B800020E0258D8A016D082A202D0010E01D099
:1001C800000EC719D8A40AD0890E6D5D130E6E599A
:1001D800D8A008D0000E6E6F000E03D0020E6E6F0E
:1001E800BC0E6D6F000E6C6F000E6B6F010E01017F
:1001F8005727000E582359235A23010E5327000E60
:1002080054235523562386078629D8A406D083C1AC
:1002180067FF0A0E866F010E856F7E907EB079D7D4
:1002280004C0DAFF03C0D9FF5B921100B5EF41F0BB
:10023800000E05015F6F000E606F050E5D6F000E0A
:100248004A6F000E5C6F000E496F000E5E6F010E64
:10025800396F000E3A6F010E3C6F25EE4FF00B0E12
:10026800DE6AE806FDE225EE3DF00B0EDE6AE806E2
:10027800FDE2080E626F000E4B6F000E4C6F000E11
:100288004D6F000E4E6F000E356F000E366F000E6C
:10029800376F000E386F020E5B6F8BEC42F0C5ECC7
:1002A8002FF0F1C005F0F2C006F0000E086E0A0E3D
:1002B800076E7FEC4FF005C0D5F006C0D6F039ECDC
:1002C80050F0898610EC48F0D5EC4EF0D08225EC41
:1002D80038F00501636F020E6319D8A402D0800EAE
:1002E800596E0001DC51D8A49CEC3DF001019251FB
:1002F800D8A484EC11F07C51D8B412D056515511C1
:10030800541104E1070E535DD8A00AD08A8A000E62
:10031800066E010E056E30EC4DF09D88000E7C6F68
:100328009151D8B4ACA201D08A9ADCEC45F0A30E66
:10033800946E00F000F08250210B0501636F633961
:10034800E8461F0B0101C66F050163516325020BC7
:100358000101C611C66F8150010BC611C66F820E0E
:10036800946E070EC619D8A404D0C551C619D8B4BE
:1003780003D0C65182EC1CF0010E8A651DD0250EF3
:100388008A611AD0880E4F25D06F130E5021D16F75
:10039800000E5121D26F000E5221D36F5751D05DFC
:1003A8005851D1595951D2595A51D359D8B004D06A
:1003B8008951D8B422EC42F08A51D8A42BD0060E29
:1003C800C619D8A427D00001EA51D8B423D0050112
:1003D8003B51D8A41FD0020E0001E7611BD0030EC9
:1003E800E619D8A417D0EA51FF0A030B92EC4FF094
:1003F800DE0E5916000E586E000E0001AD6F000E8D
:10040800AC6F90EC4DF0000E01018B6F050E0501ED
:100418003B6F0BD005013B51D8B407D0070E010143
:10042800C619D8A402D005013B0781A402D0010E49
:1004380001D0000E05013C19D8A403D05F51D8B4EF
:10044800D5D03A2B3A050101D06F060ED06104D001
:1004580005015F51D8B4CDD0000E81B4010E05015D
:100468003C6F3C51D8B469D0B6D05750D8B406D0F8
:10047800000E576E000EE8EC4AF06ED0010E576E73
:100488006BD005015F51D8A40AD0010E5F6F57C128
:1004980035F558C136F559C137F55AC138F55F51A8
:1004A800D8B45AD0DC0E35250101D06F050E0501F0
:1004B80036210101D16F000E050137210101D26FEC
:1004C800000E050138210101D36F5751D05D5851F5
:1004D800D1595951D2595A51D359D8B03DD0020E99
:1004E8005A18D8A439D0000EE8EC4AF00001DC51C3
:1004F800D8A402D00F0E586E020E05015F6F2CD0E3
:10050800020EEA19D8A428D0010E92EC4FF0000E82
:100518000001AD6F000EAC6F90EC4DF01DD0020ED7
:100528005A18D8A419D0000EE8EC4AF00001DC51A2
:10053800D8A412D00F0E586E0FD00001E651010A50
:10054800D8B493D7030AD8B499D7010AD8B499D79D
:10055800070AD8B4D5D7E3D70001E505D8B459A818
:1005680002D081A259983C0E01018C6F89863ED039
:10057800000E576E000EE8EC4AF038D0020E050166
:100588005F19D8B41DD00001EA05D8A404D0020E22
:1005980092EC4FF007D0020EEA19D8A403D0010E4E
:1005A80092EC4FF0DE0E5916000E586E000E000148
:1005B800AD6F000EAC6F90EC4DF0000E01018B6F2B
:1005C800000E05015F6F12D0EA05D8A40FD0020E05
:1005D80092EC4FF00BD00001E651020AD8B4C8D70C
:1005E800010AD8B4CBD7070AD8B4EED7000E050154
:1005F8003A6F0001E505D8B481A20AD081A208D0DB
:10060800000EE8EC4AF0100E596E000E01018B6FD7
:10061800020E0001E019D8A409D05750D8A402D07E
:10062800010E01D0000E01018E6F05D0020E5A187E
:10063800D8A4F6D7F7D75A04D8B404D0020E5A185B
:10064800D8A402D0010E01D0000E8D6F5A50D8B434
:1006580004D0040E5A18D8A4A6D0000EBD6E828409
:100668008A98000E316FF7EC48F00501616F61055B
:10067800D8A422D0020E0001E019D8A409D005019F
:100688005E51D8A405D05704D8A402D03C0E5E6FA2
:10069800040E5A18D8A403D0000EE8EC4AF0599A70
:1006A8005990000E586E0101966905015B51D8A456
:1006B8007AD0010E5B6F77D0020E6119D8B404D0DE
:1006C800020E6119D8A46DD05950D8A46AD05850D8
:1006D800D8A467D05750D8B464D0040E5A18D8B4E8
:1006E80060D001019605D8A456D00501602B60059D
:1006F8000101D06F190ED06556D0000E05014A6F62
:1007080072EC46F0EF51D75DF051D859D8B00BD004
:10071800D7C005F0D8C006F0000E086E0A0E076EA6
:100728007FEC4FF00AD0EFC005F0F0C006F0000EE5
:10073800086E0A0E076E7FEC4FF005C077F106C011
:1007480078F1010E0001E76504D0040EE8EC4AF0E8
:100758002AD0D7C005F0D8C006F0000E086E0A0EE1
:10076800076E7FEC4FF005C021F106C022F177C17A
:1007780097F178C198F1010E0101316F010EE8EC93
:100788004AF01E0E05015C6F3C0E01018C6F000ED5
:1007980005015E6F08D0010E966F000E0501606FAF
:1007A80002D001019669050E5A18D8A40CD0010E82
:1007B800E8EC4AF01E0E05015C6F3C0E01018C6FDF
:1007C800000E05015E6F5A04D8B404D0060E5A18FC
:1007D800D8A4AAD0070EBC648FD0180EBC608CD0E9
:1007E800F7EC48F00501616F6105D8A415D0010147
:1007F8009651D8A40FD00501602B60050101D06F78
:10080800190ED06579D0000EE8EC4AF03C0E0101D3
:100818008C6F72D0000E5DD0030E6119D8A45ED023
:10082800020E01019619D8A452D005014A05D8A490
:100838004ED0602B60050101D06F190ED0655CD0D9
:100848005950D8A459D05850D8A456D00001E151D5
:10085800D8B40ED005015B51D8B40AD04BC547F1C6
:100868004CC548F14DC549F14EC54AF1000E5B6FC4
:10087800010E0001E76508D0060E5A18D8B43CD01E
:10088800060EE8EC4AF038D077C121F178C122F1A0
:100898003DEC37F00009D8B418D0020E0101316FD1
:1008A800000E986F000E976F010EBBEC1FF005014C
:1008B8005C69000E4A6F020EE8EC4AF001018A51A9
:1008C800D8A41AD0D1EC17F017D0598015D0020E41
:1008D8000101966F000E0501606F0ED05C51D8A41F
:1008E80009D0080EE8EC4AF0030E0501496F000E26
:1008F800BD6E829401019669E60EBC6415D0F10EB6
:10090800BC64FDD7F10EBC640FD0F90EBC600CD0EE
:10091800F7EC48F00501616F040E6119D8A402D004
:10092800010E01D0000E4A6F080E5A18D8A40AD03A
:1009380005014951D8A406D0010EE8EC4AF082849A
:1009480005015C69070E5A18D8A40DD005015C6929
:10095800000E4A6F020EE8EC4AF0010196698A51CE
:10096800D8B4D1EC17F0020E5A18D8A453D0070EF9
:10097800BC6450D0180EBC604DD0F7EC48F00501AF
:10098800616F6105D8B403D06151D8A41AD00101B0
:100998009651D8A414D00501602B60050101D06FD1
:1009A800190ED06537D08A98000EE8EC4AF010ECA2
:1009B80048F0020E0001E7612DD0000E20D0000E95
:1009C80022D0020E6119D8A423D001019605D8A41B
:1009D80019D00501602B60050101D06F190ED06593
:1009E80019D08A98010EE8EC4AF010EC48F0000E95
:1009F80005014A6F020E0001E7610CD0010E0101EA
:100A0800316F08D0010E966F000E0501606F02D09D
:100A180001019669ABA202D0AB98AB8871A202D053
:100A280071987188D6CF63F53C0ED764E5D0010183
:100A38009629D8B404D0020E5A18D8B4DDD0000EC6
:100A4800D76E000ED66EEDEC4CF079EC3AF05A0405
:100A5800D8A404D005015C29D8A45C07080E5A184C
:100A6800D8A404D005014951D8A44907010163510C
:100A78006411D8B40DD06307D8A06407635164111A
:100A8800D8A406D0000EE8EC4AF0598A08EC4EF0DB
:100A98005850D8A4580605015E51D8B40BD05A5006
:100AA800D8A408D05E2F08D0000E576E3C0E010166
:100AB8008C6F02D0000E5E6F0001DD51800A490F75
:100AC800D8A059A401D0599459C0D0F1210E0101E0
:100AD800D017D8B416D0020E0001E76112D03DEC51
:100AE80037F00009D8B40DD05990599A000E00017A
:100AF800A96F010EA86F59C0AAF0AB6B090E8DEC57
:100B08004EF001017B51D8A47B0705015D51D8B493
:100B180059B20ED05982000EE8EC4AF08A0E000154
:100B28006C6FF80E6D6F19EC4FF008EC4EF003D0B7
:100B38005D51D8A45D070001DD51800A3F0FD8B090
:100B480059B412D05984000EE8EC4AF0C30E0001E3
:100B58006C6FF80E6D6FDD516E6F6F6B6EBF6F0748
:100B680019EC4FF008EC4EF059C0D0F1210E0101FC
:100B7800D017D8B41DD0020E0001EA19D8A40AD0A3
:100B88005850D8A410D0A70E6C6FF80E6D6F19ECE2
:100B98004FF009D05850D8A406D0BD0E6C6FF70E90
:100BA8006D6F19EC4FF0000EE8EC4AF03C0E586EF1
:100BB800D1EC17F0020E0001E7611ED001017B5154
:100BC800D8A41AD0050139073929D8A415D00001AD
:100BD800EA51D8B404D0010E0101826F0AD0000E88
:100BE8000101746F000E736F060E826F0A0E050105
:100BF8005D6F010E0501396F01018251D8B400D132
:100C080056515511541105E1640E535DD8B0BCD04E
:100C1800F7D0BAD00001E351D8B406D0F4C0B1F08F
:100C2800E351D3EC40F0ECD00101822BF5C0B1F0D8
:100C38000001F651D3EC40F0E3D00501622B070E1A
:100C4800626502D0000E626F6251040DDB0EF32460
:100C5800D96E020EF420DA6EDF50D8B4EED76251A6
:100C6800040DDC0EF324D96E020EF420DA6EDF5088
:100C7800D8B404D06251D9EC4FF0C2D00101822B14
:100C880005016251040DDD0EF324D96E020EF42025
:100C9800DA6EDF50D8B418D06251040DDE0EF3249A
:100CA800D96E020EF420DA6EDF500001B16F050133
:100CB8006251040DDD0EF324D96E020EF420DA6EB3
:100CC800DF504CEC48F09CD00101822B05016251A9
:100CD800040DDD0EF324D96E020EF420DA6EDF5017
:100CE800D8B418D06251040DDE0EF324D96E020E6A
:100CF800F420DA6EDF500001B16F05016251040D76
:100D0800DD0EF324D96E020EF420DA6EDF5003EC08
:100D18004FF076D00101822B0001E705D8A406D058
:100D280001018251FA0F59EC4EF06AD00C0E010104
:100D3800826F0001E705D8A406D001018251F30FA4
:100D4800B2EC33F05DD00001EA51D8B405D059B205
:100D580017D002EC3DF014D0000EBBEC1FF0E705F5
:100D6800D8B466EC50F05A04D8B404D0020E5A181D
:100D7800D8A406D097C136F098C137F058EC3FF0A8
:100D8800000E0101826F3CD0822B8205010AD8B483
:100D980041D7030AD8B44AD7010AD8B44ED7070AAC
:100DA800D8B46ED7010AD8B491D7030AD8B4B4D747
:100DB800010AD8B4B1D70F0AD8B4AED7010AD8B44B
:100DC800ABD7030AD8B4A8D7010AD8B4A5D7070A5D
:100DD800D8B4A2D7010AD8B4ACD7030AD8B4A9D7D3
:100DE800010AD8B4A6D71F0AD8B4A3D7010AD8B421
:100DF800A0D7030AD8B49DD7010AD8B49AD7A3D7E5
:100E080001019551D8B474D256515511541104E1C9
:100E1800040E535DD8A06CD2B40E056E040E066E97
:100E2800200E076E020E086E95C109F00A6A17ECCB
:100E38004BF095C193F1000E0101956FB40E0001BE
:100E48007B6F040E7C6F93C17DF0CDEC27F0030E11
:100E580001010B19D8B479D180D10001E351D8B47C
:100E680024D0F45101010019D8A41FD00001E35186
:100E7800190D100EF324D96E030EF420DA6EDE502D
:100E88000101021912E1DE500319D8A40ED008C1DD
:100E9800ACF009C1ADF0E3C0AEF03D0E0001AF6F9C
:100EA800050EB06FD1EC22F023D20001F5510101FB
:100EB8000019D8A4B7D00001F651190D100EF3246B
:100EC800D96E030EF420DA6EDE500101021903E137
:100ED800DE500319D8A4A6D008C1ACF009C1ADF002
:100EE800F6C0AEF04F0E0001AF6F050EB06FD1EC3B
:100EF80022F00501636F6351D8B407D0020E0001D8
:100F0800E76103D00A0E05015D6F000E0101706FE5
:100F1800000E6F6F000E0501636F020E636501D04E
:100F2800E7D10001E351D8B43FD005016351040D66
:100F38003D0EF324D96E050EF420DA6EDECFD0F123
:100F4800DECFD1F1DECFD2F1DECFD3F16351040D84
:100F58004F0EF324D96E050EF420DA6EDECFD4F1ED
:100F6800DECFD5F1DECFD6F1DECFD7F10101D051FA
:100F7800D45DD86FD151D559D96FD251D659DA6FBE
:100F8800D351D759DB6F05016351040D4F0EF3247C
:100F9800D96E050EF420DA6ED8C1DEFFD9C1DEFFA6
:100FA800DAC1DEFFDBC1DEFF05016351040D4F0E20
:100FB800F324D96E050EF420DA6EDECF11F0DECF01
:100FC80012F0DECF13F0DECF14F0640E156E000EB3
:100FD800166E000E176E000E186E5AEC43F00501DF
:100FE8006351020D390EF324D96E010EF420DA6E26
:100FF80011C0DEFF12C0DDFF6351020D390EF3246C
:10100800D96E010EF420DA6EDECFD0F1DDCFD1F14A
:1010180001016F51D0256F6F7051D121706F05019B
:10102800632B7BD70001E151D8B46BD0F351010198
:101038000019D8A466D00001E151190D160EF32449
:10104800D96E030EF420DA6EDE500101021937E181
:10105800DE500319D8A433D008C14AF009C14BF0B7
:10106800E1C04CF07EEC44F04AC04BF54BC04CF567
:101078004CC04DF54DC04EF5020E05015B19D8A4C4
:1010880008D04BC547F14CC548F14DC549F14EC58F
:101098004AF10101475105014B5D01014B6F485170
:1010A80005014C5901014C6F495105014D59010188
:1010B8004D6F4A5105014E5901014E6F19D100017A
:1010C800E151190D130EF324D96E030EF420DA6ED4
:1010D800DE500101021938E1DE500319D8A408D105
:1010E80008C14AF009C14BF0E1C04CF0DDEC3FF01B
:1010F8004AC043F14BC044F14CC045F14DC046F1E4
:10110800F7D0010E01010065F3D0090E0061F0D09F
:1011180002510311D8A409D008C105F009C106F08D
:101128000005076EC0EC43F0E3D0080E02190CE18D
:101138000305D8A4DDD008C1ACF009C1ADF00005A5
:101148000001AE6F2EEC49F0D3D00151030AD8B498
:1011580084D6070AD8B481D6CBD0020E0B19D8A4EE
:10116800BCD00A0E0019D8A417D0060E0119D8A4AD
:1011780013D0A80E02190311D8A40ED04F0E0619C9
:101188000BE1490E0719D8A407D00001DC51D8A4F7
:1011980003D0DC691AEF01F0020E0001E7610AD002
:1011A800040E01017B6F7E0E00016C6FF70E6D6FF0
:1011B80019EC4FF0090E01010019D8B480D00001D4
:1011C800E751D8A404D001010005D8B478D00001B3
:1011D800E751D8B48DD0E75101010019D8B46FD0C8
:1011E80087D0090E0019D8B483D087EC48F080D096
:1011F80028EC46F07DD0200E02190311D8A45CD04B
:10120800010E0001E76558D0E7510101D06FD16B9D
:10121800D890D037D13721EE08F0DECFD2F1DDCF2C
:10122800D3F1D051D227D151D323FE0ED225D96E76
:10123800FF0ED321DA6EDF50D46FD451D66FD56B41
:101248000001E7510101D76FD86BD890D737D8374D
:1012580021EE08F0DECFD9F1DDCFDAF1D751D92769
:10126800D851DA23FF0ED925D96EFF0EDA21DA6EAE
:10127800DF50DB6FDB51D511976FD651986F9751BF
:101288009811D8A408D0020E5A18D8A404D0000E79
:10129800E8EC4AF00DD05A04D8B404D0020E5A181B
:1012A800D8A406D097C136F098C137F058EC3FF073
:1012B8000A0E05015D6F1CD034EC3EF019D00151C7
:1012C800030AD8B48ED7070AD8B48BD7020AD8B481
:1012D8008FD7160AD8B48FD70BD0040E0B19D8B4F1
:1012E80007D0330E00016C6FFA0E6D6F19EC4FF0DA
:1012F80059A275EF01F00A0E05015D19D8A475EF22
:1013080001F0599275EF01F064EF11F0250E4B18BA
:10131800D8B431D02C50D96EDA6A020ED926DE50F4
:10132800DE10D8B413D02C50D96EDA6A020ED92642
:1013380002D864EF11F00500FA6EDE50FD6EDE5043
:10134800FE6EF850FF6EFA504B5012002C50D96EBA
:10135800DA6ADECF30F0DDCF31F030C0D9FF31C0EE
:10136800DAFF4BC0DFFF2C50D96EDA6ADE2A000E96
:10137800DD2264EF11F0000E4A6E000E496E000E79
:101388004D6E000E4C6E09D04C8605D04C8003D0B3
:101398004D8601D04C842D4A2E2A2DC0F6FF2EC032
:1013A800F7FFF86A0F0EF76403D00800F55005D070
:1013B800F6CFE1FFF7CFE2FFE750200AD8B4E6D72F
:1013C800030AD8B4E5D70E0AD8B4DED71D0AD8B4B4
:1013D800E1D74CB64C942DC0F6FF2EC0F7FFF86A43
:1013E8000F0EF76403D00800F55005D0F6CFE1FFE3
:1013F800F7CFE2FFE75057EC50F0D8A047D0000EE7
:101408004A6E000E496E49C005F04AC006F0000E4B
:10141800086E0A0E076E7FEC4FF005C049F006C053
:101428004AF0D00E306EFF0E316E2DC0F6FF2EC082
:10143800F7FFF86A0F0EF76403D00800F55005D0DF
:10144800F6CFE1FFF7CFE2FFE750326E336A305054
:101458003226315033223250492633504A222D4AFF
:101468002E2A2DC0F6FF2EC0F7FFF86A0F0EF7647C
:1014780003D00800F55005D0F6CFE1FFF7CFE2FF23
:10148800E75057EC50F0D8A022D0BDD72DC0F6FFBA
:101498002EC0F7FFF86A0F0EF76403D00800F55066
:1014A80005D0F6CFE1FFF7CFE2FFE7502A0AD8A42C
:1014B8000ED02F50D96EDA6A020EDF26DF5CD96EA5
:1014C800DA6ADECF49F0DECF4AF02D4A2E2A2DC047
:1014D800F6FF2EC0F7FFF86A0F0EF76403D0080076
:1014E800F55005D0F6CFE1FFF7CFE2FFE7502E0A1F
:1014F800D8A474D04D8C2D4A2E2A2DC0F6FF2EC0AC
:10150800F7FFF86A0F0EF76403D00800F55005D00E
:10151800F6CFE1FFF7CFE2FFE7502A0AD8A416D0AA
:101528002F50D96EDA6A020EDF26DF5CD96EDA6ACE
:10153800DECF47F0DECF48F048AE05D0000E486E4B
:10154800000E476E4D9C2D4A2E2A8DD1000E486EF6
:10155800000E476E2ED047C005F048C006F0000EBA
:10156800086E0A0E076E7FEC4FF005C047F006C004
:1015780048F0D00E306EFF0E316E2DC0F6FF2EC033
:10158800F7FFF86A0F0EF76403D00800F55005D08E
:10159800F6CFE1FFF7CFE2FFE750326E336A305003
:1015A80032263150332232504726335048222D4AB2
:1015B8002E2A2DC0F6FF2EC0F7FFF86A0F0EF7642B
:1015C80003D00800F55005D0F6CFE1FFF7CFE2FFD2
:1015D800E75057EC50F0D8A046D1BDD7000E486E62
:1015E800000E476E40D14C883ED14C8C74D14C8A49
:1015F8004C8E71D12F50D96EDA6A020EDF26DF5C6D
:10160800D96EDA6ADECF3FF0DECF40F03F504010AF
:10161800D8A404D01F0E3F6EFC0E406E000E426E22
:10162800000E416E02D0414A422A41503F24306E9A
:1016380042504020316E30C0F6FF31C0F7FFF86AE3
:101648000F0EF76403D00800F55005D0F6CFE1FF80
:10165800F7CFE2FFE7500009D8A4E5D74750481074
:10166800D8B40ED04150475C4850800A306E425082
:10167800800A3058D8B004D047C041F048C042F082
:101688004950415C4A504258D8B005D04150495E53
:1016980042504A5A04D0000E4A6E000E496E4CA6BB
:1016A8002FD088D02C50D96EDA6A020ED926DE5097
:1016B800DE10D8B412D02C50D96EDA6A020ED926B0
:1016C80001D81ED00500FA6EDE50FD6EDE50FE6EAB
:1016D800F850FF6EFA50200E12002C50D96EDA6ABC
:1016E800DECF30F0DDCF31F030C0D9FF31C0DAFFC6
:1016F800200EDF6E2C50D96EDA6ADE2A000EDD224B
:101708004906D8A04A064928CDE14A28D8B452D07B
:10171800C9D72C50D96EDA6A020ED926DE50DE10EF
:10172800D8B424D02C50D96EDA6A020ED92601D842
:101738001AD00500FA6EDE50FD6EDE50FE6EF850CF
:10174800FF6EFA503FC0F6FF40C0F7FFF86A0F0E71
:10175800F76403D00800F55005D0F6CFE1FFF7CFC6
:10176800E2FFE75012003F4A402A24D03FC0F6FF6C
:1017780040C0F7FFF86A2C50D96EDA6ADECF30F035
:10178800DDCF31F030C0D9FF31C0DAFF0F0EF7647A
:1017980003D00800F55005D0F6CFE1FFF7CFE2FF00
:1017A800E750DF6E3F4A402A2C50D96EDA6ADE2AAB
:1017B800000EDD224106D8A042064128AAE14228AF
:1017C800D8A4A7D74CB630D064EF11F02C50D96EFE
:1017D800DA6A020ED926DE50DE10D8B412D02C50A8
:1017E800D96EDA6A020ED92601D81ED00500FA6E23
:1017F800DE50FD6EDE50FE6EF850FF6EFA50200E81
:1018080012002C50D96EDA6ADECF30F0DDCF31F01D
:1018180030C0D9FF31C0DAFF200EDF6E2C50D96EF0
:10182800DA6ADE2A000EDD224906D8A04A064928CF
:10183800CDE14A28D8B464EF11F0C8D72F50D96E3B
:10184800DA6ADF50DF2ADF2AD96EDA6ADF504B6E98
:101858004B0E3F6E406A000E426E010E416EFED680
:10186800C00E4C1238D02D50306E2E50316E2D4A8D
:101878002E2A30C0F6FF31C0F7FFF86A0F0EF76462
:1018880003D00800F55005D0F6CFE1FFF7CFE2FF0F
:10189800E7504B6E4B50000AD8B47FEF11F0580A4E
:1018A800D8B4A5D63B0AD8B4C9D7070AD8B413D038
:1018B8000D0AD8B410D0050AD8B495D6030AD8B4FE
:1018C80094D61C0AD8B496D6060AD8B4C9D70D0A35
:1018D800D8B48ED6BDD74CC030F0C00E3016D8A4C0
:1018E80031D04CA811D02F50D96EDA6A040EDF26F9
:1018F800DF5CD96EDA6ADECF43F0DECF44F0DECFAC
:1019080045F0DECF46F011D02F50D96EDA6ADF509D
:10191800DF2ADF2AD96EDA6ADECF43F0DDCF44F062
:10192800000E44BEFF0E456E466E46AE30D0030E26
:101938004C12461E451E441E436C000E442245228E
:10194800462225D04CA811D02F50D96EDA6A040E41
:10195800DF26DF5CD96EDA6ADECF43F0DECF44F0F3
:10196800DECF45F0DECF46F012D02F50D96EDA6ABE
:10197800DF50DF2ADF2AD96EDA6ADECF30F0DDCF1A
:1019880031F030C043F031C044F0456A466A4750F0
:101998004810D8A463D04350441045104610D8A42A
:1019A8005DD0474A482A5AD0010E4B6E0A0E4B1892
:1019B800D8B462D04B50040DE40EF324F66EDE0E5C
:1019C800F420F76E0900F550435C0900F5504458BF
:1019D8000900F55045580900F5504658D8A04CD094
:1019E8004B2AE4D7010E4B6E080E4B18D8B444D0DE
:1019F8004B50040D0C0EF324F66EDF0EF420F76E38
:101A08000900F550435C0900F55044580900F550A9
:101A180045580900F5504658D8A02ED04B2AE4D78F
:101A2800010E4B6E0B0E4B18D8B426D04B50040D3C
:101A3800B80EF324F66EDE0EF420F76E0900F550AA
:101A4800435C0900F55044580900F5504558090011
:101A5800F5504658D8A010D04B2AE4D74C50C00BAC
:101A6800000AD8B4A1D7400AD8B4DAD7C00AD8B483
:101A7800B9D7400AD8B498D74B50306E316A47501E
:101A8800305C3150800A326E4850800A3258D8B0E3
:101A980003D047C04BF010D04B50306E316A3050F5
:101AA800475C4850800A326E3150800A3258D8B0AC
:101AB80003D04BC047F0486A49504A10D8B409D0FF
:101AC8004CC030F0030E3016D8B403D04906D8A065
:101AD8004A064DAC13D04950475C4850800A306ED6
:101AE8004A50800A3058D8B005D04750495E48500F
:101AF8004A5A04D0000E4A6E000E496EC40E306E6B
:101B0800080E316E4CC032F04DC033F030503216F2
:101B180031503316400E32180CE1080E3318D8A491
:101B280008D049504A10D8B428D04906D8A04A0647
:101B380024D0C00E306E080E316E4CC032F04DC04D
:101B480033F03050321631503316800E321815E10A
:101B5800080E3318D8A411D04ABE0BD04A5004E15D
:101B6800030E495CD8A005D0FE0E4926FF0E4A2276
:101B780004D0000E4A6E000E496E4B50306E316A2A
:101B88004950305C3150800A326E4A50800A3258CF
:101B9800D8B005D04B50495E000E4A5A04D0000E0A
:101BA8004A6E000E496E4CA412D14CC030F0030EA0
:101BB8003016D8B428D02C50D96EDA6A020ED9263D
:101BC800DE50DE10D8B412D02C50D96EDA6A020E6C
:101BD800D92601D8C6D00500FA6EDE50FD6EDE505B
:101BE800FE6EF850FF6EFA502D0E12002C50D96E72
:101BF800DA6ADECF30F0DDCF31F030C0D9FF31C046
:101C0800DAFF2D0E29D04CA029D02C50D96EDA6AD3
:101C1800020ED926DE50DE10D8B412D02C50D96E60
:101C2800DA6A020ED92601D89CD00500FA6EDE5079
:101C3800FD6EDE50FE6EF850FF6EFA50200E120058
:101C48002C50D96EDA6ADECF30F0DDCF31F030C0FB
:101C5800D9FF31C0DAFF200EDF6E7DD0C00E306EA6
:101C6800080E316E4CC032F04DC033F03050321691
:101C780031503316800E321874E1080E3318D8A488
:101C880070D02C50D96EDA6A020ED926DE50DE10DA
:101C9800D8B412D02C50D96EDA6A020ED92601D8DF
:101CA8001ED00500FA6EDE50FD6EDE50FE6EF85056
:101CB800FF6EFA50300E12002C50D96EDA6ADECF61
:101CC80030F0DDCF31F030C0D9FF31C0DAFF300E4F
:101CD800DF6E2C50D96EDA6ADE2A000EDD222C5017
:101CE800D96EDA6A020ED926DE50DE10D8B41CD0BE
:101CF8004CBA04D0000E366E780E03D0000E366E45
:101D0800580E356E2C50D96EDA6A020ED92601D8D3
:101D180028D00500FA6EDE50FD6EDE50FE6EF850DB
:101D2800FF6EFA50355012004CBA04D0000E386ECF
:101D3800780E03D0000E386E580E376E2C50D96EC0
:101D4800DA6ADECF30F0DDCF31F030C0D9FF31C0F4
:101D5800DAFF37C0DFFF2C50D96EDA6ADE2A000EB0
:101D6800DD2249504A10D8B466D22C50D96EDA6AAE
:101D7800020ED926DE50DE10D8B412D02C50D96EFF
:101D8800DA6A020ED92601D81ED00500FA6EDE5096
:101D9800FD6EDE50FE6EF850FF6EFA50300E1200E7
:101DA8002C50D96EDA6ADECF30F0DDCF31F030C09A
:101DB800D9FF31C0DAFF300EDF6E2C50D96EDA6AE7
:101DC800DE2A000EDD224906D8A04A06CAD74950A5
:101DD8004A10D8A44CB635D02C50D96EDA6A020E07
:101DE800D926DE50DE10D8B412D02C50D96EDA6A5B
:101DF800020ED92601D81ED00500FA6EDE50FD6EFF
:101E0800DE50FE6EF850FF6EFA50200E12002C5075
:101E1800D96EDA6ADECF30F0DDCF31F030C0D9FFCD
:101E280031C0DAFF200EDF6E2C50D96EDA6ADE2A56
:101E3800000EDD224906D8A04A0649504A10D8A407
:101E4800CBD74CC030F0030E3016D8B428D02C5065
:101E5800D96EDA6A020ED926DE50DE10D8B412D056
:101E68002C50D96EDA6A020ED92601D848D005005E
:101E7800FA6EDE50FD6EDE50FE6EF850FF6EFA50C0
:101E88002D0E12002C50D96EDA6ADECF30F0DDCF7D
:101E980031F030C0D9FF31C0DAFF2D0E29D04CA067
:101EA8002ED02C50D96EDA6A020ED926DE50DE10FA
:101EB800D8B412D02C50D96EDA6A020ED92601D8BD
:101EC8001ED00500FA6EDE50FD6EDE50FE6EF85034
:101ED800FF6EFA50200E12002C50D96EDA6ADECF4F
:101EE80030F0DDCF31F030C0D9FF31C0DAFF200E3D
:101EF800DF6E2C50D96EDA6ADE2A000EDD22C00EA3
:101F0800306E080E316E4CC032F04DC033F0305098
:101F1800321631503316400E32182DE1080E3318A0
:101F2800D8A429D02C50D96EDA6A020ED926DE50F0
:101F3800DE10D8B412D02C50D96EDA6A020ED92627
:101F480001D879D10500FA6EDE50FD6EDE50FE6EC6
:101F5800F850FF6EFA50300E12002C50D96EDA6A23
:101F6800DECF30F0DDCF31F030C0D9FF31C0DAFF3D
:101F7800300EDF6E5AD1C00E306E080E316E4CC076
:101F880032F04DC033F03050321631503316800ED7
:101F9800321803E1080E3318D8A44DD12C50D96E4D
:101FA800DA6A020ED926DE50DE10D8B412D02C50D0
:101FB800D96EDA6A020ED92601D81ED00500FA6E4B
:101FC800DE50FD6EDE50FE6EF850FF6EFA50300E99
:101FD80012002C50D96EDA6ADECF30F0DDCF31F046
:101FE80030C0D9FF31C0DAFF300EDF6E2C50D96E09
:101FF800DA6ADE2A000EDD222C50D96EDA6A020E69
:10200800D926DE50DE10D8B41CD04CBA04D0000E4D
:102018003A6E780E03D0000E3A6E580E396E2C5078
:10202800D96EDA6A020ED92601D805D10500FA6EF2
:10203800DE50FD6EDE50FE6EF850FF6EFA503950DD
:1020480012004CBA04D0000E3C6E780E03D0000E7D
:102058003C6E580E3B6E2C50D96EDA6ADECF30F0EB
:10206800DDCF31F030C0D9FF31C0DAFF3BC0DFFF30
:10207800DCD047C030F048C031F0D8903036313627
:10208800D89030363136E40E3024F66EDE0E31202C
:10209800F76E0900F5CF15F00900F5CF16F0090025
:1020A800F5CF17F00A00F5CF18F043C011F044C07F
:1020B80012F045C013F046C014F0CFEC47F011C041
:1020C80023F012C024F013C025F014C026F00A0E25
:1020D800276E000E286E000E296E000E2A6E98ECF0
:1020E80049F0235069D043C011F044C012F045C0F4
:1020F80013F046C014F047C030F048C031F0D89013
:1021080030363136D890303631360C0E3024F66EF3
:10211800DF0E3120F76E0900F5CF15F00900F5CF75
:1021280016F00900F5CF17F00A00F5CF18F0CFEC3C
:1021380047F011500F0B346E4CBA04D0EF0E3D6EC1
:10214800F90E03D0DE0E3D6EF90E3E6E34503D247E
:10215800306E000E3E20316E30C0F6FF31C0F7FF02
:102168000800F5CF4BF039D043C011F044C012F04D
:1021780045C013F046C014F047C030F048C031F0F5
:10218800D89030363136D89030363136B80E3024C3
:10219800F66EDE0E3120F76E0900F5CF15F0090056
:1021A800F5CF16F00900F5CF17F00A00F5CF18F0B3
:1021B800CFEC47F01150070B300F4B6E0ED04C5040
:1021C800C00B000AD8B455D7400AD8B4CDD7C00A36
:1021D800D8B489D7400AD8B44CD72C50D96EDA6A0B
:1021E800020ED926DE50DE10D8B412D02C50D96E8B
:1021F800DA6A020ED92601D81ED00500FA6EDE5022
:10220800FD6EDE50FE6EF850FF6EFA504B50120015
:102218002C50D96EDA6ADECF30F0DDCF31F030C025
:10222800D9FF31C0DAFF4BC0DFFF2C50D96EDA6A14
:10223800DE2A000EDD224706D8A048064728BFE15F
:102248004828D8A4BCD74CB64ABE3AD04A5003E175
:102258004904D8A035D02C50D96EDA6A020ED92696
:10226800DE50DE10D8B412D02C50D96EDA6A020EC5
:10227800D92601D81ED00500FA6EDE50FD6EDE505C
:10228800FE6EF850FF6EFA50200E12002C50D96ED8
:10229800DA6ADECF30F0DDCF31F030C0D9FF31C09F
:1022A800DAFF200EDF6E2C50D96EDA6ADE2A000EB5
:1022B800DD224906D8A04A0649504A10D8A4CBD7EF
:1022C8002D50306E2E50316E2D4A2E2A30C0F6FF1A
:1022D80031C0F7FFF86A0F0EF76403D00800F55015
:1022E80005D0F6CFE1FFF7CFE2FFE7504B6E4B503A
:1022F800D8A48AEF09F0000E2D6E000E2C6E120085
:10230800DCEC2CF0BC6F550E6C6FF30E6D6F19EC96
:102318004FF00001DE51D8A450D0000EC26F25D076
:102328005C0E056E020E066E8E0EC225D96EDA6A36
:10233800020EDA22DF50B46FB4514B0D2C0EF32489
:10234800076EDF0EF420086E5BEC4AF005500610AD
:10235800D8A409D08E0E0001C225D96EDA6A020E01
:10236800DA22DF50DE6F0001C22BFF0EB46FFF0EC2
:10237800B56FBC51B66FB76BB451B627B551B7231B
:10238800C251B86FB96BB651B85DB951800ABA6F0E
:10239800B751800ABA59D8A0C3D75C0E056E020E91
:1023A800066E5E0E076EFC0E086E5BEC4AF005507A
:1023B8000610D8A44AD2320E05D002015C51D8A426
:1023C80014D2000E0001DE6F40D2000EC16F5C0E09
:1023D800C125D96EDA6A020EDA22DF50C26F2E0EDC
:1023E800C219D8A416D05D0EC125D96EDA6A020EBC
:1023F800DA225C0EC125E16EE26A020EE222DFCF2C
:10240800E7FF5D0EC125D96EDA6A020EDA22000EE8
:10241800DF6EC12BC251D8A4DAD75C0E0B6E020E48
:102428000C6EF3EC42F00BC0BDF00CC0BEF0000126
:10243800BE5104E13C0EBD5DD8A006D0210EBD5DA5
:10244800030EBE59D8A007D0DC0E6C6FF60E6D6F68
:1024580019EC4FF0F4D1BDC005F0BEC006F0076A14
:10246800086A0A0E096E000E0A6E000E0B6E000E48
:102478000C6E44EC4BF00A0ED8900536063607363B
:102488000836E82EF9D7000E0524116E140E062022
:10249800126E000E0720136E000E0820146E65C120
:1024A80015F066C116F0176A186ACFEC47F011C02C
:1024B800C8F112C0C9F113C0CAF114C0CBF149EC7C
:1024C8002BF0BDD15C0E056E020E066E160E076E61
:1024D800FB0E086E5BEC4AF005500610D8A402D03B
:1024E800020E0FD05C0E056E020E066ECF0E076E42
:1024F800FC0E086E5BEC4AF005500610D8A404D018
:10250800010E0001EA6FDBD75C0E056E020E066E47
:10251800730E076EFC0E086E5BEC4AF00550061051
:10252800D8A48DD1000E0001EA6F49EC2BF0000E03
:10253800596E85D15C0E056E020E066EBE0E076ED4
:10254800FB0E086E5BEC4AF005500610D8A402D0CA
:10255800010E1FD05C0E056E020E066EC90E076EC8
:10256800FC0E086E5BEC4AF005500610D8A402D0A9
:10257800020E0FD05C0E056E020E066E070E076E79
:10258800FC0E086E5BEC4AF005500610D8A457D133
:10259800000E0001E96F93D75C0E056E020E066E01
:1025A800C30E076EFC0E086E5BEC4AF00550061071
:1025B800D8A402D0010E0FD05C0E056E020E066E76
:1025C8007A0E076EFC0E086E5BEC4AF0055006109A
:1025D800D8A435D1000E0001E86F71D7000EC26F84
:1025E8005C0E056E020E066EC251090DA80EF3248C
:1025F800076EEF0EF420086E5BEC4AF005500610EB
:10260800D8A404D0C2C0E7F049EC2BF00001C22BDB
:10261800080EC265E5D713D1000EC26F5C0E056EB9
:10262800020E066EC2510A0D350EF324076EF00E27
:10263800F420086E5BEC4AF005500610D8A404D0CC
:10264800C2C0E6F049EC2BF00001C22B040EC265B3
:10265800E5D7F5D0000EC26F5C0E056E020E066E51
:10266800C2510A0D670EF324076EF00EF420086EAF
:102678005BEC4AF005500610D8A404D0C2C0E2F0C2
:1026880049EC2BF00001C22B010EC265E5D7D7D06B
:102698005C0E056E020E066E070E076EFC0E086EC7
:1026A8005BEC4AF005500610D8A402D0000E0FD0FB
:1026B8005C0E056E020E066E6C0E076EFC0E086E42
:1026C8005BEC4AF005500610D8A4B9D0010E000101
:1026D800E56FF5D6000EC26F5C0E056E020E066E33
:1026E800C251190D000EF324076E030EF420086E74
:1026F8005BEC4AF005500610D8A410D00001C205C2
:10270800D8A404D00A0EDE19D8B408D0C2C0AEF0DE
:10271800AF6BDE515FEC2EF049EC2BF00001C22BC1
:10272800080EC265D9D78BD05C0E056E020E066EF8
:10273800EA0E076EFC0E086E5BEC4AF005500610B8
:10274800D8A402D0000E0FD05C0E056E020E066EE5
:10275800E50E076EFC0E086E5BEC4AF0055006109D
:10276800D8A46DD0010E0001E46FA9D6000EC26F87
:102778005C0E056E020E066EC2510A0DF90EF324A8
:10278800076EEF0EF420086E5BEC4AF00550061059
:10279800D8A404D0C2C0E0F049EC2BF00001C22B51
:1027A800050EC265E5D74BD05C0E0B6E020E0C6EA3
:1027B800F3EC42F00BC0BFF00CC0C0F0BFC0AEF0ED
:1027C800C0C0AFF00001DE515FEC2EF00001BB6F1E
:1027D80049EC2BF00001BB51D8A431D0330E6C6FFB
:1027E800F80E6D6F19EC4FF02AD00001DE51020A85
:1027F800D8B4D2D6010AD8B49DD6050AD8B4EED634
:10280800010AD8B409D70F0AD8B442D7010AD8B4F4
:10281800ADD7030AD8B45ED7060AD8B453D6020A8D
:10282800D8B418D7010AD8B4D0D51B0AD8B452D70F
:10283800020AD8B479D7010AD8B44CD7B5D7000E54
:102848000001DE6FDCEC2CF0BC6F0E0E0001DE65C3
:102858004AD3250EDE6147D3110E6C6FFA0E6D6FE9
:10286800DE514B0D110EF326000EF4222C0EF3242C
:102878006E6FDF0EF4206F6FDE51D4EC25F065C06B
:1028880070F066C071F019EC4FF02DD3C40E6C6F68
:10289800F20E6D6F19EC4FF07A0E00016C6FFB0EA3
:1028A8006D6F19EC4FF0070E00016C6FF70E6D6F2E
:1028B80019EC4FF0310E00016C6FF70E6D6FDD51A2
:1028C8006E6F6F6B6EBF6F0767C170F068C171F094
:1028D80019EC4FF00F0E00016C6FF30E6D6F19ECD1
:1028E8004FF0000E0001C26F95D0220E6C6FFA0EE9
:1028F8006D6F8E0EC225D96EDA6A020EDA22DF50AB
:10290800B46FB4514B0D2C0EF3246E6FDF0EF42010
:102918006F6F8E0EC225D96EDA6A020EDA22DF5088
:10292800B56FB5514B0D110EF326000EF4222C0E87
:10293800F324706FDF0EF420716F19EC4FF08E0ED8
:102948000001C225D96EDA6A020EDA220F0EDE18ED
:10295800D8A448D0000EC16F020EC16501D051D075
:10296800410E6C6FFA0E6D6F010EC1256E6F6F6BA5
:10297800000E6F23C151020D390EF324D96E010EDA
:10298800F420DA6EDECF0BF0DDCF0CF0000E0E6E09
:102998000A0E0D6E4BEC47F00BC070F00CC071F0D6
:1029A8000001C151020D390EF324D96E010EF42035
:1029B800DA6EDECF1FF0DDCF20F044EC4FF01FC001
:1029C80023F020C024F0000E266E0A0E256E0FECB0
:1029D8004DF023C072F024C073F019EC4FF00001E1
:1029E800C12BBAD78E0EC225D96EDA6A020EDA2248
:1029F800DF50D4EC25F065C06CF066C06DF019ECC2
:102A08004FF0550E00016C6FF30E6D6F19EC4FF01F
:102A18000001C22BFF0EB46FFF0EB56FBC51B66F2D
:102A2800B76BB451B627B551B723C251B86FB96B5C
:102A3800B651B85DB951800ABA6FB751800ABA5910
:102A4800D8A053D7F80E6C6FFC0E6D6F19EC4FF0D1
:102A58009ED25E0E6C6FF50E6D6FDE51D4EC25F0D4
:102A680065C06EF066C06FF019EC4FF090D2220E80
:102A78006C6FF50E6D6FDE51D4EC25F065C06EF00D
:102A880066C06FF019EC4FF082D2860E6C6FF10EB3
:102A98006D6FCEC16EF0CFC16FF019EC4FF077D2E9
:102AA8009D0E6C6FF30E6D6FCCC16EF0CDC16FF0E3
:102AB80019EC4FF06CD22A0E6C6FF20E6D6FBBC121
:102AC8006EF0BCC16FF019EC4FF061D29A0E6C6FCA
:102AD800F50E6D6FDE51D4EC25F065C06EF066C062
:102AE8006FF0A80E706FEF0E716F19EC4FF0010EBA
:102AF8000001C26FEE0E6C6FFC0E6D6FC251090DB6
:102B0800A80EF3246E6FEF0EF4206F6F19EC4FF0E0
:102B18000001C22B080EC265EDD7620E6C6FF40E71
:102B28006D6F19EC4FF033D2660E6C6FF40E6D6F4B
:102B380019EC4FF0AF0E00016C6FF60E6D6F19ECCB
:102B48004FF0240E00016C6FF40E6D6FF1C06EF043
:102B5800F2C06FF019EC4FF01AD2570E6C6FF30EEB
:102B68006D6FEDC06EF0EEC06FF019EC4FF00FD244
:102B7800660E6C6FF40E6D6F19EC4FF0AF0E00011E
:102B88006C6FF60E6D6F19EC4FF0A50E00016C6FAF
:102B9800F40E6D6FEFC06EF0F0C06FF019EC4FF0EF
:102BA800F6D1660E6C6FF40E6D6F19EC4FF0AF0E28
:102BB80000016C6FF60E6D6F19EC4FF0E10E00011D
:102BC8006C6FF30E6D6FEBC06EF0ECC06FF019EC2C
:102BD8004FF0DDD1780E6C6FF20E6D6FDE51D4ECD4
:102BE80025F065C06EF066C06FF019EC4FF0CFD1DC
:102BF800E40E6C6FF40E6D6FDE51D4EC25F065C0F9
:102C08006EF066C06FF0350E706FF00E716F19ECD4
:102C18004FF0010E0001C26FEE0E6C6FFC0E6D6F6F
:102C2800C2510A0D350EF3246E6FF00EF4206F6F4B
:102C380019EC4FF00001C22B040EC265EDD7620EED
:102C48006C6FF40E6D6F19EC4FF0A1D1CE0E6C6F56
:102C5800F00E6D6FDE51D4EC25F065C06EF066C0E5
:102C68006FF019EC4FF093D12A0E6C6FF10E6D6F67
:102C7800DE51D4EC25F065C06EF066C06FF019EC3B
:102C88004FF085D10C0E6C6FF60E6D6F39C10BF0DD
:102C98003AC10CF0000E0E6E0A0E0D6E4BEC47F0AA
:102CA8000BC06EF00CC06FF039C11FF03AC120F0B4
:102CB80044EC4FF01FC023F020C024F0000E266E15
:102CC8000A0E256E0FEC4DF023C070F024C071F091
:102CD80019EC4FF05CD1CB0E6C6FF90E6D6F000ED6
:102CE8006E6F030E6F6F19EC4FF0010E0001C26F8B
:102CF800C205D8A404D00A0EDE19D8B40ED0EE0E40
:102D08006C6FFC0E6D6FC251190D000EF3246E6FBF
:102D1800030EF4206F6F19EC4FF00001C22B080E60
:102D2800C265E6D7620E6C6FF40E6D6F19EC4FF04A
:102D38002ED17A0E6C6FF60E6D6F19EC4FF027D10D
:102D4800DA0E6C6FF10E6D6F19EC4FF020D1440E56
:102D58006C6FF60E6D6F19EC4FF019D1D30E6C6FC6
:102D6800F50E6D6FDE51D4EC25F065C06EF066C0CF
:102D78006FF0F90E706FEF0E716F19EC4FF0010ED6
:102D88000001C26FEE0E6C6FFC0E6D6FC2510A0D22
:102D9800F90EF3246E6FEF0EF4206F6F19EC4FF0FD
:102DA8000001C22B050EC265EDD7620E6C6FF40EE2
:102DB8006D6F19EC4FF0EBD0000EC06F000EBF6FB7
:102DC800C05163E1080EBF5DD8B05FD0B80E6C6F1C
:102DD800F90E6D6FBFC06EF0C0C06FF0310EBF2529
:102DE800D96E010EC021DA6EDF50B46F410EB425E2
:102DF800706F716B000E7123D890BF35D96EC035D6
:102E0800DA6E970ED926010EDA22DECF23F0DDCF57
:102E180024F0000E266E0A0E256E99EC4BF023C0A6
:102E280072F024C073F0D8900001BF35D96EC03558
:102E3800DA6E970ED926010EDA22DECF23F0DDCF27
:102E480024F0000E266E0A0E256E0FEC4DF023C0FE
:102E580074F024C075F019EC4FF00001C0510BE17B
:102E6800070EBF5DD8B007D0F60E6C6FFC0E6D6F05
:102E780019EC4FF006D0550E6C6FF30E6D6F19EC10
:102E88004FF00001BF4BC02B9BD7000EDE6F7FD0E9
:102E9800DE0E6C6FF80E6D6FDE514B0D450EF3268E
:102EA800000EF4222C0EF324F66EDF0EF420F76EDB
:102EB8000900F5CF6EF00A00F5CF6FF0DE514B0D2B
:102EC800470EF326000EF4222C0EF324F66EDF0EC6
:102ED800F420F76E0900F5CF70F00A00F5CF71F015
:102EE80019EC4FF054D00001DE51000AD8B4CED40A
:102EF800020AD8B4AED5010AD8B46CD6070AD8B439
:102F08002CD6010AD8B434D6030AD8B4DFD5010ABE
:102F1800D8B46ED60F0AD8B499D6010AD8B41ED739
:102F2800030AD8B4D8D6060AD8B4A1D5010AD8B4A9
:102F380038D6030AD8B498D6010AD8B4A3D61F0A3B
:102F4800D8B4F2D5010AD8B4A0D5030AD8B4A8D504
:102F5800010AD8B4B0D5070AD8B4BDD6020AD8B485
:102F6800E8D6010AD8B4B7D60E0AD8B4E9D6040A06
:102F7800D8B4EDD6020AD8B4EAD63E0AD8B4E7D611
:102F8800020AD8B4E4D6110AD8B416D781D7000EED
:102F98000101926F000E946F120001018B2B8A5170
:102FA800D8B45DD0090E8A19D8A452D08951D8B4A2
:102FB8004FD0020E0001DB19D8A40AD0000E116E02
:102FC800780E126EFA0E136E000E8DEC47F03DD09F
:102FD800030EDB19D8A40AD0000E116E6B0E126E08
:102FE800FA0E136E000E8DEC47F02FD0040EDB198D
:102FF800D8A40AD0000E116E540E126EF90E136E7C
:10300800000E8DEC47F021D0050EDB19D8A40AD0AC
:10301800000E116E690E126EF90E136E000E8DEC15
:1030280047F013D0060EDB19D8A40AD0000E116E93
:10303800A50E126EF90E136E000E8DEC47F005D03A
:10304800000E0A6E000E19EC50F0000E01018B6F95
:10305800780E8B651200000E8A6FC5EC2FF0010107
:103068008B05D8A403D0000E7A6F0BD0040E8B65A5
:1030780008D0010E8B6F0001DA510108DA6F0101E7
:103088007A2B5950D8B4AED089863C0E8C6F59A291
:103098001DD09A0E1E6EFB0E1F6E000E8DEC50F0AA
:1030A8009B0E1E6EFA0E1F6E020E8DEC50F08D0EEA
:1030B8001E6EFC0E1F6E040E8DEC50F0340E1E6E4C
:1030C800FC0E1F6E060E8DEC50F0120059A41DD098
:1030D800080E1E6EFB0E1F6E000E8DEC50F0930E48
:1030E8001E6EFC0E1F6E020E8DEC50F0880E1E6ECA
:1030F800FB0E1F6E040E8DEC50F0CF0E1E6EFB0EF5
:103108001F6E060E8DEC50F0120059A83ED000013B
:10311800DA51D8A41DD0910E1E6EFB0E1F6E000E44
:103128008DEC50F0A50E1E6EFC0E1F6E020E8DEC7F
:1031380050F0E70E1E6EFB0E1F6E040E8DEC50F065
:103148007F0E1E6EFB0E1F6E060E8DEC50F01200E9
:10315800990E1E6EFC0E1F6E000E8DEC50F03B0E8D
:103168001E6EFC0E1F6E020E8DEC50F0A90E1E6E28
:10317800FB0E1F6E040E8DEC50F09F0E1E6EFC0EA3
:103188001F6E060E8DEC50F0120059AC1AD0F70ED7
:103198001E6EFB0E1F6E020E8DEC50F0B60E4E6EBC
:1031A8004F6ADD0E506EFA0E516EDCC052F0536A53
:1031B800ECEC4DF0B60E1E6E1F6A040E8DEC50F04E
:1031C800120059AE0FD0A60E1E6EFA0E1F6E020E1A
:1031D8008DEC50F0B10E1E6EFA0E1F6E040E8DECC3
:1031E80050F01200500E0001DC19D8A40FD0F70ED1
:1031F8001E6EFB0E1F6E020E8DEC50F0490E1E6EF9
:10320800FC0E1F6E040E8DEC50F01200EA51D8B47B
:1032180003D05750D8A4BBD0000E0A6E000E19EC8C
:1032280050F0040E0A6E010E19EC50F0100E0A6EE2
:10323800060E19EC50F0000E0A6E070E19EC50F04D
:1032480059A00FD0DF0E1E6EFB0E1F6E020E8DEC06
:1032580050F01C0E1E6EFB0E1F6E040E8DEC50F00F
:1032680044D3020E5A18D8A436D03C0E01018C6FF4
:10327800880E1E6EFB0E1F6E020E8DEC50F0B60E01
:103288004E6E4F6A260E506EFC0E516E97C123F09B
:1032980098C124F0000E266E0A0E256E99EC4BF0AC
:1032A80023C052F024C053F097C123F098C124F0F2
:1032B800000E266E0A0E256E0FEC4DF023C054F05A
:1032C80024C055F0ECEC4DF0B60E1E6E1F6A040ECD
:1032D8008DEC50F00AD35750D8B424D0A30E1E6EEC
:1032E800FB0E1F6E020E8DEC50F0B60E4E6E4F6A3E
:1032F800300E506EFB0E516E58C052F0536AECEC13
:103308004DF05850D8B404D03C0E01018C6F03D056
:10331800000E0001BC6FB60E1E6E1F6A040E8DEC07
:1033280050F0E3D20001E051D8B422D0070EDB19E7
:10333800D8A40FD0D70E1E6EFB0E1F6E020E8DEC9A
:1033480050F0FE0E1E6EFA0E1F6E040E8DEC50F03D
:10335800CCD2EF0E1E6EFB0E1F6E020E8DEC50F0DF
:10336800FE0E1E6EFA0E1F6E040E8DEC50F0BDD2CE
:10337800420E1E6EFC0E1F6E020E8DEC50F02D0ECE
:103388001E6EFC0E1F6E040E8DEC50F0AED2EA05D8
:10339800D8B404D0020EEA19D8A4A7D2640E056ED8
:1033A800050E066E4E0E076EED0E086E020E0A6EC4
:1033B800000E096E17EC4BF00001EA05D8A418D0EE
:1033C800000EC46F0C0EC46501D012D0AE0EC42519
:1033D800D96EDA6A050EDA22000EDF6E2E0EC425CB
:1033E800D96EDA6A060EDA22000EDF6EC42BEAD72F
:1033F800010163516411D8B439D063C1C2F064C10A
:10340800C3F0C2C023F0C3C024F0000E266E3C0EE9
:10341800256E99EC4BF023C0B4F024C0B5F0C2C0BF
:1034280023F0C3C024F0000E266E3C0E256E0FEC70
:103438004DF023C0C2F024C0C3F0B60E4E6E4F6AE2
:103448003A0E506EFB0E516EB4C052F0B5C053F038
:10345800C2C054F0C3C055F0ECEC4DF0000E136E32
:10346800B60E146E640EAFEC4DF011D0000E0001D4
:10347800C46F070EC46501D00AD0C00EC425D96E2A
:10348800DA6A050EDA22000EDF6EC42BF2D70101CC
:1034980070AF07D0030EC45F140EC46109D02C0EA0
:1034A80006D0030EC4272C0EC46502D0140EC46FB8
:1034B800C4C161F1626B000EBA6F030EB96F6FC1C0
:1034C8001FF070C120F044EC4FF020BE0CD020500B
:1034D80004E1040E1F5CD8A006D0000E0C6EFE0E90
:1034E8000B6E1FEC44F00001E151D8B41BD0B60EAE
:1034F800656FD20E666FFA0E676F4BC168F04CC1EC
:1035080069F04DC16AF04EC16BF0030E6C6F010E8D
:103518006D6F02EC39F0010E136EB60E146E590E73
:10352800AFEC4DF0020E5A18D8A47DD03C0E010124
:103538008C6F030EC327590EC36502D04A0EC36FA2
:10354800C3C161F1626B000EBA6F030EB96F000E52
:103558000C6EFE0E0B6E1FEC44F00001DA51D8B46D
:1035680049D0E151D8B446D0010146BF09D04651EF
:10357800451123E1DE0E435D260E4459D8B01DD017
:10358800B60E0001656F260E666FFB0E676F43C1AE
:1035980068F044C169F045C16AF046C16BF0030E9A
:1035A8006C6F010E6D6F02EC39F0020E136EB60EE1
:1035B800146E490EAFEC4DF036D0B60E0001656FB3
:1035C800AB0E666FFC0E676F43C168F044C169F0CB
:1035D80045C16AF046C16BF0030E6C6F000E6D6F4B
:1035E80002EC39F0020E136EB60E146E4B0EAFECF1
:1035F8004DF019D0B60E656FE00E666FFC0E676F62
:1036080097C168F098C169F06A6B6B6B010E6C6FBB
:10361800000E6D6F02EC39F0020E136EB60E146ECA
:103628004D0EAFEC4DF00001DA51D8B431D0020E96
:10363800EA19D8A42DD0000E0101626F290E616F1E
:10364800000EBA6F010EB96F000E0C6EE30E0B6E12
:103658001FEC44F0B60E0001656FDB0E666FFC0EC2
:10366800676F6FC168F070C169F0000E69BFFF0E27
:103678006A6F6B6F010E6C6F000E6D6F02EC39F0A4
:10368800020E136EB60E146E170EAFEC4DF02DD061
:10369800000EC46F020EC46501D027D0B60E656F48
:1036A800DB0E666FFC0E676FC451020D390EF324F2
:1036B800D96E010EF420DA6EDECF68F0DDCF69F046
:1036C800000E69BFFF0E6A6F6B6F010E6C6F000E04
:1036D8006D6F02EC39F0C4C013F0B60E146E170EFD
:1036E800AFEC4DF00001C42BD5D7000EFCEC49F02F
:1036F800000E0A6E040E19EC50F059A014D0000107
:10370800DA51D8A408D0DF0E1E6EFB0E1F6E050E10
:103718008DEC50F0E5D01C0E1E6EFB0E1F6E050ED4
:103728008DEC50F0DDD059AA14D00001DA51D8A49C
:1037380008D0DF0E1E6EFB0E1F6E050E8DEC50F0CE
:10374800CFD0120E1E6EFB0E1F6E050E8DEC50F0C4
:10375800C7D0020E5A18D8B41DD0B60E4E6E4F6A96
:10376800AC0E506EFB0E516E58C052F0536AECEC22
:103778004DF05850D8B404D03C0E01018C6F03D0E2
:10378800000E0001BB6FB60E1E6E1F6A050E8DEC93
:1037980050F0A6D0020E5A18D8B493D0A1D0000E7B
:1037A8007A6F0001EA51D8B414D0020EEA19D8A4ED
:1037B80008D0160E1E6EFB0E1F6E050E8DEC50F017
:1037C8008FD0CF0E1E6EFC0E1F6E050E8DEC50F0C6
:1037D80087D001017A2B880E1E6EFB0E1F6E050E18
:1037E8008DEC50F07DD00001E151D8B41BD0B60E5D
:1037F800656FBC0E666FFA0E676F43C168F044C10F
:1038080069F045C16AF046C16BF0030E6C6F010E9A
:103818006D6F02EC39F0B60E1E6E1F6A050E8DEC48
:1038280050F05ED001017A2B0001E151D8B41BD0D1
:10383800B60E656F840E666FFA0E676F4BC168F03F
:103848004CC169F04DC16AF04EC16BF0030E6C6F4C
:10385800020E6D6F02EC39F0B60E1E6E1F6A050E71
:103868008DEC50F03DD001017A2BB60E4E6E4F6AAA
:10387800C70E506EFB0E516E97C123F098C124F00D
:10388800000E266E0A0E256E99EC4BF023C052F0FE
:1038980024C053F097C123F098C124F0000E266E7F
:1038A8000A0E256E0FEC4DF023C054F024C055F0DD
:1038B800ECEC4DF0B60E1E6E1F6A050E8DEC50F046
:1038C8000FD001017A51010AD8B485D7030AD8B4B8
:1038D8008AD7010AD8B4A8D7070AD8B4C6D75FD7F9
:1038E800000E0A6E070E19EC50F001018C51D8B485
:1038F80003D089868C071200899612000001D46FC4
:10390800DCEC2CF0D36F3C0E01018C6F8986000132
:10391800E505D8B459A802D081A2599801018A5165
:10392800D8A414D0050E0001D419D8A40FD0D951A9
:10393800D8A40CD0010E01018A6F57C13FF158C1BC
:1039480040F159C141F15AC142F100D201018A0541
:10395800D8A427D0D00E3F250001C56F070E01015E
:1039680040210001C66F000E010141210001C76F0F
:10397800000E010142210001C86F010157510001E9
:10398800C55D010158510001C65901015951000195
:10399800C75901015A510001C859D8B002D0020EC6
:1039A800F3D001018A05D8A40ED0070E0001D4195E
:1039B800D8A409D0000E01018A6F000E0001D96F4A
:1039C800D1EC17F0C3D10F0E01018A19D8A414D075
:1039D800020E0001D419D8A40FD001018951D8B41E
:1039E8000BD0000EC86F040EC96F000ECA6F000E10
:1039F800CB6F000E896FCAD0010E01018A6515D1FF
:103A0800020E0001D419D8B408D0030ED419D8B4C2
:103A180004D0060ED419D8A408D1D951D8A4B8D046
:103A280001018951D8A49CD0A3D05FC105F060C121
:103A380006F0000E086E640E076E030E0A6EE70E9F
:103A4800096E0001D4516FEC4BF005C05FF106C060
:103A580060F19CD08A511BEC31F005C05DF106C0C5
:103A68005EF15DC105F05EC106F001018A514B0DA2
:103A7800450EF326000EF4222C0EF324F66EDF0E0C
:103A8800F420F76E0900F5CF07F00A00F5CF08F02B
:103A98008A514B0D470EF326000EF4222C0EF32408
:103AA800F66EDF0EF420F76E0900F5CF09F00A0074
:103AB800F5CF0AF00001D4516FEC4BF005C05DF171
:103AC80006C05EF101015D055E11D8B4CAD75DC1BB
:103AD800AEF05EC1AFF08A515FEC2EF057D08A513C
:103AE8001BEC31F005C05DF106C05EF15DC105F06B
:103AF8005EC106F001018A514B0D450EF326000EFA
:103B0800F4222C0EF324F66EDF0EF420F76E090073
:103B1800F5CF07F00A00F5CF08F08A514B0D470E94
:103B2800F326000EF4222C0EF324F66EDF0EF4209A
:103B3800F76E0900F5CF09F00A00F5CF0AF0000189
:103B4800D4516FEC4BF005C05DF106C05EF15DC16C
:103B5800AEF05EC1AFF001018A515FEC2EF016D0D5
:103B68008A510A0AD8B476D7050AD8B45ED7B7D727
:103B78008AC10CF08E0E0D6E020E0E6ED3C00FF0C1
:103B88000001D451BFEC48F001018A6F010EC9D081
:103B9800020ED919D8A40ED001015B515C11D8A42A
:103BA80009D0010E5C6FF40E5B6FF40E57253F6F62
:103BB800010E32D001015B515C11D8B4C7D0575106
:103BC8003F5D58514059595141595A514259D8B0FD
:103BD800BDD0000E0001D96F01015C5104E1020E55
:103BE8005B5DD8A0B3D05BC1C5F05CC1C6F0000175
:103BF800D890C633C533D890C633C533D890C633AA
:103C0800C533C55101015B5F0001C65101015C5B11
:103C18005B5157253F6F5C515821406F000E592169
:103C2800416F000E5A21426F91D0010E01018A6541
:103C38007BD0050E0001D419D8A476D0D951D8A4C8
:103C480073D0010ED96F01018951D8B43FD0000E4D
:103C5800896F0F0E8A19D8A479D05FC105F060C1A9
:103C680006F0076A086A0A0E096E000E0A6E000E50
:103C78000B6E000E0C6E44EC4BF00A0ED890053615
:103C8800063607360836E82EF9D7000E0524116ED9
:103C9800140E0620126E000E0720136E000E082068
:103CA800146E65C115F066C116F0176A186ACFEC74
:103CB80047F011C0C8F112C0C9F113C0CAF114C04D
:103CC800CBF15FC139F160C13AF140D0010E896F83
:103CD8000F0E8A19D8A40BD039C11FF03AC120F0B1
:103CE80044EC4FF01FC05FF120C060F12FD0250ECB
:103CF8008A19D8A42BD0000E8A6F000E896F000E87
:103D0800596E000E0001DC6F000E586E000EAD6F8C
:103D1800000EAC6F90EC4DF0D1EC17F049EC2BF0A5
:103D2800020E0001D96F12D0070E0001D419D8A4D1
:103D38000DD0000ED96F000E01015C6F000E5B6F95
:103D4800000E066E0A0E056E30EC4DF00001D90526
:103D5800D8B404D001018A05D8A4F9D001018A0594
:103D6800D8A423D0000E0A6E000E19EC50F0040EF1
:103D78000A6E010E19EC50F0C70E1E6EFA0E1F6E79
:103D8800020E8DEC50F0B50E1E6EFB0E1F6E040E6B
:103D98008DEC50F0100E0A6E060E19EC50F0000E65
:103DA8000A6E070E19EC50F0CFD08A514B0D080E51
:103DB800F326000EF4222C0EF32400016C6FDF0EA4
:103DC800F4206D6F020E8AEC4AF06DD08951D8B498
:103DD80026D0C90E4E6E4F6A260E506EFC0E516EDE
:103DE8005FC123F060C124F0000E266E0A0E256E16
:103DF80099EC4BF023C052F024C053F05FC123F07C
:103E080060C124F0000E266E0A0E256E0FEC4DF0F0
:103E180023C054F024C055F0ECEC4DF031D0C90E5D
:103E28004E6E4F6A260E506EFC0E516E39C11FF051
:103E38003AC120F044EC4FF01FC023F020C024F01A
:103E4800000E266E0A0E256E99EC4BF023C052F038
:103E580024C053F039C11FF03AC120F044EC4FF0B0
:103E68001FC023F020C024F0000E266E0A0E256E17
:103E78000FEC4DF023C054F024C055F0ECEC4DF09D
:103E8800C90E00016C6F6D6B040E8AEC4AF011D0FC
:103E98008A51D4EC25F065C06CF066C06DF0040E54
:103EA8008AEC4AF006D001018A510F0AD8B48ED79D
:103EB800EFD7000E0A6E070E19EC50F0C90E4E6EC1
:103EC8004F6A870E506EFC0E516E0001DD51526E26
:103ED800536A52BE5306ECEC4DF0070E116EC90E34
:103EE800126E136A000E8DEC47F0C90E4E6E4F6AC3
:103EF800500E506EFC0E516E0001D351A6EC4EF0E0
:103F08000001C56FC551526E536AD3C054F0556A4B
:103F1800ECEC4DF0070E116EC90E126E136A310EDD
:103F28008DEC47F0070E116E810E126EFC0E136EAB
:103F38007A0E056EFB0E066EECEC4EF00550FA0D8F
:103F4800F3507A0F8DEC47F0020E0001D96F57C17C
:103F58004FF158C150F159C151F15AC152F1000EF7
:103F68000101886FD4C0C5F1000E8B6F12000001EB
:103F7800BC6F000E0001CA6F000EC96F000EBE6F45
:103F8800000EBD6F000EBB6F000EBA6F20EEB0F0D2
:103F9800070EDE6AE806FDE2E751D8B408EC4EF0F9
:103FA800020E01013119D8A415D00001EF51D75DD7
:103FB800F051D859D8B00ED0E851D8A40BD0D7C0FA
:103FC80005F0D8C006F0000E086E0A0E076E7FECEA
:103FD8004FF00AD0EFC005F0F0C006F0000E086EF2
:103FE8000A0E076E7FEC4FF005C077F106C078F136
:103FF800010175517611D8B404D075C177F176C135
:1040080078F1020E0001E76104D077C121F178C18F
:1040180022F1000ECB6F310ECB25D96EDA6A010E74
:10402800DA22020EDE18D8A41AD0C94BCA2BCB51FB
:10403800020D210EF324D96E010EF420DA6EDE5043
:10404800BD27DD50BE23CB51020D970EF324D96E48
:10405800010EF420DA6EDE50BA27DD50BB23CB2BDD
:10406800070ECB65D8D7BC51D8A455D0020EEA1993
:10407800D8B451D0F1C005F0F2C006F0000E086EB9
:104088000A0E076E7FEC4FF001017351055C0001C9
:10409800C36F0101745106580001C46FC4BF10D02A
:1040A800C45103E1C305D8A00BD0C3C00BF0C4C0F2
:1040B8000CF0000E0E6E040E0D6E4BEC47F014D093
:1040C800C3C005F0C4C006F0000E086E640E076E8B
:1040D8007FEC4FF005C00BF006C00CF0000E0E6E22
:1040E800640E0D6E4BEC47F00B500001D5270C50B9
:1040F800D623D6AF04D0000ED66F000ED56FD6BF2C
:104108000AD0210ED55D030ED659D8A004D0030ECF
:10411800D66F200ED56F020EEA19D8A4ADD0BBC158
:1041280005F0BCC106F0FF0E086EF60E076E7FECB8
:104138004FF001016F5105240001C76F0101705153
:1041480006200001C86FC8AF19D0C8AF0CD0F60E52
:10415800C75DFF0EC859D8B006D0050ED525D56F56
:10416800000ED6211BD0C7C00BF0C8C00CF0000E43
:104178000E6E040E0D6E4BEC47F00AD0C7C00BF064
:10418800C8C00CF0000E0E6E020E0D6E4BEC47F020
:104198000B500001D55DD56F0C50D659D66FC9C0EC
:1041A80005F0CAC006F0EDC007F0EEC008F07FECDD
:1041B8004FF005C0C5F006C0C6F0C5C005F0C6C0C2
:1041C80006F0000E086E0A0E076E7FEC4FF00550E1
:1041D8000001D55D0650D659D8A002D0D6AF45D03B
:1041E800C9C005F0CAC006F0EDC007F0EEC008F07F
:1041F8007FEC4FF005C0C5F006C0C6F0C5C005F09D
:10420800C6C006F0000E086E0A0E076E7FEC4FF06F
:1042180005C0D5F006C0D6F00001C951CA11D8B4FE
:1042280024D00101CC51CD11D8B41FD00001C8BF92
:104238001CD0C85104E10B0EC75DD8A016D00101EF
:1042480063516411D8A418D0CCC105F0CDC106F0D3
:10425800000E086E3C0E076E7FEC4FF005C0ACF008
:1042680006C0ADF090EC4DF007D0000E0001AD6F28
:10427800000EAC6F90EC4DF00001E705D8A41FD0FC
:10428800EBC005F0ECC006F0000E086E0A0E076ED3
:104298007FEC4FF00001D551055CD6510658D8B0D7
:1042A8000ED0EBC005F0ECC006F0000E086E0A0E4A
:1042B800076E7FEC4FF005C0D5F006C0D6F00001C0
:1042C800BA510101735D0001BF6FBB5101017459FF
:1042D8000001C06FC0AF04D0000EC06F000EBF6FEA
:1042E800EA51D8A416D0E705D8A40FD0EBC005F042
:1042F800ECC006F0000E086E0A0E076E7FEC4FF059
:1043080005C0D5F006C0D6F004D077C1D5F078C185
:10431800D6F00001C951CA11D8B41200BC51D8B4A2
:1043280015D0020EEA19D8B411D0F1C005F0F2C0C8
:1043380006F0000E086E0A0E076E7FEC4FF00001C3
:10434800BF51055CD56FC0510658D66FD6BF3DD05A
:10435800C9C005F0CAC006F0EDC007F0EEC008F00D
:104368007FEC4FF005C0C5F006C0C6F0C5C005F02B
:10437800C6C006F0000E086E0A0E076E7FEC4FF0FE
:1043880005500001D55D0650D659D8A01ED0020EA2
:10439800EA19D8A440D0010170BF3DD0705104E1A2
:1043A8000B0E6F5DD8A037D0F1C005F0F2C006F053
:1043B800000E086E0A0E076E7FEC4FF00101735174
:1043C800055C74510658D8B026D0C9C005F0CAC0DB
:1043D80006F0EDC007F0EEC008F07FEC4FF005C026
:1043E800C5F006C0C6F0C5C005F0C6C006F0000E90
:1043F800086E0A0E076E7FEC4FF005C0D5F006C0B8
:10440800D6F00101872B4F0E00016C6FFA0E6D6F0D
:1044180019EC4FF003D0000E0101876F0001D55150
:10442800BD5DBE51800AAE6FD651800AAE59D8B074
:1044380004D0BDC0D5F0BEC0D6F0D5C0C1F0D6C03E
:10444800C2F0000ECB6FC1C00BF0C2C00CF0C9C0E7
:104458000DF0CAC00EF04BEC47F00BC0B8F00CC022
:10446800B9F0310E0001CB25D96EDA6A010EDA22D5
:10447800020EDE18D8A441D0CB51B00FD96EDA6A3B
:10448800DF50D8A43AD0CB51020D210EF324D96EB7
:10449800010EF420DA6EDE50B85DDE50B959D8A0AE
:1044A8002CD0CB51020D210EF324D96E010EF4202D
:1044B800DA6ECB51020D970EF324E16E010EF42053
:1044C800E26EDECFE6FFDDCFE5FFCB51B00FD96E50
:1044D800DA6A010EDF6EC907D8A0CA07CB51020DF0
:1044E800970EF324D96E010EF420DA6EDE50C15F08
:1044F800DD50C25B000ECB6F01D0CB2B080ECB6119
:1045080004D0C951CA11D8A49ED7000ECB6FC95187
:10451800CA11D8B41200310ECB25D96EDA6A010E51
:10452800DA22020EDE18D8A433D0CB51B00FD96EE0
:10453800DA6ADF50D8A42CD0C1C00BF0C2C00CF08E
:10454800C9C00DF0CAC00EF04BEC47F00001CB51CA
:10455800020D970EF324D96E010EF420DA6E0BC00B
:10456800DEFF0CC0DDFFCB51B00FD96EDA6A010E49
:10457800DF6EC907D8A0CA07CB51020D970EF324E6
:10458800D96E010EF420DA6EDE50C15FDD50C25BD9
:10459800CB2B080ECB611200BAD7000E01017D6F3C
:1045A80026D220EE03F0AC51D926AD51DA22DF50E5
:1045B800D8A402D0000E120020EE03F0AC51D92688
:1045C800AD51DA22DFAE02D0040E01D0070EB36F70
:1045D800000EB46FACC036F0ADC037F0B351B4259F
:1045E800386EAE51190D0A0EF324D96E030EF4205D
:1045F800DA6EDF50396EAE51190D0C0EF324D96EF8
:10460800030EF420DA6EDF503A6EAE51190D120E19
:10461800F324D96E030EF420DA6EDF50FD0F3B6EE3
:10462800E6EC34F00001B451040DF3CF4AF0F4CFB6
:104638004BF04A50AF25D96E4B50B021DA6E36C0D8
:10464800DEFF37C0DEFF38C0DEFF39C0DEFF070EF1
:10465800B319D8A4E6D0B451D8A428D0B451040DC5
:10466800F3CF4AF0F4CF4BF04A50AF25D96E4B50F8
:10467800B021DA6EDECF11F0DECF12F0DECF13F00C
:10468800DECF14F00A0E156E000E166E000E176EB1
:10469800000E186E5AEC43F011C01FF012C020F043
:1046A80044EC4FF01FC065F120C066F1C8C105F0A9
:1046B800C9C106F0000E06BEFF0E076E086E0001A7
:1046C800B451040DF3CF4AF0F4CF4BF04A50AF2564
:1046D800D96E4B50B021DA6EDECF09F0DECF0AF08A
:1046E800DECF0BF0DECF0CF044EC4BF005C011F040
:1046F80006C012F007C013F008C014F0000E156EC3
:10470800040E166E000E176E000E186E5AEC43F06B
:104718000001B451040DF3CF4CF0F4CF4DF04C50E0
:10472800AF25D96E4D50B021DA6E11C0DEFF12C030
:10473800DEFF13C0DEFF14C0DEFFF25104E1650E98
:10474800F15DD8A031D0B451040DF3CF4AF0F4CFC5
:104758004BF04A50AF25D96E4B50B021DA6EDECF00
:104768004CF0DECF4DF0DECF4EF0DECF4FF0D890DC
:104778004C34506E4D34516E4E34526E4F34536E2D
:10478800B451040DF3CF54F0F4CF55F05450AF2585
:10479800D96E5550B021DA6E50C0DEFF51C0DEFF31
:1047A80052C0DEFF53C0DEFFB451040DF3CF4AF010
:1047B800F4CF4BF04A50AF25D96E4B50B021DA6E8A
:1047C800030EDBBE2BD0B451040DF3CF4AF0F4CF67
:1047D8004BF04A50AF25D96E4B50B021DA6E030E1C
:1047E800DBBE0CD0030EDB5019E1020EDB5016E1E4
:1047F800010EDB5013E1DE04D8B010D0B451040D23
:10480800F3CF4AF0F4CF4BF04A50AF25D96E4B5056
:10481800B021DA6EDE6ADE6ADE6ADD6A010E010147
:104828007D6F0001B42B020EB465D4D620EE01F0E2
:10483800AC51D926AD51DA220F0EDF642FD0070E06
:10484800B319D8A42BD0010E01017E6F0001E251EB
:104858004A6E4B6AD8904A364B3620EE01F0AC517E
:10486800D926AD51DA22DF50030B4C6E4D6A4A50FF
:104878004C1804E14B504D18D8B488D1020EE761AA
:1048880085D1080EA96F000EA86FD890E235AA6FDF
:10489800AB6BAB370A0E8DEC4EF078D1000E0101F0
:1048A8007E6F74D1ACC036F0ADC037F0030E386EF1
:1048B800AE51190D0A0EF324D96E030EF420DA6EE8
:1048C800DF50396EAE51190D0C0EF324D96E030E5C
:1048D800F420DA6EDF503A6E000E3B6EE6EC34F0F0
:1048E800361E371E364A372A36C0B1F037C0B2F006
:1048F800000E0001B46FACC036F0ADC037F0B4C0E4
:1049080038F0AE51190D0A0EF324D96E030EF420B7
:10491800DA6EDF50396EAE51190D0C0EF324D96ED4
:10492800030EF420DA6EDF503A6EB151FD0F3B6E84
:10493800E6EC34F00001B451040DF3CF4AF0F4CFA3
:104948004BF04A50AF25D96E4B50B021DA6E36C0C5
:10495800DEFF37C0DEFF38C0DEFF39C0DEFFB42B14
:10496800020EB465C8D712D1000EB46FACC036F0D1
:10497800ADC037F0B4C038F0AE51190D0A0EF324AB
:10498800D96E030EF420DA6EDF50396EAE51190D70
:104998000C0EF324D96E030EF420DA6EDF503A6E53
:1049A800AE51190D120EF324D96E030EF420DA6EEF
:1049B800DF50FD0F3B6EE6EC34F00001B451040DFE
:1049C800F3CF4AF0F4CF4BF04A50AF25D96E4B5095
:1049D800B021DA6E36C0DEFF37C0DEFF38C0DEFF3A
:1049E80039C0DEFFB42B020EB465C0D7CFD00001AA
:1049F800AE51010AD8B4D5D5070AD8B453D7B4D71D
:104A0800000EB46FACC036F0ADC037F0B451030F30
:104A1800386EAE51190D0A0EF324D96E030EF42028
:104A2800DA6EDF50396EAE51190D0C0EF324D96EC3
:104A3800030EF420DA6EDF503A6EAE51190D150EE2
:104A4800F324D96E030EF420DA6EDF503B6EE6ECE9
:104A580034F039AE32D00001B451040DF3CF4AF02E
:104A6800F4CF4BF04A50AF25D96E4B50B021DA6ED7
:104A7800DECF4CF0DECF4DF0DECF4EF0DECF4FF084
:104A88004C1E4D1E4E1E4F1E4C2A000E4D224E220D
:104A98004F22B451040DF3CF50F0F4CF51F05050E1
:104AA800AF25D96E5150B021DA6E4CC0DEFF4DC033
:104AB800DEFF4EC0DEFF4FC0DEFF0001B42B020E4A
:104AC800B465A0D76BD0000EB46FACC036F0ADC0E3
:104AD80037F0B451050F386EAE51190D0A0EF32494
:104AE800D96E030EF420DA6EDF50396EAE51190D0F
:104AF8000C0EF324D96E030EF420DA6EDF503A6EF2
:104B0800AE51190D150EF324D96E030EF420DA6E8A
:104B1800DF503B6EE6EC34F039AE32D00001B451D0
:104B2800040DF3CF4AF0F4CF4BF04A50AF25D96EBD
:104B38004B50B021DA6EDECF4CF0DECF4DF0DECF39
:104B48004EF0DECF4FF04C1E4D1E4E1E4F1E4C2A0F
:104B5800000E4D224E224F22B451040DF3CF50F0D7
:104B6800F4CF51F05050AF25D96E5150B021DA6EC4
:104B78004CC0DEFF4DC0DEFF4EC0DEFF4FC0DEFF83
:104B88000001B42B020EB465A0D708D00001AE51C5
:104B9800040AD8B435D7010AD8B495D7010E120043
:104BA8000001696F000169511BEC31F005C06AF022
:104BB80006C06BF085D1E851D8B405D0BF0E656F3B
:104BC800F00E666F1200A60E656FF00E666F12008B
:104BD800EA05D8A405D0B90E656FF00E666F12000D
:104BE800020EEA19D8A405D0B30E656FF00E666FF1
:104BF80012009F0E656FF00E666F1200A70E4E6EC4
:104C0800010E4F6E650E506EFC0E516E6AC052F06A
:104C18006BC053F0ECEC4DF0A70E0001656F010E70
:104C2800666F12006A516B11D8B40FD0A70E4E6E82
:104C3800010E4F6E170E506EFC0E516E6AC052F088
:104C48006BC053F0ECEC4DF0E7D7850E656FF00EB6
:104C5800666F120001017B51D8B40AD000016A05C1
:104C68006B11D8A405D0570E656FFC0E666F120045
:104C78000001E751090DA80EF324656FEF0EF4202B
:104C8800666F1200A70E4E6E010E4F6E660E506EC6
:104C9800FC0E516E6AC052F06BC053F0ECEC4DF054
:104CA800BBD7E905D8A405D08E0E656FF00E666FE8
:104CB8001200020EE919D8A4C8D7AD0E656FF00E20
:104CC800666F1200E6510A0D350EF324656FF00E7B
:104CD800F420666F1200E551D8B4B7D7970E656F08
:104CE800F00E666F12006AC005F06BC006F0000E89
:104CF800086E190E076E7FEC4FF0000E05240001B8
:104D0800656F030E0620666F1200E2510A0D670EEA
:104D1800F324656FF00EF420666F1200100E6B5DC1
:104D2800D8B013D0A70E4E6E010E4F6E440E506EC3
:104D3800FB0E516E6AC052F06BC053F06AC054F05B
:104D48006BC055F0ECEC4DF067D7A70E4E6E010E18
:104D58004F6ED50E506EFC0E516E6AC052F06BC08D
:104D680053F06AC054F06BC055F0ECEC4DF054D7DA
:104D7800E451D8B405D07B0E656FF00E666F120053
:104D8800CA0E656FF00E666F12006C0E656FFB0E33
:104D9800666F1200580E656FFB0E666F1200620E8A
:104DA800656FFB0E666F12004E0E656FFB0E666F29
:104DB80012006AC067F06BC068F06851000AD8A496
:104DC8001DD06751000AD8B4E0D7010AD8B4E2D799
:104DD800030AD8B4E4D7010AD8B4E6D70FD0BD0E79
:104DE800656FFC0E666F1200B70E656FFC0E666F7E
:104DF8001200FF0E656FFB0E666F12006AC067F047
:104E08006BC068F06851000AD8A415D06751000A31
:104E1800D8B4EAD7010AD8B4ECD7030AD8B4DFD794
:104E28000AD0E80E656FFA0E666F1200F30E656F12
:104E3800FA0E666F12006AC067F06BC068F06851BE
:104E4800000AD8A407D06751030AD8B4EAD7070ADA
:104E5800D8B4ECD7A70E4E6E010E4F6EF20E506E00
:104E6800FC0E516EB30E676F020E686FD8906A35EC
:104E7800D96E6B35DA6ED890D936DA366751D926BD
:104E88006851DA22DECF52F0DECF53F0DECF54F095
:104E9800DECF55F0ECEC4DF0BFD6E0510A0DF90E1F
:104EA800F324656FEF0EF420666F1200C50E656F70
:104EB800F00E666F1200560E656FF30E666F1200E5
:104EC80000016951020AD8B476D6010AD8B4E9D6E5
:104ED800070AD8B4D7D6010AD8B4D4D6030AD8B4A6
:104EE800B9D6010AD8B4EED60F0AD8B4F4D6010A56
:104EF800D8B4D3D7030AD8B4F6D6010AD8B40ED793
:104F0800070AD8B465D6010AD8B4BCD6030AD8B4FF
:104F1800FCD61E0AD8B4B6D6010AD8B46FD6030A8E
:104F2800D8B480D6010AD8B4ADD6070AD8B4DBD62F
:104F3800010AD8B4F3D6030AD8B41AD7010AD8B4E8
:104F4800D2D60F0AD8B4EAD6010AD8B432D7030A9F
:104F5800D8B454D7010AD8B46ED7070AD8B4DED665
:104F6800010AD8B477D7030AD8B4D8D6010AD8B476
:104F780071D73F0AD8B4D2D6010AD8B46BD7030A7E
:104F8800D8B4CCD6010AD8B465D7060AD8B48ED717
:104F980092D7000E0101006F000E016F000E036F23
:104FA800000E026F000E056F000E046F000E076FF3
:104FB800000E066F000E0A6F000E0B6F000E106FCA
:104FC800050E00017D19D8A42AD07BC005F07CC04D
:104FD80006F07DC007F064EC49F005500610D8A42F
:104FE8001200040E01010B6F7BC0D9FF7CC0DAFFF1
:104FF800DF50006F000120EE01F07B51D9267C5173
:10500800DA22DF500101016F000120EE02F07B512E
:10501800D9267C51DA22DF500101106F1200070EE9
:105028007D6512007BC0D9FF7CC0DAFFDF5001012B
:10503800006F000120EE01F07B51D9267C51DA2265
:10504800DF500101016F7BC005F07CC006F07DC018
:1050580007F064EC49F005500610D8A41200F8D007
:10506800080E00017D19D8A430D0020E01010B6F83
:10507800000120EE03F07B51D9267C51DA22DF5063
:105088007E6F20EE02F07B51D9267C51DA22DF5068
:105098007F6F7E510101026F7FC003F1000120EE96
:1050A80005F07B51D9267C51DA22DF507E6F20EE45
:1050B80004F07B51D9267C51DA22DF507F6F7E5174
:1050C8000101046F7FC005F1D1D020EE02F07B51C1
:1050D800D9267C51DA22DF5001010A6F0A510001FA
:1050E8007E6F7F6BFB0E806FFF0E816F7D51826F2D
:1050F800836B80518227815183237E51821906E177
:105108007F518319D8A402D0030E98D0DC0E6C6F9F
:10511800F70E6D6F19EC4FF0A9D0080E00017D193C
:10512800D8A434D0010E01010B6F000120EE03F06A
:105138007B51D9267C51DA22DF507E6F20EE02F0B7
:105148007B51D9267C51DA22DF507F6F7E510101D5
:10515800026F7FC003F1000E056F010E046F00019E
:1051680020EE05F07B51D9267C51DA22DF507E6F84
:1051780020EE04F07B51D9267C51DA22DF507F6F74
:105188007E510101066F7FC007F170D0F90E6C6F78
:10519800F70E6D6F19EC4FF069D0000120EE03F0A7
:1051A8007B51D9267C51DA22DF507E6F20EE02F047
:1051B8007B51D9267C51DA22DF507F6F7E51010165
:1051C800026F7FC003F1000120EE05F07B51D92664
:1051D8007C51DA22DF507E6F20EE04F07B51D92615
:1051E8007C51DA22DF507F6F7E510101046F7FC04E
:1051F80005F1080E00017D19D8B486D720EE06F017
:105208007B51D9267C51DA22DF5001010A6F0A51FD
:1052180000017E6F7F6BF70E806FFF0E816F7D51EF
:10522800826F836B80518227815183237E5182193B
:1052380008E17F518319D8A404D0020E01010B6F35
:1052480015D0160E6C6FF80E6D6F19EC4FF00ED06E
:1052580001010151030AD8B403D7070AD8B400D70B
:10526800020AD8B45AD7160AD8B497D701010B51F5
:10527800D8B46AD00A51D8B467D07BC008F17CC0D2
:1052880009F100017D510101082500017E6F000E22
:105298000101092100017F6F01010A5100017E5FB0
:1052A800000E7F5BFE0E7E250101086FFF0E0001D8
:1052B8007F210101096F48D000C10CF101C10DF136
:1052C80002C10EF103C10FF1120000510C19D8A44C
:1052D80010D00D510119D8A40CD0030E0119D8B45F
:1052E80004D0040E0119D8A404D00EC102F10FC1D4
:1052F80003F1000E0C6F000E0D6F000E0F6F000E05
:105308000E6F120000510C19D8A413D00D510119B9
:10531800D8A40FD0090E0019D8B40BD0030E0B6F08
:10532800000E0C6F000E0D6F000E0F6F000E0E6F4B
:105338001200020E0B6F00C10CF101C10DF102C188
:105348000EF103C10FF112000B51010AD8B4DAD7DC
:10535800030AD8B4B1D7010AD8A41200B6D7165098
:10536800800B1F6E16501624216E15BE2180215009
:10537800D8B40DD02128D8A408D0000E136E000E82
:10538800146E000E156E000E166E158E08D0000EE7
:10539800136E000E146E000E156E000E166E1A5067
:1053A800800B1F1A1A501A24206E19BE2080205014
:1053B800D8B40DD02028D8A408D0000E176E000E3F
:1053C800186E000E196E000E1A6E198E08D0000E97
:1053D800176E000E186E000E196E000E1A6E205011
:1053E800D8B403D02150D8A409D0000E136E000EF3
:1053F800146E000E156E000E166E12001950130270
:10540800F3CF2AF0F4CF2BF02A50226E236A246AB5
:10541800256A2B50266E276A286A296A18501402B2
:10542800F3CF2AF0F4CF2BF02A502226000E2322A5
:10543800242225222B502626000E27222822292224
:1054480017501502F3CF2AF0F4CF2BF02A5022265A
:10545800000E2322242225222B502626000E272246
:105468002822292224C025F023C024F022C023F0BA
:10547800226A17501402F3CF2AF0F4CF2BF02A50E7
:1054880022262B502322000E2422000E25221850FB
:105498001302F3CF2AF0F4CF2BF02A5022262B50F8
:1054A8002322000E2422000E252224C025F023C02A
:1054B80024F022C023F0226A17501302F3CF2AF0F7
:1054C800F4CF2BF02A5022262B502322000E242220
:1054D800000E252219501402F3CF2AF0F4CF2BF036
:1054E8002A5026262B502722000E2822000E292279
:1054F80018501502F3CF2AF0F4CF2BF02A502626A5
:105508002B502722000E2822000E2922195015029E
:10551800F3CF2AF0F4CF2BF02A501B6E2B501C6EC1
:105528001D6A1E6A1DC01EF01CC01DF01BC01CF0A9
:105538001B6A1B5026261C5027221D5028221E504D
:10554800292225502626000E27222822292224C077
:1055580025F023C024F022C023F0226A205021C065
:105568001BF01C6A1B26000E1C22820E1B242A6EAE
:10557800FF0E1C202B6E0FD0D890263627362836E3
:10558800293625BE2680D89022362336243625365D
:105598002A06D8A02B0628AEEFD7000E206E25AE1F
:1055A80017D0FF0E22141B6EFF0E23141C6EFF0E65
:1055B80024141D6E7F0E25141E6E1B501C101D100A
:1055C8001E10D8B403D0010E206E02D026B0FBD72F
:1055D8002050D8B41FD0010E2626000E27222822DC
:1055E800292229A017D026C01BF027C01CF028C0EC
:1055F8001DF029C01EF01E341E321D321C321B3213
:105608001BC026F01CC027F01DC028F01EC029F0C2
:105618002A4A2B2A2BBE0DD02B5003E12A28D8A0CA
:1056280008D0000E266E000E276E800E286E7F0EA4
:1056380020D02BBE05D02B500EE12A04D8B00BD0B9
:10564800000E266E000E276E000E286E000E296EC4
:10565800000E1F6E0FD02AC021F0FF0E2616FF0E77
:1056680027167F0E2816000E291621B0288ED890EE
:105678002130296E1F50291226C013F027C014F0BC
:1056880028C015F029C016F012000101DC51330FB3
:10569800816FDC51880F806FBFEC39F0F2CF32F5A3
:1056A800F29E000EA96E000EAA6EF10E056E066A35
:1056B800000E086E020E076EA6EC4CF0EF0E056E9B
:1056C800066A000E086E020E076EA6EC4CF0ED0E90
:1056D800056E066A000E086E020E076EA6EC4CF008
:1056E800C80E056E010E066E000E086E040E076EDB
:1056F800A6EC4CF0EA0E056E066A000E086E010E66
:10570800076EA6EC4CF0E90E056E066A000E086EF0
:10571800010E076EA6EC4CF0EB0E056E066A000E45
:10572800086E020E076EA6EC4CF0E80E056E066ACF
:10573800000E086E010E076EA6EC4CF0E70E056E23
:10574800066A000E086E010E076EA6EC4CF0E60E17
:10575800056E066A000E086E010E076EA6EC4CF088
:10576800E50E056E066A000E086E010E076EA6ECC1
:105778004CF0CE0E056E010E066E000E086E020E7F
:10578800076EA6EC4CF0CC0E056E010E066E000EF0
:10579800086E020E076EA6EC4CF0F60E056E066A51
:1057A800000E086E010E076EA6EC4CF0F50E056EA5
:1057B800066A000E086E010E076EA6EC4CF0E40EA9
:1057C800056E066A000E086E010E076EA6EC4CF018
:1057D800E30E056E066A000E086E010E076EA6EC53
:1057E8004CF0F40E056E066A000E086E010E076E88
:1057F800A6EC4CF0D20E056E030E066E000E086E77
:10580800010E076EA6EC4CF0D80E056E030E066E60
:10581800000E086E020E076EA6EC4CF0DA0E056E4E
:10582800030E066E000E086E010E076EA6EC4CF015
:10583800BB0E056E010E066E000E086E020E076E98
:10584800A6EC4CF0E20E056E066A000E086E010E1C
:10585800076EA6EC4CF0E10E056E066A000E086EA7
:10586800010E076EA6EC4CF0F30E056E066A000EEC
:10587800086E010E076EA6EC4CF0E00E056E066A87
:10588800000E086E010E076EA6EC4CF0D50E056EE4
:10589800030E066E000E086E020E076EA6EC4CF0A4
:1058A800D70E056E030E066E000E086E010E076E0B
:1058B800A6EC4CF0DB0E056E030E066E000E086EAD
:1058C800020E076EA6EC4CF0DD0E056E030E066E9A
:1058D800000E086E010E076EA6EC4CF0DE0E056E8B
:1058E800030E066E000E086E020E076EA6EC4CF054
:1058F800E00E056E030E066E000E086E010E076EB2
:10590800A6EC4CF0D40E056E030E066E000E086E63
:10591800010E076EA6EC4CF0D30E056E030E066E54
:10592800000E086E010E076EA6EC4CF0000E010189
:10593800816F000E806F32C5F2FF000E00016C6FA0
:10594800FA0E6D6F19EC4FF00001E705D8A42CD0C2
:10595800000E0501346F000E336F33510C0F1BEC32
:1059680031F0D89005013335D96E3435DA6E000E32
:10597800D926050EDA2205C0DEFF06C0DDFF334B4F
:10598800342B345104E1190E335DD8A0E6D7020E4A
:10599800136E000E126E000E146E050E156E190EA3
:1059A800166E090E22EC3BF0010E01017F6F12000A
:1059B800000E056E020E02018E6F052A0001E851E5
:1059C800D8A409D08E0E0524D96EDA6A020EDA221E
:1059D800030EDF6E052A8E0E0524D96EDA6A020ED2
:1059E800DA220C0EDF6E052A020EEA19D8A41ED0A0
:1059F800020EE7611BD08E0E0524D96EDA6A020EFC
:105A0800DA22110EDF6E052A8E0E0524D96EDA6AA7
:105A1800020EDA22120EDF6E052A8E0E0524D96ECA
:105A2800DA6A020EDA22130EDF6E052A8E0E0524BC
:105A3800D96EDA6A020EDA22060EDF6E052AEA51FC
:105A4800D8B40CD0020EE76109D08E0E0524D96EA9
:105A5800DA6A020EDA22100EDF6E052AEA51D8B48D
:105A680003D0010EE76503D0E705D8A409D08E0E50
:105A78000524D96EDA6A020EDA22040EDF6E052AD0
:105A8800E705D8A409D08E0E0524D96EDA6A020E6D
:105A9800DA220D0EDF6E052A8E0E0524D96EDA6A1B
:105AA800020EDA22050EDF6E052A8E0E0524D96E47
:105AB800DA6A020EDA22070EDF6E052A8E0E052438
:105AC800D96EDA6A020EDA22080EDF6E052A8E0E09
